:100000000C9434030C9451030C9451030C9451033D
:100010000C9451030C9451030C9451030C94510310
:100020000C9451030C9451030C9499170C94E01503
:100030000C940A270C9451030C9451030C94510313
:100040000C9451030C9451030C9451030C945103E0
:100050000C9451030C9420120C9451030C945103F2
:100060000C9451030C9451030C9451030C945103C0
:100070000C9451030C9451030C9451030C945103B0
:100080000C9451030C9451030C9451030C945103A0
:100090000C9451030C9451030C9451030C94510390
:1000A0000C9451030C9451030C9451030001010171
:1000B0000101010101010202020202020202020325
:1000C00003030303030303040404040404040505F5
:1000D00005050506060606060707070707080808B8
:1000E00008090909090A0A0A0B0B0B0C0C0C0D0D67
:1000F0000D0E0E0E0F0F0F101011111112121313FF
:100100001414151516161717181819191A1A1B1B77
:100110001C1D1D1E1E1F20202122222324242526D3
:1001200026272829292A2B2C2D2D2E2F303132320B
:10013000333435363738393A3B3C3D3E3F40414217
:10014000434445464748494A4C4D4E4F50515354FD
:10015000555658595A5B5D5E5F61626465666869B1
:100160006B6C6D6F7072737577787A7B7D7E808231
:10017000838587888A8C8E8F91939596989A9C9E7A
:10018000A0A2A3A5A7A9ABADAFB1B3B5B7BABCBE8A
:10019000C0C2C4C6C9CBCDCFD1D4D6D8DBDDDFE257
:1001A000E4E7E9EBEEF0F3F5F8FAFDFFFFAA7F557F
:1001B000402223252628292A2C2D2F30323335366C
:1001C000383A3B3D3E4042434547494A4C4E5051E8
:1001D000535557595A5C5E6062646668696B6D6F0F
:1001E00071737577797B7D7F81838587898A8C8E12
:1001F00090929496989A9C9E9FA1A3A5A7A8AAAC1A
:10020000AEAFB1B3B4B6B8B9BBBCBEBFC1C2C3C553
:10021000C6C7C9CACBCCCDCED0D1D2D2D3D4D5D6F5
:10022000D7D7D8D9D9DADADBDBDBDCDCDCDCDCDD28
:10023000DDDDDDDCDCDCDCDCDBDBDBDADAD9D9D80C
:10024000D7D7D6D5D4D3D2D2D1D0CECDCCCBCAC9A4
:10025000C7C6C5C3C2C1BFBEBCBBB9B8B6B4B3B1D3
:10026000AFAEACAAA8A7A5A3A19F9E9C9A9896946E
:1002700092908E8C8A89878583817F7D7B79777543
:1002800073716F6D6B6968666462605E5C5A595722
:10029000555351504E4C4A4947454342403E3D3BE1
:1002A0003A3836353332302F2D2C2A29282625236B
:1002B000222E004C00E000E100354100001E001439
:1002C0000004681D6434004D001F001A0016001B56
:1002D00000E1012A00200008000700060050002C61
:1002E0000021001500090019004F004A00220017E4
:1002F000000A000500000065645000E302000000F1
:100300000F0000E3004F000153000000070000A8A9
:100310000023001C000B00110000002961240018BC
:10032000000D00100052004B0025000C000E00369E
:100330000051002800260012000F0037002F002B6C
:1003400000270013003368387430004E002D003150
:10035000003471E500015100002900010001000195
:1003600000010000003A001E022002220201002EBD
:100370005D3B001F02210223020100C95C3C002FEB
:100380000226022F000100CA5C3D00300227023025
:100390000001002D5D3E003102350035020000C332
:1003A0005C010001000000010000002C5D01000163
:1003B00000000001000000C25C3F00520051002418
:1003C0000200002B5D4000240021001E00010001FE
:1003D000004100250022001F002700C55C420026C6
:1003E00000230020003700C65C430025022E0231A6
:1003F000002E000100440045000100010001000042
:1004000000010001000100010001000000010001E5
:1004100000010001000100010001000100F20001E3
:1004200000010001000100F000F1000100F40001F2
:100430000001000100F3000100F5000100010001CE
:1004400000010001000000010001000100000001A6
:100450000000000100010001000000010000000197
:100460000001000100010001000000010001000185
:100470000001000100A9000100010001000100AC21
:1004800000AA00B600010001000100AB00A80001B5
:100490000001000100010001000100010001000154
:1004A00000AE0001000100000032190A00047F3F85
:1004B0001F643214643214783C1E1E140A050501B0
:1004C0000902A10185020901A100050919012905F7
:1004D00015002501950575018102950175038101BE
:1004E0000501093009311581257F950275088106BE
:1004F00009381581257F950175088106050C0A3894
:10050000021581257F950175088106C0C005010986
:1005100080A101850319012AB700150126B70095AE
:100520000175108100C0050C0901A10185041901A4
:100530002AA002150126A002950175108100C005B0
:10054000010906A1018505050719E029E715002520
:10055000019508750181020507190029EF1500258D
:100560000195F075018102050819012905950575A8
:10057000019102950175039101C005010906A101D0
:10058000050719E029E71500250195087501810285
:100590009501750881010507190029FF150026FF3F
:1005A000009506750881000508190129059505754E
:1005B000019102950175039101C009023B000201FE
:1005C00000A0FA0904000001030101000921110142
:1005D00000012240000705810308000A0904010008
:1005E000010300000009211101000122BC000705E0
:1005F000820320000A1201100100000008973275E2
:1006000049010001020301040330000000220345F8
:1006100000720067006F0044006F00780020004502
:10062000005A0020005300680069006E0065000059
:100630000030035A0053004100200054006500635D
:100640000068006E006F006C006F0067007900208A
:10065000004C00610062007300200049006E0063DE
:10066000000000040309040011241FBECFEFDAE0EC
:10067000DEBFCDBF24E0AAE2B2E001C01D92A030EF
:10068000B207E1F712E0A0E0B1E0E0E9F5E502C071
:1006900005900D92AA32B107D9F70E9466230C94F7
:1006A000802A0C940000E8EDF0E080818E7F80834A
:1006B0001092E2001092DA001092E100A0EEB0E099
:1006C0008C9181608C9380818F77808319BCA7ED9A
:1006D000B0E08C918E7F8C9380818F7E808310928E
:1006E000C60308952091E4003091E50095E6A90144
:1006F0002091EC00822F817020FF06C08091E800DD
:1007000080FF06C080E008952091E80022FD1AC015
:100710008091F203882389F0853089F08091EB0085
:1007200085FD0FC02091E4003091E500421753078A
:10073000F9F29150E1F684E0089582E0089583E0B3
:10074000089581E00895EF92FF920F931F93CF9346
:100750007C018B010E947203C82F811117C0809108
:10076000E80085FD0BC08091E8008E778093E8005B
:100770000E947203882399F3C82F08C0F701819162
:100780007F018093F1000150110949F78C2FCF911F
:100790001F910F91FF90EF9008958091F40387FFD0
:1007A00013C08091E80082FF06C08091E8008B773B
:1007B0008093E80004C08091F2038111F2CF089584
:1007C0008091F2038823D9F38091E80080FFF8CF6D
:1007D0008091E8008E77ECCF982F9093E900242F3A
:1007E000762F50E0891731F07091EC002091ED00E8
:1007F0005091F00021FD07C09F5F973071F7809303
:10080000E90081E008953091EB003E7F3093EB00EA
:100810003091ED003D7F3093ED003091EB00316081
:100820003093EB007093EC002093ED005093F000B8
:100830002091EE0027FDE0CF80E00895CF92DF9277
:10084000EF92FF920F931F93CF93DF93C8EDD0E009
:1008500088818F7E8883E7EDF0E0808181608083EE
:1008600084E082BF81E08093C60388818E7F888385
:1008700002EE10E0F80110821092DA0081EEC82E2C
:10088000D12CF601108288818F77888388818068D7
:10089000888388818F7D888319BC1092F20310921F
:1008A000F3031092F1031092F00390EEE92EF12C75
:1008B000F70180818B7F808388818160888342E01B
:1008C00060E080E00E94EC03F60180818E7F8083EF
:1008D000F801808181608083808188608083F70156
:1008E00080818E7F8083888180618883DF91CF9132
:1008F0001F910F91FF90EF90DF90CF900895FC0132
:100900008091FA039091FB0386179707A0F0611579
:10091000710529F49091E8009E779093E80090E0AB
:100920006115710551F4911108C08091E80082FFB2
:1009300034C080E00895BC01F2CF8091F203882397
:10094000C1F18530C1F18091E80083FD30C0809114
:10095000E80082FDEACF8091E80080FFE1CF80913E
:10096000F3002091F200382F6115710519F028303D
:10097000310558F091E02830310509F090E02091E0
:10098000E8002E772093E800CBCF81918093F1008F
:10099000615071092F5F3F4FE7CF8091F2038823A9
:1009A00041F0853041F08091E80083FFBECF81E0C7
:1009B000089582E0089583E0089508958091CF031B
:1009C00008959091B203803F59F48091B30387FF5B
:1009D0000DC01092B30391110BC01092AD0308C06B
:1009E000813F81F48091B30318169CF3992381F021
:1009F0008091B4039091B503892B09F064C01092E3
:100A0000AA030895823F49F497FFF0CF1092B203F2
:100A10008091B3038111ECCFE0CF833F19F4191615
:100A2000ACF3E4CF2091B403893F29F41216F4F615
:100A30001092B403DBCF8A3F19F427FFD7CFF8CF4A
:100A40002091B5038B3F29F427FFD0CF1092B50337
:100A5000CDCF8C3F19F41216CCF3C8CF843F31F4BC
:100A60008091B1038E7F8093B103C0CF853F21F485
:100A70008091B1038D7FF7CF863F21F48091B10340
:100A80008B7FF1CF873F21F48091B103877FEBCF3C
:100A9000883F21F48091B1038F7EE5CF8D3F31F403
:100AA000809171038E7F80937103A0CF8E3F21F4DC
:100AB000809171038D7FF7CF8F3F09F097CF8091A1
:100AC00071038B7FF0CF08958091710380FD1AC070
:100AD00081FD14C082FD14C08091AA03882391F087
:100AE0008C3370F427E0829FC00111246CE370E026
:100AF0000E941828862F672B29F0089583E0089517
:100B000087E0089581E008958091710380FD16C00B
:100B100081FD16C082FD18C08091AD03882391F03D
:100B20008C3390F423E2829FC00111246CE370E0C7
:100B30000E941828862F672B49F0089588E00895B1
:100B400081E1089585E0089583E2089581E00895A4
:100B5000803F31F40E94840581958093B30308950A
:100B6000813F19F40E948405F8CF823F31F40E943E
:100B7000840581958093B2030895833F19F40E9400
:100B80008405F8CF893F29F40E9464058093B4035B
:100B900008958A3F21F40E9464058195F7CF8B3F29
:100BA00031F40E94640581958093B50308958C3FCC
:100BB00019F40E946405F8CF843F31F48091B103A9
:100BC00081608093B1030895853F21F48091B10342
:100BD0008260F7CF863F21F48091B1038460F1CF2A
:100BE000873F21F48091B1038860EBCF883F21F4E7
:100BF0008091B1038061E5CF8D3F31F48091710325
:100C000081608093710308958E3F21F48091710378
:100C10008260F7CF8F3FB9F7809171038460F1CF85
:100C20009C014FB7F89480916D0390916E03A09151
:100C30006F03B09170034FBF821B930B08952091F7
:100C400024012223C9F020918A0327FF15C0E62F33
:100C5000E695E695E695EE31D8F4E80FF92FF11D0B
:100C6000677021E030E001C0220F6A95EAF7209515
:100C70008281282322830895FC01329608962191CF
:100C8000621303C0DF0111971C92E817F907B9F747
:100C90000895209124012223C1F020918A0327FF87
:100CA00014C0E62FE695E695E695EE31F8F4E80FE8
:100CB000F92FF11D677021E030E001C0220F6A9525
:100CC000EAF78281822B82830895FC0132962FEF0E
:100CD00030E04191641751F02F3F19F4411101C0E8
:100CE000232F3F5F3630A9F72F3F09F40895820F75
:100CF000911D27FD9A95FC016283089580916803F8
:100D000081111092680308958091670390916603A2
:100D1000892B90916503892B80932A029091680317
:100D20009923A1F0892B80932A02809124018823A2
:100D300041F180918A0387FF24C08EE1ECE2F2E06A
:100D400090E0815000F591110E947E06E0919103A0
:100D5000F09192033097E1F080912401882359F0BB
:100D600080918A0387FF07C080912A0280932B021B
:100D700085E080932A020280F381E02D8AE292E0EE
:100D8000099486E0DBCF21912223D9F29F5FD9CF4E
:100D90000895E92FEE0FE90FEE0F8E0F982F977041
:100DA00086958695869525E0829FF0011124E35D66
:100DB000FC4F50E040E080E0219130E0092E02C07D
:100DC000369527950A94E2F721703327042E01C047
:100DD000220F0A94EAF7822B4F5F5F4F453051058F
:100DE00059F70895E92FEE0FE90FEE0F8E0F982FA8
:100DF000977041E001C0440F9A95EAF78695869571
:100E0000869595E0899FF0011124E35DFC4F30E069
:100E100020E070E05191DF011197CB01022E02C05A
:100E2000969587950A94E2F78170819585278423AA
:100E300085278C932F5F3F4F2530310559F7089553
:100E400080912C039091FB02981301C008958F5F4D
:100E50008770FACF882341F08095909166038923AB
:100E6000809366030C9484060895882339F090914A
:100E70006603982B909366030C9484060895882348
:100E800041F08095909167038923809367030C94C8
:100E900084060895882339F090916703982B9093E6
:100EA00067030C94840608952091DF023091E002DC
:100EB0002817390771F09093E0028093DF02E091E8
:100EC0009103F0919203309721F00084F185E02D99
:100ED000099408952091DD023091DE022817390728
:100EE00071F09093DE028093DD02E0919103F09126
:100EF0009203309721F00680F781E02D0994089540
:100F0000E0919103F0919203309721F00190F081EC
:100F1000E02D099480E00895FA01811101C0FB01E0
:100F200009948091C703982F9E7F29F48170826075
:100F30008093C70308958635E8F381708465F8CF00
:100F4000AF92BF92DF92EF92FF920F931F93CF93D6
:100F5000DF93082F162FE901E42FF0E0E455FF4F4F
:100F6000611111C0E4915E2F4E2F4983E8835A83AB
:100F70001B82DF91CF911F910F91FF90EF90DF9037
:100F8000BF90AF900895E62EF12C4491D42EE42F1B
:100F9000F0E026E0829FC00111242FEF30E0B9017C
:100FA0000E940428802F90E0880F991F55E5569FD6
:100FB000D001579FB00D11248A1B9B0B982F990FBE
:100FC000890F5901AE18BF08AE9ED001AF9EB00D7B
:100FD000BE9EB00D11245B2F189F80011124012F9C
:100FE00011275901A01AB10AAE9E8001AF9E100DC3
:100FF000BE9E100D11245901A81AB108AE9CC00163
:10100000AF9C900DBE9C900D1124892F9927281B11
:10101000390B2E9FC0012F9F900D3E9F900D1124E4
:10102000E92F62307105A1F050F46115710509F4E2
:101030009CCF6130710581F0EB2F512F96CF64303A
:10104000710569F080F06630710509F48ECFF4CF38
:10105000E42F4B2F592F89CFE42F412F86CFEB2F31
:10106000542F492F82CF4B2F5D2DE12F7ECF9091B2
:101070008A0392FF06C0282F28712830F9F4877F51
:10108000846093FF06C0282F28712831F1F4877EF1
:10109000846120918B0320FF06C0382F38713830CF
:1010A000D9F4877F816021FF06C0282F287128315D
:1010B000D1F4877E816194FD877E0895282F247165
:1010C0002430F9F68B7F8860DCCF282F24712431FF
:1010D00001F78B7E8861DDCF382F3171313019F700
:1010E0008E7F8860E0CF282F2171213121F78E7EFD
:1010F0008861E1CFCF93DF93972F70E026E0929F36
:10110000600D711D1124FB0134E5839FE00DF11D7D
:101110001124EE0FFF1FEF54FD4FC591D491CE0166
:10112000C238D105B9F1E8F5C133D10509F499C048
:1011300050F5C932D10509F48DC0CA32D10509F480
:1011400097C0C11542E5D40708F0C4C0C11521E518
:10115000D20708F038C1C83ED10508F09DC0C03E96
:10116000D10568F5C83AD10508F089C0C53AD1055E
:1011700008F005C1C130D10511F1209709F443C031
:101180002497E8F440C0C533D10509F45CC0C933E5
:10119000D105B9F620918A03237089F080EE90E0A2
:1011A0000EC0C33ED10591F168F4C03ED105F9F0FF
:1011B000C23ED10531F620918A0322FD20C0DF9185
:1011C000CF910895C63ED10561F1C73ED10581F1A9
:1011D000C43ED10509F0B5CF20918B0321FFEFCF9D
:1011E00080918A0384FD0FC087EE90E0E8CF2091C4
:1011F0008A0320FD19C130918B0330FFE0CF83EECD
:1012000090E024FFDCCF90E080E0D9CF20918A03EA
:1012100022FD0DC130918B0330FDC0CF24FFCFCF15
:10122000F2CF20918A0323FFCACF24FDECCFDCCF7D
:1012300020918A0323FDFEC030918B0331FFEECF56
:1012400084EE90E0BCCF20918A0325FFB8CF89E2DD
:1012500090E0B5CF20918A0325FFB1CF85E390E0E0
:10126000AECF20918A0326FFAACF8AE290E0A7CFD3
:1012700020918A0326FFA3CF81E390E0A0CFCF3B4C
:10128000D10508F6C85AD0E0CC0FDD1FC550DE4F9F
:1012900088819981946493CFC11530E2D30760F4BB
:1012A000C11541E0D40708F08ACFCE019065C03F58
:1012B000D10508F084CFA7CFC11580E4D80708F482
:1012C000A2CFC11590E5D90708F061C0CE019F708B
:1012D000906A75CFC11526E5D20718F5C11535E519
:1012E000D30708F086C0C11544E5D40708F07CC0D8
:1012F0009C2F96959695AE0143705527C115D34501
:1013000008F466C021E030E002C0220F331F4A9586
:10131000E2F740E2949FC0011124822B932B9A683C
:101320004ECFC1159AE5D90778F4C11529E5D20742
:1013300008F069C0C11538E5D30708F464CF9C2FC5
:101340008827806F906A3BCFC1154BE5D40708F41E
:101350005ACFC1158CE5D80708F462C0CE0190566B
:101360008115904208F04FCF8D2F8F710E94370862
:1013700090E0982F882788279F718C2B42C0C55AF0
:10138000D0E0C850DE4F888190E0906418CF9E0175
:10139000E4E036952795EA95E1F723708C2F869542
:1013A0008695837030E2839FC0011124922BC37015
:1013B00021E030E002C0220F331FCA95E2F7822BF2
:1013C000932B9C68FCCE9C2F8827816F906AF7CE68
:1013D00021E030E002C0220F331F4A95E2F740E2DD
:1013E000949FC0011124EBCF9C2F8827846F906AB3
:1013F000E6CE8C2F0E94370890E0982F8827882708
:101400009F719062DCCE8C2F8F700E94370834E081
:10141000D695C7953A95E1F7CF709C2F9069CFCEBE
:10142000CE0199279066CBCE89E390E0C8CE82EEBC
:1014300090E0C5CE86EE90E0C2CEBF92CF92DF9212
:10144000EF92FF920F931F93CF93DF938C01C09085
:101450008D03D0908E03E0908F03F09090038091E5
:10146000690390916A03A0916B03B0916C03C82A41
:10147000D92AEA2AFB2ACFE1D0E0BC2ED701C60147
:101480000C2E04C0B695A795979587950A94D2F728
:1014900080FD0EC0219788F7B12C8B2DDF91CF9165
:1014A0001F910F91FF90EF90DF90CF90BF90089524
:1014B000B8018C2F0E947A08019761F3EECFCF9389
:1014C000DF93EC010E941D0ABE01DF91CF910C94C5
:1014D0007A080E945F0A292F2F7092959F70925070
:1014E0009E3078F4E92FF0E0EE57F54D0C942C285F
:1014F000803F19F020F4883E20F481E00895843F75
:10150000E1F380E00895883EC0F3813FD1F7F5CF45
:10151000822F869586958695089527982F98089509
:1015200026982E98089525982D98089556985E9897
:101530000895279A2F9A0895269A2E9A0895259A03
:101540002D9A0895CF92DF92EF92FF92CF936B0185
:101550007C01C701AA27BB27C0E10097A105B105FF
:1015600019F4D701CB01C0E0492F5A2F6B2F7727F1
:10157000411551056105710519F0C85FDB01CA010C
:10158000AC01BD01E4E07695679557954795EA95DE
:10159000D1F7411551056105710519F0CC5FDB01EB
:1015A000CA01AC01BD0132E0769567955795479524
:1015B0003A95D1F7411551056105710519F0CE5FD6
:1015C000DB01CA01B695A79597958795892B8A2B3C
:1015D0008B2B09F0CF5F0E94960A0E94930A0E940B
:1015E000900A0E948D0AC150C73040F4EC2FF0E001
:1015F000E057F54D0C942C280E949F0AC701B601B4
:10160000CF91FF90EF90DF90CF9008950E949F0AB6
:101610000E949C0AF3CF0E949F0A0E94990AEECF73
:101620000E949F0A0E949C0AF8CF2098289821982F
:10163000299822982A9823982B9852985A98539828
:101640005B983E98469808958098889A8198899AE0
:1016500084988C9A85988D9A86988E9A87988F9A76
:101660000895CF93DF9300D00F92CDB7DEB790915E
:10167000F203943019F589837B836A8382E0809337
:10168000E9008FEF9091E800815095FD06C095ED3F
:101690009A95F1F700008111F5CF8091E80085FF60
:1016A0000DC050E040E063E070E0CE0101960E9482
:1016B000A3038091E8008E778093E8000F900F904D
:1016C0000F90DF91CF910895BC0184E00C94310B11
:1016D000BC0183E00C94310B9C0182E08093E90013
:1016E0009FEF8091E800915085FD06C085ED8A95B9
:1016F000F1F700009111F5CF8091E80085FF0CC053
:1017000050E040E066E070E0C9010E94A3038091D0
:10171000E8008E778093E8000895CF93DF93EC0183
:10172000809124018823B1F180918A0387FF32C020
:1017300060E282E08093E9008FEF9091E8008150B1
:1017400095FD06C095ED9A95F1F700008111F5CF52
:101750008091E80085FF1BC08091240170E050E07B
:1017600040E0811104C050E040E068E070E0CE014C
:101770000E94A3038091E8008E778093E80080E2C6
:10178000FE01A0EDB3E001900D928A95E1F7DF91A3
:10179000CF91089568E081E0CDCFEF92FF920F9353
:1017A0001F93CF93DF930E94960A0E94930A0E9490
:1017B000900A0E948D0A88E8E82EF12C8FEF90E0C5
:1017C000F701918380830AE810E0F8019183808318
:1017D000CCE8D0E0998388830E949F0AFFEF20E73E
:1017E00082E0F15020408040E1F700C000000E94FC
:1017F0009C0A9FEFE0E7F2E09150E040F040E1F713
:1018000000C000000E94990A2FEF80E792E021506B
:1018100080409040E1F700C000000E94930AEFEF83
:10182000F0E722E0E150F0402040E1F700C0000086
:101830000E94900A8FEF90E7E2E081509040E040F4
:10184000E1F700C000000E948D0A80917803877044
:10185000FFEF8F9FC00111249595879595958795EA
:101860009927F70191838083F8019183808399837D
:1018700088830E94960A0E94930A0E94900ADF9130
:10188000CF911F910F91FF90EF900C948D0ACF9301
:1018900084E090E00E94D529C82F81E290E00E9468
:1018A000D529982F8C2FCF910895CF92DF92EF9268
:1018B000FF926B017C010E949107B701A60188E0AD
:1018C00090E0FF90EF90DF90CF900C94FB298091F7
:1018D000CB03882319F081508093CB036091C70319
:1018E0007091C8038091C9039091CA030C94550C60
:1018F0008091CB03833018F48F5F8093CB0360918A
:10190000C7037091C8038091C9039091CA030C94D6
:10191000550CE7ECF3E083E0808311828FEF828344
:101920008383148260817181828193810C94550C30
:101930006FEE7EEF90E080E00E94072A60E082E098
:1019400090E00E94E92960E083E090E00E94E929AC
:101950001092690310926A0310926B0310926C0349
:1019600060E084E090E00E94E92960E081E290E09C
:101970000E94E92960E085E090E00E94E92960E0AA
:1019800086E090E00E94E9296FEF87E090E00E94F6
:10199000E92940E050E0BA0188E090E00E94FB298C
:1019A00060E08DE090E00E94E92940E050E0BA015B
:1019B00088E190E00E94FB2960E087E190E00E94CE
:1019C000E92940E050E0BA018CE190E00E94FB2957
:1019D00060E080E290E00E94E92910927803109282
:1019E000790310927A0310927B0384E080618093E4
:1019F0007803409178035091790360917A03709154
:101A00007B038FE090E00E94FB2940E050E0BA01A8
:101A100083E190E00C94FB29CF93C82F873070F5B9
:101A20008091180190911901892B89F564E670E085
:101A300080E40E9437279093190180931801892B25
:101A4000D1F464E670E082E10E949327909319013B
:101A500080931801892B79F481E090E001C0880F10
:101A6000CA95EAF764E670E080950E949327909308
:101A7000190180931801CF910C94E6278A30B9F0B0
:101A800040F4883071F0893079F0209A2898CF910D
:101A900008958C3091F070F08D30B9F73E9A4698E9
:101AA000F6CF219A2998F3CF229A2A98F0CF239A39
:101AB0002B98EDCF529A5A98EACF539A5B98E7CF7A
:101AC000CF93DF938091C70380FD0BC0E4E5F2E084
:101AD0001182108212821382349652E0E039F507A7
:101AE000B9F7C4E5D2E0FE01928120813181892FCE
:101AF000291708F4822F381708F4832F8383381BA3
:101B00003183281B2083981B9283349682E0E0392E
:101B1000F80751F70E94312764E670E084E80E94DC
:101B2000372764E670E088810E94932764E670E0BE
:101B300089810E94932764E670E08A810E9493273E
:101B400064E670E08B810E949327249692E0C0396E
:101B5000D90739F70E94E627579A3BB13F772BB157
:101B600020684FB7F89484E592E0FC015191CF01D1
:101B700068E02BB9000000C057FF3BB9550F0000CB
:101B800000C000C000C03BB900C06A9591F7F2E008
:101B900080399F0751F74FBF8FE594E00197F1F728
:101BA00000C00000DF91CF9108958F929F92AF9275
:101BB000BF92CF92DF92EF92FF920F931F93CF933A
:101BC000DF93FC01B280948081E08483C0E9D2E09D
:101BD00004E512E08BE4A82E88248394EE24EA9492
:101BE000F12C2BE4C22ED12C91101DC01B821A8225
:101BF00098014A81698188810E94A00725960C5F1F
:101C00001F4F82E0CB3DD80779F7DF91CF911F912D
:101C10000F91FF90EF90DF90CF90BF90AF909F908B
:101C20008F900C94600D2B81222309F121502B837E
:101C30003C818A2D821B311101C0822F9091CA03F1
:101C4000899FC0011124B6010E9404286A832111D2
:101C500004C0332311F01C82AB8222E02B1540F22A
:101C60008091C80388838091C9038983C1CF0E9472
:101C70008D28823091400CF0BBCF82E08B15C0F4F0
:101C80000E948D28B7010E941828888322E02B1516
:101C900090F40E948D282091C9032695622F70E050
:101CA0000E941828280F29831A82AB828C82A0CF29
:101CB0008091C803EACF2091C903F5CFEF92FF923C
:101CC0001F93CF93DF93EC0184E5E82E82E0F82E9A
:101CD00010E08C8197014091CA036091C903810F84
:101CE0000E94A0071F5E84E0E80EF11C1F3F89F7E9
:101CF0000E94600D9A818C8190FF08C08F5F8C8359
:101D0000DF91CF911F91FF90EF9008958150F7CF11
:101D1000BF92CF92DF92EF92FF920F931F93CF93D8
:101D2000DF93FC018281DD24DA9480FD02C0DD2492
:101D3000D39404E512E0D0E0C0E02FE0B22EF80129
:101D4000118210821282138294E0E92EF12CC12CB0
:101D5000809151028C0D80310CF43DC06B2D0E949E
:101D6000F627892F082E000C990B8C179D0791F4EC
:101D70008091CA038E9DA0018F9D500D1124559511
:101D800047955595479598016091C9038091C8037F
:101D90000E94A007CD0CF1E0EF1AF108C9F62196D8
:101DA0000C5F1F4FCF30D10551F60E94600D80911E
:101DB000510291E0D91215C0811111C08EE08093BB
:101DC0005102DF91CF911F910F91FF90EF90DF9023
:101DD000CF90BF90089587FFC5CF815FC3CF81505B
:101DE000EECF90E00196BE010E941828E8CF0F9335
:101DF0001F93CF93DF93C4E5D2E0FE0111821082DE
:101E000012821382349682E0E039F807B9F710E0C5
:101E100000E080915202082E000C990B0817190758
:101E20008CF180911601082E000C990B80179107F8
:101E30004CF19E014091CA036091C9038091C8038F
:101E40000E94A0070F5F1F4F24960F30110509F75E
:101E50000E94600D8091150190915202980F90930D
:101E6000520220911601280F20931601121614F425
:101E70009E301CF0819580931501DF91CF911F91C9
:101E80000F910895198218821A821B82DBCF8F92DC
:101E90009F92AF92BF92CF92DF92EF92FF920F93F9
:101EA0001F93CF93DF93EC014C81042F10E0980136
:101EB000D8010E94712A9B01AC010E943C2A4B016F
:101EC0005C01E0E2F0E0E01BF10BA5E5B0E0AC0165
:101ED0009B010E943C2A6B017C019F01DF010E9453
:101EE00032289B01AC010E94472A9B01AC01280DBE
:101EF000391D4A1D5B1DC701B6010E944F2AF22EF3
:101F0000822F90E039E23F15D8F143E0249F900101
:101F1000112435952795122F109594E5C92E92E03E
:101F2000D92E00E085E5E82EEF188E2D01FD8F2DCE
:101F30009601412F6091C9030E94A0070F5F54E0F2
:101F4000C50ED11C0F3089F70E94600D9C8181E085
:101F5000992319F0903219F48FEF80931701809133
:101F60001701890F8C83DF91CF911F910F91FF9003
:101F7000EF90DF90CF90BF90AF909F908F9008959B
:101F800025E530E0A901481B590BCA019A01220F2F
:101F9000331F280F391F37FFBCCF2F5F3F4FB9CFFB
:101FA000EF92FF920F931F93CF93DF938C01C4E5C1
:101FB000D2E0F12CE12CF80194816091C903809169
:101FC000C803F7E0EF16F104FCF49923F9F09E0141
:101FD0004091CA030E94A0072FEFE21AF20A24964A
:101FE0008FE0E816F10439F70E94600DF801848152
:101FF00090E00196817099278483DF91CF911F91A2
:102000000F91FF90EF900895992309F39E0140E00E
:10201000E1CF9091C70390FF0DC0E4E5F2E081832A
:10202000608342831382349692E0E039F907B9F76E
:102030000C94600D08950F931F93CF93DF9300D0FE
:1020400000D0CDB7DEB78C018091530281110AC058
:102050009E012F5F3F4F4FEF6FEF0E94A0078A81D5
:1020600080935302F8016481613069F080915302DA
:1020700040E0662361F040E0623011F44091530289
:1020800080E060E004C06091530240E080E00E9484
:102090000910F801848190E0019663E070E00E94ED
:1020A000182884830F900F900F900F90DF91CF919D
:1020B0001F910F910895CF93DF9300D000D0CDB73B
:1020C000DEB79091C70390FF0AC09E012F5F3F4F7C
:1020D0000E94A0074B8169818A810E9409100F909C
:1020E0000F900F900F90DF91CF910895CF93DF93D2
:1020F000EC01EC81F0E0EF54FE4F4491E7ECF3E0AB
:10210000628181810E945B108C818F5F8C83DF9163
:10211000CF910895CF93DF93EC01E7ECF3E0438197
:1021200062818C810E945B108C818F5F8C83DF9138
:10213000CF9108955F926F927F928F929F92AF920C
:10214000BF92CF92DF92EF92FF920F931F93CF93A4
:10215000DF9300D000D0CDB7DEB7182F762E042F36
:10216000622E9091C70390FF29C0E92FE695AE2F0C
:10217000B0E0AB5DBE4F8C918093A8039E7F923000
:1021800089F59E012F5F3F4F812F0E94A0074B8151
:1021900069818A810E9409101093C8037092C90353
:1021A0000093CA03662051F06091C7037091C80381
:1021B0008091C9039091CA030E94550C0F900F9013
:1021C0000F900F90DF91CF911F910F91FF90EF90A3
:1021D000DF90CF90BF90AF909F908F907F906F9047
:1021E0005F900895823019F40091CA03D5CF8630EC
:1021F00019F41091C803D0CF8930D9F3893161F631
:10220000E9518E2F8170582EE695F0E0E455FE4F8F
:10221000A590B490BB2484E5E82E82E0F82ED12C62
:10222000C12C9FE0892E912CC601B4010E94042884
:10223000812F511013C0860F9701402F672D0E94E8
:10224000A007CA0CDB1C84E0E80EF11C80E9E8164C
:1022500082E0F80649F70E94600D9ECF861BECCF06
:10226000E7ECF3E043812CE0421B08F440E021E07E
:10227000628181810C949A10E7ECF3E043812CE0B9
:10228000420F08F44FEF21E0628181810C949A1093
:10229000E7ECF3E062812FEF621B08F460E021E0DD
:1022A000438181810C949A10E7ECF3E062812FEF77
:1022B000620F08F46FEF21E0438181810C949A1042
:1022C000E7ECF3E0818121E0438162818C500C9442
:1022D0009A10E7ECF3E0818121E043816281845F21
:1022E0000C949A1080E290E0909319018093180169
:1022F00080914A0281110EC00E94312781E08093B3
:102300004A022FEF83ED90E3215080409040E1F7A7
:1023100000C0000064E670E080E40E9437279093DC
:10232000190180931801892B09F04EC064E670E012
:1023300080E00E9493279093190180931801892BC4
:1023400009F042C064E670E080E00E949327909319
:10235000190180931801892BB9F564E670E08FE3C9
:102360000E9493279093190180931801892B61F59E
:102370000E94E62764E670E080E40E94372790938D
:10238000190180931801892BF9F464E670E08CE060
:102390000E9493279093190180931801892BA1F42F
:1023A00064E670E080E00E94932790931901809387
:1023B0001801892B49F464E670E08FE30E949327AB
:1023C00090931901809318010E94E62780911801CB
:1023D0000895CF93873050F580911801909119019D
:1023E000C0E0892B71F464E670E081E40E94372735
:1023F0009093190180931801892B31F0C0E00E945D
:10240000E6278C2FCF91089584E690E00E94C227A2
:1024100097FF05C09093190180931801EFCFC82F43
:10242000C0951092190110921801E9CFCFB18FB168
:10243000869586958C73C3708C2BC82FC095E1CF81
:1024400078941F921FB61F9211248F939F93AF937E
:10245000BF9380916D0390916E03A0916F03B09133
:1024600070030196A11DB11D80936D0390936E03BF
:10247000A0936F03B0937003BF91AF919F918F9121
:102480001F901FBE1F9018952FB7F89480916D0371
:1024900090916E03A0916F03B09170032FBF0895C8
:1024A0000E9444129C019091B2038091B303982B37
:1024B00021F03093AF032093AE039091B403809149
:1024C000B503982B21F03093AC032093AB03E0913C
:1024D0009103F0919203309749F082E08093B0032A
:1024E0000480F581E02D80EB93E00994089510922B
:1024F0006603109265030E94840686E0E0EBF3E039
:10250000DF011D928A95E9F71092AD031092AA039C
:10251000109271030E94501290E080E00E946A07BE
:1025200090E080E00C9454070E94A20A60938D030F
:1025300070938E0380938F03909390030C94771283
:102540000F931F9341E050E060E070E004C0440F3F
:10255000551F661F771F8A95D2F7CB01BA01609588
:1025600070958095909500918D0310918E03209128
:102570008F033091900360237123822393231F9153
:102580000F910C9494129091640380958923809309
:102590006403282F277071F4282F082E000C330BAA
:1025A0009217130639F08595859585950E94A0129E
:1025B0001092640308950F931F9341E050E060E090
:1025C00070E004C0440F551F661F771F8A95D2F72D
:1025D00080918D0390918E03A0918F03B091900311
:1025E0008A019B01082B192B2A2B3B2BC901B8010F
:1025F0001F910F910C9494126093690370936A0376
:1026000080936B0390936C030C9477121092670382
:1026100080912401ECE2F2E0882359F080918A0352
:1026200087FF07C08EE1DF011D928A95E9F70C94C0
:10263000771286E0F8CF1F93CF93DF93CDB7DEB745
:10264000AA970FB6F894DEBF0FBECDBF84EF93E01C
:102650002091F100FC012193CF01F3E08C3F9F0713
:10266000B9F78091F503833009F46FC0B8F4813075
:1026700009F446C0823009F4B0C08091E80083FFBD
:1026800087C28091F4039091F5039A3008F080C2DC
:10269000E92FF0E0E956F54D0C942C288A3009F426
:1026A0008BC08B3009F46EC0893039F78091F40308
:1026B000813219F78091F8039091F9030297E8F6B7
:1026C0008091E800877F8093E8008091E80082FF96
:1026D00037C09091F3008091F200029729F4809125
:1026E000F1008B7F813021F48091F1008093CF0342
:1026F0008091E8008B778093E8000E94CD03BDCFE6
:102700008091F403813A09F0B8CF8091E800877F87
:102710008093E8008091F8039091F903892B61F48C
:1027200060E280ED93E070E00E947F048091E80019
:102730008B778093E800A1CF60E090E080E0F3CF5A
:102740008091F2038111C1CF98CF8091F403813A37
:1027500009F093CF8091F8039091F903892B09F048
:102760008CCF8091E800877F8093E8008091E8001B
:1027700080FFFCCF809124018093F1008091E800DC
:102780008E77B9CF8091F403813209F076CF8091B2
:10279000F8039091F903892B09F06FCF8091E8003D
:1027A000877F8093E8000E94CD038091F603809399
:1027B00024010E94061361CF8091F403813209F055
:1027C0005CCF8091E800877F8093E8000E94CD0372
:1027D0008091F7038093CE0350CF8091F403813A28
:1027E00009F04BCF8091E800877F8093E8008091CB
:1027F000E80080FFFCCF8091CE03BECF803899F0F7
:10280000823809F0C5C18091F8038F70873008F0D5
:10281000BFC18093E9008091EB0085FB882780F998
:102820001092E90006C08091F0039091F10391119C
:1028300082609091E800977F9093E8008093F10088
:102840001092F1008091E8008E779EC1882309F4F0
:102850008CC1823009F09CC18091F60381118FC137
:102860008091F8038F702FEF280F263008F090C169
:102870008093E9002091EB0020FF81C1933031F477
:102880008091EB0080628093EB0079C19091EB0026
:1028900090619093EB0021E030E001C0220F8A9517
:1028A000EAF72093EA001092EA008091EB0088603A
:1028B000EACF81116DC11091F6031F778091E3007B
:1028C0008078812B8093E3008091E800877F80935C
:1028D000E8000E94CD038091E80080FFFCCF80914A
:1028E000E30080688093E30082E0111183E080932D
:1028F000F2034EC18058823008F04AC18091F6033D
:102900009091F7038C3D23E09207A1F583E08A8341
:102910008AE289834FB7F894DE01139620E03EE007
:1029200051E2E32FF0E050935700E49120FF03C001
:10293000E295EF703F5FEF708E2F90E0EA30C0F0CD
:10294000C7968D939D932F5F243159F74FBF809188
:10295000E800877F8093E8006AE270E0CE0101968C
:102960000E947F048091E8008B778093E80010C17B
:10297000C096E7CF4091F8035091F903292F3327F0
:102980002330310509F445C078F52130310509F4CB
:102990007BC08BE390E0EAEBF5E02230310509F0F3
:1029A000F7C02091E800277F2093E8002091FA03E8
:1029B0003091FB038217930708F49C0140E0211536
:1029C000310509F070C041116EC08091E80082FDB0
:1029D000C9CF8091F203882329F2853019F28091C2
:1029E000E80083FFF2CFBECF2132310509F440C0A9
:1029F0002232310509F0CCC04115510509F44EC011
:102A00004130510509F0C4C08CEB90E0EEEBF4E0EE
:102A1000C8CF992781309105D9F0009771F08230A5
:102A20009105F1F0039709F0B3C0E7E0F6E0E49117
:102A30008E2F90E0E7E0F6E007C0E3E6F6E0E491F1
:102A40008E2F90E0E3E6F6E0009709F4A1C0A9CF4D
:102A5000E1E3F6E0E4918E2F90E0E1E3F6E0F4CFDD
:102A6000EDE0F6E0E4918E2F90E0EDE0F6E0ECCFC3
:102A70004115510571F04130510509F089C089E0D7
:102A800090E0E5EEF5E08DCF82E190E0E5EFF5E056
:102A900088CF89E090E0ECECF5E083CF80E490E033
:102AA000EAE7F5E07ECF8091F203882309F45ACF5C
:102AB000853009F457CF8091E80083FD53CF809192
:102AC000E80082FD82CF8091E80080FF78CF90916E
:102AD000F3008091F2002115310519F0883091053D
:102AE00050F041E0089709F040E08091E8008E77CF
:102AF0008093E80064CF44914093F10031962150D7
:102B000031090196E8CF803809F042C08091E80091
:102B1000877F8093E8008091F3038093F10092CE49
:102B2000811136C01091F603123090F58091E800C3
:102B3000877F8093E8001093F3030E94CD03112355
:102B400011F084E005C08091E30087FDFACF81E0B9
:102B50008093F20342E061EC81E00E94EC0342E2E8
:102B600061EC82E00E94EC0313C08091F603813097
:102B700079F481E0933009F080E08093F1031092C2
:102B8000E9008091E800877F8093E8000E94CD03F0
:102B90008091E80083FF0AC08091E800877F8093DE
:102BA000E8008091EB0080628093EB00AA960FB65C
:102BB000F894DEBF0FBECDBFDF91CF911F91089576
:102BC0001F920F920FB60F9211242F933F934F93A2
:102BD0005F936F937F938F939F93AF93BF93CF93A5
:102BE000DF93EF93FF93D091E900DF708091EC00C9
:102BF000C82FC17080FDC0E81092E9008091F000FC
:102C0000877F8093F00078940E941B131092E90054
:102C10008091F00088608093F000CD2BCF70C0933E
:102C2000E900FF91EF91DF91CF91BF91AF919F911B
:102C30008F917F916F915F914F913F912F910F9065
:102C40000FBE0F901F9018958823B1F19CEF980F3D
:102C5000913A38F4682F8AE292E00E941F060C94A1
:102C6000840690E2980F983088F4877021E030E075
:102C7000A90102C0440F551F8A95E2F7CA01809549
:102C800090916703892380936703E9CF9BE5980FB1
:102C9000933020F490E080E00C946A0798E5980F58
:102CA000973120F490E080E00C945407803F20F0AE
:102CB0000E94E1040C9450120895CF93C82F8823EA
:102CC00009F46EC08CEF8C0F813AB8F58091240125
:102CD000882311F180918A0387FF1EC0EC2FE695AF
:102CE000E695E695F0E0E65DFD4F828190E04C2FA1
:102CF000477021E030E002C0220F331F4A95E2F70F
:102D000082239323892B89F06C2F8AE292E00E9420
:102D10001F060E94840609C0ECE2F2E08191C81708
:102D200099F382E0E233F807C9F76C2F8AE292E068
:102D30000E944906CF910C94840680E28C0F883063
:102D400068F4C77021E030E001C0220FCA95EAF7AD
:102D500080916703822B80936703ECCFEBE5EC0F48
:102D6000E33040F4F0E0E850FE4F808190E0CF91F6
:102D70000C946A07E8E5EC0FE73150F4F0E0EE0F51
:102D8000FF1FE550FE4F80819181CF910C94540735
:102D9000C03F30F08C2F0E94A805CF910C945012A8
:102DA000CF910895CF93C82F0E945D16C93349F47F
:102DB0002FEF87EE93E0215080409040E1F700C074
:102DC00000008C2FCF910C9424160F931F93CF9358
:102DD000DF93C42FD22FFC0182818823A1F040937E
:102DE000F0020E9444129093DC028093DB02C770D1
:102DF00081E001C0880FCA95EAF7DF91CF911F915A
:102E00000F910C944A071091F002141335C0809171
:102E1000DB029091DC020E941006883C910560F56F
:102E2000C0E2CD0F1D17B9F080E2810F883040F469
:102E3000177081E001C0880F1A95EAF70E943F07DA
:102E4000C83048F481E09D2F977001C0880F9A9593
:102E5000EAF70E944A07802F0E94D216C83098F4E1
:102E6000D77081E001C0880FDA95EAF7DF91CF9142
:102E70001F910F910C943F07C77081E001C0880F2C
:102E8000CA95EAF7F3CFDF91CF911F910F91089583
:102E90006091C703669570E04BE050E08AE091E0F6
:102EA0000E94C829892B19F481E08093A9030E940C
:102EB00044129093A3038093A20308959091C703B3
:102EC00090FF36C09170811129C092609093C70322
:102ED000662351F06091C7037091C8038091C903C4
:102EE0009091CA030E94550C6091C703669570E0EB
:102EF0004BE050E08AE091E00E94C829892BA9F0BC
:102F00001092A90381E08093A50320E04091CA03B9
:102F10006091C9038091C8030C949A108B3210F011
:102F20009465D4CF880F982BD1CF0E944817EACF51
:102F300008951F920F920FB60F9211242F933F9373
:102F40004F935F936F937F938F939F93AF93BF93B1
:102F5000EF93FF938091E10082FF09C08091E2002E
:102F600082FF05C08091E1008B7F8093E10080911A
:102F7000DA0080FF24C08091D80080FF20C08091BB
:102F8000DA008E7F8093DA008091D90080FFB0C094
:102F900080E189BD82E189BD09B400FEFDCF81E0F9
:102FA0008093F2038091C603811109C00E945303EC
:102FB0000E941E048091E20084608093E200809170
:102FC000E10080FF17C08091E20080FF13C0809174
:102FD000E2008E7F8093E2008091E2008061809326
:102FE000E2008091D80080628093D80019BC85E00F
:102FF0008093F2038091E10084FF3EC08091E20063
:1030000084FF3AC080E189BD82E189BD89B5982FEE
:10301000917080FFFBCF8091D8008F7D8093D80086
:103020008091E1008F7E8093E1008091E2008F7EAD
:103030008093E2008091E20081608093E2008091C1
:10304000F303882309F45AC084E08093F2030E94BA
:1030500006130E9480071092CD038091CC03882331
:1030600049F08091C70381608093C70360E0869533
:103070000E945E170E9448178091E10083FF27C0DD
:103080008091E20083FF23C08091E100877F8093DD
:10309000E10082E08093F2031092F3038091E1005B
:1030A0008E7F8093E1008091E2008E7F8093E2002A
:1030B0008091E20080618093E20042E060E080E085
:1030C0000E94EC038091F00088608093F000FF91F3
:1030D000EF91BF91AF919F918F917F916F915F9190
:1030E0004F913F912F910F900FBE0F901F90189509
:1030F00019BC1092F2031092C60361CF8091E300D5
:1031000087FD93E09093F203A2CF61E00C945E17E9
:10311000E7ECF3E080818160808386950C948518CC
:103120008091C7038695815009F48AE261E00C948E
:103130005E178091C70386958F5F8B3208F081E020
:1031400061E00C945E179091C70390FF07C09695BD
:10315000981720F0961710F40C9499180C94851871
:103160004F925F926F927F928F929F92AF92BF9297
:10317000CF92DF92EF92FF920F931F93CF93DF9343
:1031800000D000D00F92CDB7DEB76C01FC01838177
:103190009481892B39F01081F180812F8F218F3F0D
:1031A00009F0CDC60F900F900F900F900F90DF9108
:1031B000CF911F910F91FF90EF90DF90CF90BF9034
:1031C000AF909F908F907F906F905F904F900895F9
:1031D0000E941D0A082F682F89819A810E94F20699
:1031E000E12FF0E026E0F29EE00DF11D112434E520
:1031F000039FE00DF11D1124EE0FFF1FEF54FD4F53
:1032000005911491F60182810932FDE51F0709F04D
:103210009AC08823C9F18091780391E0980F977044
:10322000887F953008F4892B809378038091780308
:1032300087702FEF829FC0011124959587959595F2
:1032400087959927909389008093880090938B00AD
:1032500080938A0090938D0080938C004091780336
:103260005091790360917A0370917B038FE090E035
:103270000E94FB2960918D0370918E0380918F03D2
:10328000909190030E94A20AF6018281882309F49A
:10329000BBC09801215E3C452530310508F0B4C023
:1032A0006FE1600F609374038CE090E00E94E92965
:1032B000F6019281992309F46AC61092F002023055
:1032C000FCE51F0708F44CC606312CE5120738F060
:1032D00098012A5F3C452730310508F041C60E941D
:1032E000470C90938B0380938A030F303CE51307C0
:1032F00009F404C208F07EC108309CE5190709F4FE
:10330000E7C108F053C10430FCE51F0709F4D4C13C
:1033100008F039C102303CE5130709F4C5C1033098
:103320001C4509F4C5C160918A0310918B0384E0A8
:1033300090E00E94E929612F81E290E00E94E92952
:103340000E94061333C00C323DE5130711F158F407
:103350000B32EDE51E0709F097CF882339F181E0A4
:103360000E94851823C00D32FDE51F0709F440C0F7
:103370000E322DE5120709F087CF8823B9F00E949D
:10338000881881E00E94851821E04FEF6FEF8BE1F4
:103390000BC0882359F00E94881881E00E9485188C
:1033A00021E04FEF6FEF8CEA0E949A108091640346
:1033B000877009F4F7CEF6018281882309F4F2CEF2
:1033C00082E00F900F900F900F900F90DF91CF91B0
:1033D0001F910F91FF90EF90DF90CF90BF90AF9033
:1033E0009F908F907F906F905F904F900C94C3123E
:1033F0008823E1F20E94881881E00E94851821E06C
:1034000040E86FEF86E5D0CF17FF74C0882309F43A
:103410004FCF809167038093EF02109267038091F2
:103420007403813009F441C08823D9F1823009F452
:1034300049C0843009F44DC08FE39CE90197F1F74E
:1034400000C000005801E894B7F8ECE0EE2EF12C33
:1034500095010E2C02C0369527950A94E2F72F703D
:1034600087E290E029F0822F90E02A30B8F54D965F
:103470000E94D21694E0E91AF108ECEFEE16EFEF95
:10348000FE0631F780917403813071F1882341F198
:10349000823031F1843061F18091EF0280936703D3
:1034A00007CF82EE0E945D16C7CF83E00E943507EA
:1034B00088E10E945D1688E10E94241683E00E9444
:1034C0002A07BACF82EE0E945D1687E50E94D216C7
:1034D000B3CF86EE0E94D21688E1F8CF0697C8CF08
:1034E00082EE0E942416D8CF8CE20E94D216D4CF4E
:1034F00088E2FBCF033FFCE51F0769F1B0F4083D0C
:103500003CE5130711F1093D8CE51807B1F1073DC2
:103510009CE5190709F0CCCE06E221EE41EE67EDFD
:103520007CE5C6010E94E51641CF053FECE51E078C
:10353000F1F0B8F0063F2CE5120709F0B9CE07E22A
:1035400025EE46EE66EF7CE5ECCF07E225EE45EE94
:1035500068ED7CE5E6CF06E221EE40EE63EF7CE528
:10356000E0CF07E225EE44EE64EF7CE5DACF06E239
:1035700021EE42EE65EF7CE5D4CF08E221E045EE96
:1035800069ED7CE5CECF80918A03806106309CE5B1
:10359000190709F447C080918A03886007301C45E9
:1035A00008F440C080918A0380623CC00B30FCE587
:1035B0001F0709F49BC068F409303CE5130709F4C0
:1035C0008BC00A301C4509F0AECE80918A038C6016
:1035D00029C080918A038B7F0D309CE5190711F17A
:1035E00080918A038D7F0E301C45E0F080918A0324
:1035F000877F18C00A3FFCE51F0709F461C060F52A
:1036000002313CE5130709F481C078F400319CE5F0
:10361000190709F477C080918A038F7B01311C451B
:1036200009F081CE80938A037ECE0431FCE51F072A
:1036300009F47AC008F470C005311C4509F073CE56
:1036400080918A0382FB992790F921E0922790FBD1
:1036500082F990FB83F9E6CF0D3F8CE5180709F45A
:1036600049C070F40B3FECE51E0771F180918B03AC
:103670008E7F0C3F1C4509F056CE80938B0353CEB2
:103680000F3F2CE5120709F44BC060F101151D45F1
:1036900009F049CE80918B03982F909591708E7F81
:1036A000892B90FB81F9E9CF80918A038160BACFA1
:1036B00080918A038260B6CF80918A038460B2CF02
:1036C00080918B038160D9CF80918B038260D5CFAD
:1036D00080918A038064A6CF0E94061380918A039A
:1036E0008068A0CF80918B038360C7CF80918A03CD
:1036F0008E7F98CF80918B038D7FBFCF80918A037F
:103700008F7E90CF80918A038F7D8CCF0E9406138D
:1037100080918A038F7786CF80918A03837F82CFBF
:1037200080918B038C7FA9CF0E94061390918A030E
:10373000892F97FB87F9805875CF992309F485C0A5
:10374000809167038272F801E25CFC45E431F10587
:1037500008F072C0EF55F54D0C942C288091C703EA
:1037600080FF1BC08E7F8093C7036091C703709159
:10377000C8038091C9039091CA030E94550C10920E
:10378000A9039FEFE0E7F2E09150E040F040E1F75D
:1037900000C000000E94600D09CE0E94881806CE6D
:1037A00040E958E169E978E10E948C07FFCD49E9D9
:1037B00058E160E978E1F8CF40E651E169E671E16E
:1037C000F3CF49E651E160E671E1EECF48E451E123
:1037D00064E571E1E9CF44E551E168E471E1E4CFEA
:1037E00040E351E16CE371E1DFCF4CE351E160E391
:1037F00071E1DACF47E65CE068E77CE0D5CF48E7E7
:103800005CE067E67CE0D0CF65E082E00E94A31830
:10381000CDCD68E086E0FACF6EE089E0F7CF64E1D5
:103820008FE0F4CF67E185E1F1CF88E199CD62E2E5
:1038300089E1ECCF83E294CD01152CE5120709F460
:103840004EC00E3D1C4509F487C0F6010081118170
:10385000992309F484C0C8010E941D0AF82E682F1C
:10386000C8010E94F206B8018F2D0E947A08082F25
:10387000F92EB82EF601E580E2947FE0E72212816E
:10388000111110926603809164038770C1F01123B7
:10389000B1F08F2D807F803449F090E2900F983006
:1038A00070F0803619F4F6EFBF1649F082E00E94FE
:1038B000C312809164038770AA24A3948111A12C60
:1038C0009F2C92945FE095226BE0462E491408F4F9
:1038D00081C0E92DF0E0EB54F54D0C942C280E94AA
:1038E00006138FEF94E3ECE081509040E040E1F765
:1038F00000C00000F89481E08093E00080E28093B3
:10390000D8001092C9008FE19EE40197F1F700C042
:1039100000001DBA109268001CBC10BE1FBA1092A5
:103920007A0010926E0010926F0010927100109247
:1039300072001092C9001092BC0014B817B81AB8DF
:103940001DB810BA1092BC0015B818B81BB81EB834
:1039500011BA0C94003F2ACD0E94980C27CDC801C3
:103960000E94C906F82E7FCF2F2D2F70E22E8F2DAB
:10397000807F19F0E29440EFE4221123C9F0EE2099
:1039800069F080E2800F883010F0B1100BC0809198
:103990006703E82AE09267030E948406802F0E9452
:1039A0005D1618C080916603E82AE0926603F4CFA2
:1039B000802F0E942416EE2069F0E094005E08300B
:1039C00010F0B11057C080916703E822E0926703BE
:1039D0000E948406292D2850330B2430310510F421
:1039E0000E948007112379F08F2D807F803619F493
:1039F00036EFB31641F08091F202823009F097C29F
:103A000083E08093F202AA20A9F08091640380FDF4
:103A100011C0F60112828595859585950E94DB126D
:103A2000C6010E94B018809164038595859585959F
:103A30000E94A01285E0F601DE01119601900D9220
:103A40008A95E1F789819A810E94C9069A81E98164
:103A5000F0E026E0929FE00DF11D112434E5839FF4
:103A6000E00DF11D1124EE0FFF1FEF54FD4F859166
:103A7000949198CB80916603E822E0926603A8CFE8
:103A80003F2D3F70832E8F2D807F803219F08294DE
:103A900030EF8322BB2041F081E0B81631F11123D1
:103AA00081F1EE2049F17ACF112391F090916803D2
:103AB000882D892BE11003C00E944A078BCFE1E0DB
:103AC000EE12FACF891709F485CF8093680382CF6D
:103AD000E11006C00E947E06882D0E943F077ACF23
:103AE000F1E0EF1609F476CFF5CF112339F0442435
:103AF00043944E1408F46ECF882DDECFE1106ACFC8
:103B0000EBCFEE2049F329E3522EB51009C02FEF79
:103B100037EE83E0215030408040E1F700C00000E4
:103B2000802F0E94241656CF8F2D86958695837000
:103B300069F0813009F04ECF802F9F2D93701111C5
:103B400002C090E080E00E94540744CF802F9F2D58
:103B50009370111102C090E080E00E946A073ACF92
:103B6000802F112329F00E94A8050E94501232CF05
:103B70000E94E104FACF8F2D837009F067C0111104
:103B800029CF202F229526952770220F220F402F14
:103B90004F7050E070E060E0022E04C0440F551FEB
:103BA000661F771F0A94D2F780E090E0DC0104FFE3
:103BB0000FC08FE090E0A0E0B0E004C0880F991F34
:103BC000AA1FBB1F2A95D2F780959095A095B09516
:103BD0002F2D269526952370223029F1D8F4409078
:103BE000690350906A0360906B0370906C032130FE
:103BF00069F0842B952BA62BB72BBC01CD0164213A
:103C00007521862197210E94FC12E4CE4429552972
:103C1000662977292A013B01482A592A6A2A7B2AE0
:103C2000C301B201F0CF842B952BA62BB72B40906C
:103C3000690350906A0360906B0370906C03BC0141
:103C4000CD016425752586259725DDCF8695112321
:103C500011F08F2D8170882309F4BCCE202F22957E
:103C600026952770220F220F402F4F7050E070E0F2
:103C700060E0022E04C0440F551F661F771F0A9490
:103C8000D2F780E090E0DC0104FF0FC08FE090E00D
:103C9000A0E0B0E004C0880F991FAA1FBB1F2A959F
:103CA000D2F780959095A095B0952F2D26952695C5
:103CB0002370223029F1D8F440908D0350908E0368
:103CC00060908F0370909003213069F0842B952BC6
:103CD000A62BB72BBC01CD0164217521862197212C
:103CE0000E94941277CE44295529662977292A0102
:103CF0003B01482A592A6A2A7B2AC301B201F0CF24
:103D0000842B952BA62BB72B40908D0350908E03C0
:103D100060908F0370909003BC01CD0164257525E0
:103D200086259725DDCF2F2D2F70E22E112329F028
:103D3000822F0E94DB12802FBFCE802F0E943F0770
:103D40008E2D0E94A01246CE802F32EFB31609F4BA
:103D500052C03B1578F090EFB91629F1E1EFBE168D
:103D600009F441C0112309F46AC0E11017CE8F2D68
:103D70008F713EC0F3EFBF1609F442C094EF492E95
:103D8000B410F0CF112309F44FC00F2D0F71802F05
:103D90000E94DB1228E0029FC001112483608093FF
:103DA0006403802F25C01123C1F0E11013CE2F2D05
:103DB0002F7161E070E080E090E004C0660F771F33
:103DC000881F991F2A95D2F740908D0350908E033B
:103DD00060908F0370909003A1CF552453945E148C
:103DE00008F4F8CDE4CF8F2D8F71112309F4A9CFFA
:103DF0000E94DB12EFCD8F2D8F711123C9F3A1CF5C
:103E000060E070E0CB01112309F46ACF2F2D2F71F0
:103E100061E070E080E090E004C0660F771F881FCB
:103E2000991F2A95D2F75CCF81E00E94C31231E03E
:103E30003E1508F0CFCD82E00E94C312CBCDEE201C
:103E400059F0893309F06CCE8FEF97EEE3E08150A3
:103E50009040E040E1F762CE8F2D8F7172CFE0E1AC
:103E6000E00FE73008F03EC0F0E0EF53F54D0C9462
:103E70002C28112309F4AECD8091F40291E089271A
:103E80008093F402A7CD1093F402A4CD81E08127A2
:103E9000F7CF11119FCD81E0F3CF11119BCD10927F
:103EA000F40298CD112321F082E08093F202F3CF47
:103EB0008091F202823021F481E08093F2028ACD77
:103EC000833009F087CD1092F202E9CF112339F047
:103ED0008091F302882381F21092F3027BCDEE20D1
:103EE00059F278CD8091F302EE20A9F0882341F0B9
:103EF0008091F40291E089278093F4021092F302FA
:103F0000802F11114CCD0E94241686E0F6011192EB
:103F10008A95E9F75FCD882309F45CCD11115ACD5C
:103F20008091F40291E089278093F402D5CF81300B
:103F300009F069CD1092F2021092F40264CD85E08E
:103F4000DE01119601900D928A95E1F7F60122812A
:103F500089819A8121113CC90E94C906082F40C954
:103F60000631FCE51F0709F0E8CB809167038A7AE8
:103F700091E009F490E09093F10269E2811165E328
:103F80008AE292E00E9449060E9484060FCA063126
:103F90001C4509F05ACC8091F10269E2811165E378
:103FA0008AE292E00E941F06EFCF1F93CF93DF9328
:103FB0008091FA02807FA9F48091F702882389F02A
:103FC00080912C03D091FB026091F5027091F60272
:103FD000A091F802B091F902C62FC72316E0D813BA
:103FE00004C0DF91CF911F91089590E0109711F0D8
:103FF000CF3F19F401968770F2CF189F9001199F57
:10400000300D1124F901E450FD4F41814713F2CFE7
:1040100040814613EFCF42814111ECCF438154815F
:104020004A1B5B0B483C510528F78091FA028F70C0
:1040300080618093FA02F901EF5FFC4F80818F70FD
:104040008061808385EF92E00E94B018DF91CF916C
:104050001F910C942007AF92BF92CF92DF92EF9204
:10406000FF920F931F93CF93DF93CDB7DEB7619786
:104070000FB6F894DEBF0FBECDBF8C0185E0F8010E
:10408000DE011D9601900D928A95E1F7F80180817D
:104090009181E28025EFA22E22E0B22E6091F802FB
:1040A0007091F9026115710509F43EC13091F50274
:1040B0004091F602232F24232F3F09F435C1C380FA
:1040C000D480F090F702F601E61BF70BFF2009F40D
:1040D000FBC02091FA02522F507FE83CF10508F016
:1040E000BBC0511178C0FE2C491321C038131FC02A
:1040F000E1101DC02F7020612093FA02C5010E94BB
:10410000B0188091FA02F80185838F2D61960FB661
:10411000F894DEBF0FBECDBFDF91CF911F910F91FD
:10412000FF90EF90DF90CF90BF90AF900895CD2893
:1041300029F0282F29232F3F09F022C120E0F22F58
:10414000F170DF2E20FF3DC020912C034091FB0237
:1041500056E0241315C08D879E878D859E850E940D
:104160005F0A292F22952F702230F8F0243020F595
:104170009F70F9F0F8019581907FD9F4D12C1FC080
:1041800030E0529FF001539FF00D1124E450FD4F99
:104190006181961306C06081861303C06281E612B6
:1041A00010C02F5F3F4F2770D4CF9F7011F088232E
:1041B00029F3805E883010F3C8010E94B018FD2CEE
:1041C000A4CFEE2009F4A1CF8091FA028160809300
:1041D000FA02F12C9ACF491312C0381310C0E11023
:1041E0000EC0F8012583C8010E94B01886E0F801CE
:1041F000A5EFB2E001900D928A95E1F786CF8D8709
:104200009E878D859E850E94690A882309F1EE208C
:10421000F9F08091FA02803270F02091F50230912D
:10422000F60238872F831986DB86CA868C87CE01F3
:1042300007960E94B01886E0F801A5EFB2E0019061
:104240000D928A95E1F70E94D51FFF24F3945DCF6C
:10425000C8010E94B018F9CF51110AC085EF92E051
:104260000E94B01886E0F50111928A95E9F7B1CF66
:1042700049130FC038130DC0E1100BC0F80125839E
:10428000C8010E94B01886E0F50111928A95E9F7FD
:104290003CCF8D879E878D859E850E94690A8823E5
:1042A000B9F2EE20A9F28091FA02803220F2209138
:1042B000F5023091F6023A8329831B82DD82CC829B
:1042C0008E83CE010196B5CFE83CF105E0F6FE2CD9
:1042D000EE2009F4BDCF491316C0381314C08091E5
:1042E000FA0280FD83CF982F907F09F47FCFF801E9
:1042F0008583903F09F477CF982F907F905F8F70E0
:10430000892B858370CF8D879E878D859E850E94A2
:10431000690A811190CF8091FA0281608093FA023C
:10432000C8010E94B018F1CEEE2009F491CF8D871C
:104330009E878D859E850E94690AF82E882309F440
:1043400087CF86E0F801A5EFB2E001900D928A9543
:10435000E1F78091F5029091F6020E945F0A929532
:104360009F70963051F4863F41F08091F40291E0C5
:1043700089278093F4029093F3020E94D51FC5CE43
:1043800021E02E25DCCE1F93CF93DF93CDB7DEB790
:1043900067970FB6F894DEBF0FBECDBF6D8B7E8BD7
:1043A0008F8B8E899F89892BE1F0852F84238F3F06
:1043B00009F098C05FEF4FEF14C03091F40233233F
:1043C00009F44EC0E42FF0E036E0539FE00DF11DFC
:1043D0001124EE0FFF1FE05BFE4F40815181822BC5
:1043E0008C931A8A198A4B8B5C8B85E0FE0173963D
:1043F000DE011D9601900D928A95E1F786E0FE019F
:104400003D96DE01179601900D928A95E1F7CE0157
:1044100007960E942B20811112C086E0FE0137967C
:10442000DE01119601900D928A95E1F78A859B85B0
:10443000892B29F08F81988589238F3FC9F516E054
:1044400080912C039091FB02891320C067960FB6D0
:10445000F894DEBF0FBECDBFDF91CF911F910895BD
:1044600080958223BDCF96E0929FD001939FB00D9F
:104470001124A450BD4FFE01319601900D929A95E2
:10448000E1F78093FB020E942007D9CF819FC001F2
:10449000112484509D4F0E942B208823B9F28091D3
:1044A0002C0390E001968770992780932C03C8CF46
:1044B0002091FB0230E0C901019687709927409155
:1044C0002C034817190679F60E9406131092FB0276
:1044D00010922C0386E0E5EFF2E0DF011D928A9551
:1044E000E9F7ADCF81E090E0042E01C0880F0A9477
:1044F000EAF7A52FB0E0AF51BD4F2C913D893111A6
:104500005CCF322F38235BCF8F929F92BF92CF9296
:10451000DF92EF92FF920F931F93CF93DF938091DF
:10452000180190911901892B91F080914B028F5FB6
:1045300080934B0281110BC00E94721190E0909306
:10454000190180931801892B11F40E94CD0B2CE7DF
:10455000822E23E0922E740110E000E097E0C92E35
:10456000C00E802F0E940C0D8C2D0E940C0D802FF0
:104570000E94E911E70199917E01D12C891729F058
:10458000FE0131978083DD24D3948C2D0E94E911A4
:10459000F7019681891709F47AC0868381E08D2915
:1045A000182B0E94150B0F5F0730C1F60E944412B2
:1045B00060914D0270914E0290934E0280934D0295
:1045C00020914C0230E0261B370B820F931F6BEFBC
:1045D00070E00E940428E82E392F082F80934C02A7
:1045E000F0905002FF2009F45EC010925002E0915A
:1045F0007203F0917303AF01425F5F4F20E08BEFD6
:10460000B82E6BEF70E0A191AB3F99F0CA2ED12C80
:104610008E2D932F0A17E8F18C199D09092E000C95
:10462000AA0BBB0B4E97A105B105C8F1DF0111978D
:10463000BC924E175F0739F720935002111102C048
:10464000211133C010924F02A0917203B0917303F5
:1046500090915002E4E9F3E080E03191E401299186
:104660004E01321751F03C913B3FD9F40C93AF010E
:1046700041505109EA01288391E01196D3E0E23AD2
:10468000FD0759F79093500280934F0212C080E0CB
:1046900086CFDB01AC19BD098A0F9B1FBFCF2F2D21
:1046A000C8CF81E0EACF1111CDCF80914F028111A7
:1046B000C9CF812FDF91CF911F910F91FF90EF9084
:1046C000DF90CF90BF909F908F900895CDB7DEB7C9
:1046D00060970FB6F894DEBF0FBECDBF84B7877F5B
:1046E00084BF0FB6F894A89580916000886180938C
:1046F0006000109260000FBE80E890E00FB6F89462
:1047000080936100909361000FBE85B7806885BF7C
:1047100085B7806885BF0E9453030E941E04809164
:10472000E20084608093E20078948091F203882311
:10473000A1F01091E9001F709091EC00892F817019
:1047400090FD80E8182B1092E9008091E80083FD2D
:104750000E941B131F701093E90082E084BD93E058
:1047600095BD9AEF97BD80936E000E94721190E004
:1047700090931901809318010E94150B0E94240B3D
:10478000ECE7F3E0A4E9B3E011921D9223E0EA38EC
:10479000F207D1F78EE090E00E949D28809372038B
:1047A00090937303FC010E962BEF21938E179F07B6
:1047B000E1F790E080E00E94E3298F3E9E4F11F0E8
:1047C0000E94980C8CE090E00E94D52990E0B0E027
:1047D000A0E08093740390937503A0937603B09345
:1047E000770389EA8093800089E080938100249890
:1047F0002C983F988AB18F7C8AB96E98479A8BB172
:1048000080638BB9769A8FE090E00E94DD296093F7
:1048100078037093790380937A0390937B03677096
:104820008FEF689FB0011124759567957595679511
:104830007727709389006093880070938B00609352
:104840008A0070938D0060938C000E94CD0B90E0E5
:1048500080E00E94E3298F3E9E4F11F00E94980C49
:1048600082E090E00E94D5298093B7030E94470C14
:1048700090938B0380938A0383E090E00E94D52974
:10488000682F70E090E080E00E94FC1260918D0340
:1048900070918E0380918F03909190030E94A20AE1
:1048A00080918C03811136C090E080E00E94E32962
:1048B0008F3E9E4F21F00E94980C0E94890C88E048
:1048C00090E00E94DD296093C7037093C803809332
:1048D000C9039093CA036E7F71F40E94890C88E02B
:1048E00090E00E94DD296093C7037093C803809312
:1048F000C9039093CA030E9491071092A903809163
:10490000C70380FF04C060E086950E945E1781E0C7
:1049100080938C0360918D0370918E0380918F033F
:10492000909190030E94A20A8AE191E090939203F1
:1049300080939103ACEAEA2EA4E0FA2E8091F20370
:10494000853009F449C10E948422E8EBF3E0A4E930
:10495000B3E010E000E0302F8D912191281709F489
:10496000A9C190E0DD24D3942827422F4D2109F4DA
:104970009CC19F8338878D2191E009F490E099874D
:104980000E9444128160782F9B878A874F815885C7
:1049900069858B850E94C321F801E854FC4F808112
:1049A000D826D0828091A903882309F441C0809140
:1049B000A803E091C703E695E81BE093A4038230C7
:1049C00009F08FC1F0E0E654FB4FE4910E2F10E0A8
:1049D000F6E7CF2EF0E1DF2E8091A503882389F042
:1049E0001092A5030E944412980120953095820FE1
:1049F000931F9093A3038093A2031092A703109296
:104A0000A6038091A2039091A3030E941006801731
:104A1000910770F0E091A203F091A3030E0F1F1F06
:104A20001093A3030093A20382EA93E0F601099591
:104A300086E0E0EBF3E0DE01119601900D928A959D
:104A4000E1F7D090B203C090B3031091B40300918A
:104A5000B5031092B2031092B3031092B4031092F4
:104A6000B5038D2D8C2909F448C08091AE03909137
:104A7000AF030E9410069C019091AD03992309F4A5
:104A8000C5C125313105C8F19F3F19F09F5F909353
:104A9000AD03DD2059F00E9484059FEF1D140CF436
:104AA00091E0899F802D11248093B203CC2059F08E
:104AB0000E9484059FEF1C140CF491E0899F802DC7
:104AC00011248093B3033091B2033323B1F02091CA
:104AD000B303222391F045EB3403C0011124992341
:104AE00009F46AC19093B20345EB240390011124A9
:104AF000332309F465C13093B303812F802B09F46C
:104B000048C08091AB039091AC030E9410069C01B9
:104B10009091AA03992309F475C125313105C8F193
:104B20009F3F19F09F5F9093AA03112359F00E94B1
:104B300064059FEF11160CF491E0899F802D1124DC
:104B40008093B403002359F00E9464059FEF101670
:104B50000CF491E0899F802D11248093B50330914E
:104B6000B4033323B1F02091B503222391F045EB38
:104B70003403C0011124992309F426C19093B4038E
:104B800045EB240390011124332309F421C1309310
:104B9000B5038091B2039091B303892B9091B40334
:104BA000892B9091B503892B11F00E94501286E059
:104BB000FE013196A0EBB3E001900D928A95E1F7EA
:104BC0000E9480079091B603891709F4B7CE0E941E
:104BD00080078093B603B2CE8091F203843009F44B
:104BE00041C01092930388E190E020E40FB6F8945E
:104BF000A895809360000FBE209360001092A903D7
:104C00008091CD03811117C081E08093CD03809105
:104C1000C703982F91709093CC038E7F8093C70326
:104C20002FEF40E782E0215040408040E1F700C094
:104C300000000E94600D83B7817F846083BF83B7CB
:104C4000816083BF7894889583B78E7F83BF0FB6CA
:104C5000F894A8958091600088618093600010921C
:104C600060000FBE8091F103882309F467CE0E9493
:104C7000721190E090931901809318010E94150B16
:104C80000E94240B02EA13E0E4E9F3E011920E170C
:104C90001F07E1F70E948422E4E9F3E0819181118A
:104CA0009BC00E171F07D1F749CE9F5FDD0C9630D2
:104CB00009F05BCE0F5F1F4F0E30110509F04BCE90
:104CC0008FEF8C878D871E860E9444128160782F1B
:104CD000988B8F874C855D856E8588890E94C3215E
:104CE00061CE863059F4F0E0E954FB4FE4910E2F89
:104CF00010E0EAE8CE2EE0E1DE2E6ECE893061F4DF
:104D0000E695F0E0EC54FB4FE4910E2F10E07EE5C9
:104D1000C72E7EE0D72E60CE8F3061F4E695F0E0AE
:104D2000EF54FB4FE4910E2F10E068E8C62E6EE0C2
:104D3000D62E52CE853159F4F0E0E255FB4FE49186
:104D40000E2F10E057EFC52E5EE0D52E45CE08E2BF
:104D500010E027E4C22E2FE0D22E883109F43CCE99
:104D6000833241F4F701059114914BE1C42E40E1E7
:104D7000D42E32CE04EF11E090EDC92E9FE0D92E53
:104D8000843209F429CE853281F48E2F63E00E94AB
:104D9000EA27E92FF0E0E755FB4FE4910E2F10E0F2
:104DA00035EDC32E3DE0D32E17CE00ED17E08DED8F
:104DB000C82E84E0D82E10CE81E08093B20394CE2A
:104DC00081E08093B30399CE81E08093B403D8CE81
:104DD00081E08093B503DDCE80E189BD82E189BDAC
:104DE00009B400FEFDCF8091D8008F7D8093D8005C
:104DF0008091E00082608093E0008091E00081FD7E
:104E0000FCCF9CCD232B09F08DCEC3CE232B09F0F4
:104E10003DCE73CE1F921FB61F9211248F939F9386
:104E2000AF93BF9380919303811113C080916D0361
:104E300090916E03A0916F03B09170034196A11DF4
:104E4000B11D80936D0390936E03A0936F03B09395
:104E50007003BF91AF919F918F911F901FBE1F90C4
:104E600018951092B9008CE08093B8000895EF92E5
:104E7000FF920F931F93CF93DF93182FEB011092A4
:104E8000BC0084EA8093BC000E9444127C018091A3
:104E9000BC0087FF27C08091B900887F883029F047
:104EA0008091B900887F8031D9F51093BB0084E8E8
:104EB0008093BC000E9444128C018091BC0087FF4B
:104EC00024C02091B900287F90E080E02831B1F023
:104ED00081E090E0203411F490E080E0919581959C
:104EE00091090CC0CF3FDC0791F20E9444128E1949
:104EF0009F098C179D0758F28EEF9FEFDF91CF919E
:104F00001F910F91FF90EF900895CF3FDC07A9F21A
:104F10000E944412801B910B8C179D0770F2ECCFFE
:104F20008FEF9FEFEBCF0F931F93CF93DF93EB01A7
:104F30008093BB0084E88093BC000E9444128C01E3
:104F40008091BC0087FF11C02091B900287F81E0CB
:104F500090E0283211F490E080E0919581959109DC
:104F6000DF91CF911F910F910895CF3FDC0741F35F
:104F70000E944412801B910B8C179D0708F38EEF43
:104F80009FEFEECF0F931F93CF93DF93EC0184E855
:104F90008093BC000E9444128C018091BC0087FF6A
:104FA00008C08091BB0090E0DF91CF911F910F91DD
:104FB0000895CF3FDC0789F30E944412801B910BB8
:104FC0008C179D0750F38EEF9FEFEECF84E980930F
:104FD000BC000895991B79E004C0991F961708F04A
:104FE000961B881F7A95C9F78095089587FB082E30
:104FF000062687FD819567FD61950E94EA270EF4DC
:10500000919507FC81950895AA1BBB1B51E107C030
:10501000AA1FBB1FA617B70710F0A61BB70B881F48
:10502000991F5A95A9F780959095BC01CD010895D7
:1050300097FB072E16F4009407D077FD09D00E9445
:10504000042807FC05D03EF4909581959F4F089564
:10505000709561957F4F0895EE0FFF1F0590F491B5
:10506000E02D09940E94712A332312F48A1B9B0BB2
:105070000C943C280E94712AB7FF0895821B930B61
:1050800008958F929F92AF92BF92CF92DF92EF924C
:10509000FF92CF93DF93EC01688179818A819B81B4
:1050A000611571058105910521F464E279ED8BE5C7
:1050B00097E02DE133EF41E050E00E941D2A4901C5
:1050C0005A019B01AC01A7EAB1E40E943C2A6B01A2
:1050D0007C01ACEEB4EFA50194010E944A2ADC01E8
:1050E000CB018C0D9D1DAE1DBF1DB7FF03C00197E9
:1050F000A109B04888839983AA83BB839F77DF91F6
:10510000CF91FF90EF90DF90CF90BF90AF909F90A6
:105110008F9008950E944128089580E091E00E94B8
:1051200041280895B0E0A0E0809300019093010130
:10513000A0930201B093030108950F931F93CF939F
:10514000DF938230910510F482E090E0E091FE035D
:10515000F091FF0330E020E0B0E0A0E0309799F458
:105160002115310509F447C0281B390B24303105BE
:10517000C0F58A819B816115710571F1FB019383F3
:105180008283FE0111C04081518102811381481741
:105190005907F8F04817590799F4109761F01296DB
:1051A0000C93129713961C933296CF01DF91CF91F7
:1051B0001F910F9108950093FE031093FF03F4CF06
:1051C0002115310519F04217530718F49A01BD0152
:1051D000EF01DF01F801C2CF9093FF038093FE033C
:1051E000D0CFFE01E20FF31F81939193225031093A
:1051F00039832883DACF2091FC033091FD03232BE0
:1052000041F420910601309107013093FD03209372
:10521000FC0320910401309105012115310541F471
:105220002DB73EB74091080150910901241B350B61
:105230004091FC035091FD034217530708F0B5CF8E
:10524000241B350B2817390708F4AFCFBC016E5F5C
:105250007F4F2617370708F4A8CF640F751F709388
:10526000FD036093FC03FA01819391939ECFCF934A
:10527000DF930097E9F0FC01329713821282C0910C
:10528000FE03D091FF03DE0130E020E02097A1F47F
:1052900020813181820F931F2091FC033091FD0307
:1052A0002817390709F067C0F093FD03E093FC036A
:1052B000DF91CF910895DA01AE17BF0708F040C023
:1052C00012964D915C9113979D014115510599F7E7
:1052D000D9011396FC93EE9312974D915D91A40F13
:1052E000B51FEA17FB0779F4808191810296840F3C
:1052F000951FD90111969C938E9382819381139669
:105300009C938E931297B0E0A0E08A819B810097D6
:10531000B9F5FE0181919191E80FF91F8091FC038D
:105320009091FD038E179F0719F6109761F5109263
:10533000FF031092FE03D093FD03C093FC03B8CF8C
:10534000B383A28340815181840F951FA817B907A9
:1053500071F44E5F5F4F8D919C911197480F591FCB
:105360005183408312968D919C9193838283211562
:10537000310509F0ADCFF093FF03E093FE0398CF22
:10538000DE01EC01C2CF13961C921E921297D3CF6E
:10539000FC014150504030F001900616D1F7319792
:1053A000CF010895882799270895F999FECF92BDD6
:1053B00081BDF89A992780B50895A6E1B0E044E050
:1053C00050E00C940F2AA8E1B0E042E050E00C94C9
:1053D0000F2A262FF999FECF92BD81BDF89A019729
:1053E00000B4021639F01FBA20BD0FB6F894FA9A2D
:1053F000F99A0FBE08950396272F0E94EA290E946A
:10540000E929252F0E94EA29242F0C94EA290196E4
:10541000272F0E94EA290C94E929DC01CB01FC0129
:10542000F999FECF06C0F2BDE1BDF89A319600B4FD
:105430000D9241505040B8F70895052E97FB1EF489
:1054400000940E94342A57FD07D00E944F2A07FC7F
:1054500003D04EF40C94342A509540953095219504
:105460003F4F4F4F5F4F0895909580957095619590
:105470007F4F8F4F9F4F08950E94712AA59F900DD7
:10548000B49F900DA49F800D911D11240895B7FF26
:105490000C943C2A0E943C2A821B930B0895A1E2A3
:1054A0001A2EAA1BBB1BFD010DC0AA1FBB1FEE1F9E
:1054B000FF1FA217B307E407F50720F0A21BB30BE9
:1054C000E40BF50B661F771F881F991F1A9469F765
:1054D00060957095809590959B01AC01BD01CF01C1
:1054E0000895A29FB001B39FC001A39F700D811DBD
:1054F0001124911DB29F700D811D1124911D0895DD
:10550000F894FFCF780A780A810A810A830A810A0F
:10551000810A810A780A780A880A810A810A880A37
:10552000FC0A080B0D0B060B0B0B120B100BFE13DA
:105530002614C8152614C81559147A14C8158315CD
:105540009015AE1BD01BD71BDC1BE11BE61BEB1B16
:10555000F01BF51BFA1BFF1BAF19041C091C0C1CCC
:105560000F1C121C151C171C1A1CB41CB41C401D4B
:10557000401D941DB01D2F1FEA1CBB1D931EA41EB1
:10558000A41E391F661F431F461F4D1F491F521F70
:105590000100000000000004200001191A1B1C1D5E
:1055A0001E1F2021220102012000DE048D0B6C0B46
:1055B000680B640B010001020202020606060909DB
:1055C000090909090F0F0F0F0F0F151515181919D4
:1055D00019191919191919192324252525252525DE
:1055E000000D010D020D030D040D050D000C010C45
:1055F000020C030C040C050C000B010B020B030B3B
:10560000040B050B000A010A020A030A040A050A30
:105610000009010902090309040905090008010834
:10562000020803080408050800070107020703072A
:105630000407050700060106020603060406050620
:105640000005010502050305040505050004010424
:10565000020403040404050400030103020303031A
:105660000403050300020102020203020402050210
:105670000001010102010301040105010000010014
:105680000200030004000500818283E200E900EAD1
:1056900000B500B600B700CD008301CC008A0192AE
:1056A0000194012102230224022502260227022A54
:0A56B00002B300B4006F00700000A8
:00000001FF
