:100000000C941A030C9437030C9437030C943703A5
:100010000C9437030C9437030C9437030C94370378
:100020000C9437030C9437030C94B0170C9491156F
:100030000C942A270C9437030C9437030C94370341
:100040000C9437030C9437030C9437030C94370348
:100050000C9437030C94E4110C9437030C9437037D
:100060000C9437030C9437030C9437030C94370328
:100070000C9437030C9437030C9437030C94370318
:100080000C9437030C9437030C9437030C94370308
:100090000C9437030C9437030C9437030C943703F8
:1000A0000C9437030C9437030C94370300010101BF
:1000B0000101010101010202020202020202020325
:1000C00003030303030303040404040404040505F5
:1000D00005050506060606060707070707080808B8
:1000E00008090909090A0A0A0B0B0B0C0C0C0D0D67
:1000F0000D0E0E0E0F0F0F101011111112121313FF
:100100001414151516161717181819191A1A1B1B77
:100110001C1D1D1E1E1F20202122222324242526D3
:1001200026272829292A2B2C2D2D2E2F303132320B
:10013000333435363738393A3B3C3D3E3F40414217
:10014000434445464748494A4C4D4E4F50515354FD
:10015000555658595A5B5D5E5F61626465666869B1
:100160006B6C6D6F7072737577787A7B7D7E808231
:10017000838587888A8C8E8F91939596989A9C9E7A
:10018000A0A2A3A5A7A9ABADAFB1B3B5B7BABCBE8A
:10019000C0C2C4C6C9CBCDCFD1D4D6D8DBDDDFE257
:1001A000E4E7E9EBEEF0F3F5F8FAFDFFFFAA7F557F
:1001B000402223252628292A2C2D2F30323335366C
:1001C000383A3B3D3E4042434547494A4C4E5051E8
:1001D000535557595A5C5E6062646668696B6D6F0F
:1001E00071737577797B7D7F81838587898A8C8E12
:1001F00090929496989A9C9E9FA1A3A5A7A8AAAC1A
:10020000AEAFB1B3B4B6B8B9BBBCBEBFC1C2C3C553
:10021000C6C7C9CACBCCCDCED0D1D2D2D3D4D5D6F5
:10022000D7D7D8D9D9DADADBDBDBDCDCDCDCDCDD28
:10023000DDDDDDDCDCDCDCDCDBDBDBDADAD9D9D80C
:10024000D7D7D6D5D4D3D2D2D1D0CECDCCCBCAC9A4
:10025000C7C6C5C3C2C1BFBEBCBBB9B8B6B4B3B1D3
:10026000AFAEACAAA8A7A5A3A19F9E9C9A9896946E
:1002700092908E8C8A89878583817F7D7B79777543
:1002800073716F6D6B6968666462605E5C5A595722
:10029000555351504E4C4A4947454342403E3D3BE1
:1002A0003A3836353332302F2D2C2A29282625236B
:1002B000222E004C00E000E100354100001E001439
:1002C0000004641D6834004D001F001A0016001B56
:1002D0000000632A00200008000700060050002CE0
:1002E0000021001500090019004F004A00220017E4
:1002F000000A000500000065645000E302000000F1
:100300000F0000E3004F000153000000070000A8A9
:100310000023001C000B00110000002961240018BC
:10032000000D00100052004B0025000C000E00369E
:100330000051002800260012000F0037002F002B6C
:1003400000270013003374387830004E002D003140
:10035000003471E500015100002900010001000195
:1003600000010000003A001E022002220201000EDD
:100370005D3B001F02210223020100C95C3C002FEB
:100380000226022F000100CA5C3D00300227023025
:100390000001000D5D3E003102350035020000C352
:1003A0005C010001000000010000000C5D01000183
:1003B00000000001000000C25C3F00520051002418
:1003C0000200000B5D4000240021001E000100011E
:1003D000004100250022001F003700C55C420026B6
:1003E00000230020002700C65C430025022E0231B6
:1003F000002E000100440045000100010001000042
:1004000000010001000100010001000000010001E5
:1004100000010001000100010001000100F20001E3
:1004200000010001000100F000F1000100F40001F2
:100430000001000100F3000100F5000100010001CE
:1004400000010001000000010001000100000001A6
:100450000000000100010001000000010000000197
:100460000001000100010001000000010001000185
:100470000001000100A9000100010001000100AC21
:1004800000AA00B600010001000100AB00A80001B5
:100490000001000100010001000100010001000154
:1004A00000AE0001000100000032190A00047F3F85
:1004B0001F643214643214783C1E1E140A050501B0
:1004C0000902A10185020901A100050919012905F7
:1004D00015002501950575018102950175038101BE
:1004E0000501093009311581257F950275088106BE
:1004F00009381581257F950175088106050C0A3894
:10050000021581257F950175088106C0C005010986
:1005100080A101850319012AB700150126B70095AE
:100520000175108100C0050C0901A10185041901A4
:100530002AA002150126A002950175108100C005B0
:10054000010906A1018505050719E029E715002520
:10055000019508750181020507190029EF1500258D
:100560000195F075018102050819012905950575A8
:10057000019102950175039101C005010906A101D0
:10058000050719E029E71500250195087501810285
:100590009501750881010507190029FF150026FF3F
:1005A000009506750881000508190129059505754E
:1005B000019102950175039101C009023B000201FE
:1005C00000A0FA0904000001030101000921110142
:1005D00000012240000705810308000A0904010008
:1005E000010300000009211101000122BC000705E0
:1005F000820320000A1201100100000008EDFE072E
:10060000130100010203010403300000001603453A
:1006100000720067006F0064006F007800200045E2
:10062000005A00000008035A005300410000000473
:100630000309040011241FBECFEFDAE0DEBFCDBFF7
:1006400023E0A8E2B2E001C01D92AF3FB207E1F79C
:1006500012E0A0E0B1E0E2EBF5E502C005900D92FA
:10066000A832B107D9F70E946F230C94912A0C94F9
:100670000000E8EDF0E080818E7F80831092E20040
:100680001092DA001092E100A0EEB0E08C9181604F
:100690008C9380818F77808319BCA7EDB0E08C911B
:1006A0008E7F8C9380818F7E80831092C503089506
:1006B0002091E4003091E50095E6A9012091EC003D
:1006C000822F817020FF06C08091E80080FF06C065
:1006D00080E008952091E80022FD1AC08091F10386
:1006E000882389F0853089F08091EB0085FD0FC06B
:1006F0002091E4003091E50042175307F9F2915040
:10070000E1F684E0089582E0089583E0089581E0B1
:100710000895EF92FF920F931F93CF937C018B016B
:100720000E945803C82F811117C08091E80085FDF1
:100730000BC08091E8008E778093E8000E945803F8
:10074000882399F3C82F08C0F70181917F01809316
:10075000F1000150110949F78C2FCF911F910F9192
:10076000FF90EF9008958091F30387FF13C080916D
:10077000E80082FF06C08091E8008B778093E80054
:1007800004C08091F1038111F2CF08958091F103AB
:100790008823D9F38091E80080FFF8CF8091E800AA
:1007A0008E77ECCF982F9093E900242F762F50E08E
:1007B000891731F07091EC002091ED005091F0001C
:1007C00021FD07C09F5F973071F78093E90081E0BA
:1007D00008953091EB003E7F3093EB003091ED00B7
:1007E0003D7F3093ED003091EB0031603093EB00B2
:1007F0007093EC002093ED005093F0002091EE00F8
:1008000027FDE0CF80E00895CF92DF92EF92FF9234
:100810000F931F93CF93DF93C8EDD0E088818F7E35
:100820008883E7EDF0E080818160808384E082BF8F
:1008300081E08093C50388818E7F888302EE10E07B
:10084000F80110821092DA0081EEC82ED12CF60148
:10085000108288818F7788838881806888838881E7
:100860008F7D888319BC1092F1031092F2031092CD
:10087000F0031092EF0390EEE92EF12CF701808146
:100880008B7F808388818160888342E060E080E0A4
:100890000E94D203F60180818E7F8083F8018081DF
:1008A00081608083808188608083F70180818E7F72
:1008B0008083888180618883DF91CF911F910F9120
:1008C000FF90EF90DF90CF900895FC018091F903A5
:1008D0009091FA0386179707A0F06115710529F426
:1008E0009091E8009E779093E80090E06115710583
:1008F00051F4911108C08091E80082FF34C080E07B
:100900000895BC01F2CF8091F1038823C1F18530B5
:10091000C1F18091E80083FD30C08091E80082FD44
:10092000EACF8091E80080FFE1CF8091F300209131
:10093000F200382F6115710519F02830310558F093
:1009400091E02830310509F090E02091E8002E7701
:100950002093E800CBCF81918093F1006150710921
:100960002F5F3F4FE7CF8091F103882341F085301F
:1009700041F08091E80083FFBECF81E0089582E0DE
:10098000089583E008958091F103843011F482E0AA
:10099000089581E0089508958091CE03089590917F
:1009A000B103803F41F48091B20387FD1092B203FE
:1009B000992371F00895813F29F48091B2031816AC
:1009C000ACF3F6CF823F81F497FFF2CF1092B103E0
:1009D0008091B2039091B303892B9091B403892B3A
:1009E00049F71092AC030895833F19F4191674F374
:1009F000DFCF893F39F48091B3031816CCF61092FB
:100A0000B303D6CF8A3F29F48091B30387FFD0CFB9
:100A1000F6CF8B3F39F48091B40387FFC9CF109292
:100A2000B403C6CF8C3F29F48091B4031816BCF3ED
:100A3000BFCF843F31F48091B0038E7F8093B003A9
:100A4000B7CF853F21F48091B0038D7FF7CF863FEC
:100A500021F48091B0038B7FF1CF873F21F4809107
:100A6000B003877FEBCF883F21F48091B0038F7E66
:100A7000E5CF8D3F31F480916F038E7F80936F03BC
:100A800097CF8E3F21F480916F038D7FF7CF8F3FFB
:100A900009F08ECF80916F038B7FF0CF80916F0331
:100AA00080FD1AC081FD14C082FD14C08091AC038A
:100AB000882391F08C3370F427E0829FC0011124C9
:100AC0006CE370E00E943828862F672B29F0089588
:100AD00083E0089587E0089581E0089580916F0391
:100AE00080FD16C081FD16C082FD18C08091AC0348
:100AF000882391F08C3390F423E2829FC00111246B
:100B00006CE370E00E943828862F672B49F0089527
:100B100088E0089581E1089585E0089583E20895CD
:100B200081E00895803F31F40E946E0581958093A5
:100B3000B2030895813F19F40E946E05F8CF823FF9
:100B400031F40E946E0581958093B1030895833F2F
:100B500019F40E946E05F8CF893F29F40E944E05D2
:100B60008093B30308958A3F21F40E944E05819536
:100B7000F7CF8B3F31F40E944E0581958093B403EB
:100B800008958C3F19F40E944E05F8CF843F31F44C
:100B90008091B00381608093B0030895853F21F474
:100BA0008091B0038260F7CF863F21F48091B0033B
:100BB0008460F1CF873F21F48091B0038860EBCF50
:100BC000883F21F48091B0038061E5CF8D3F31F4FF
:100BD00080916F03816080936F0308958E3F21F4AD
:100BE00080916F038260F7CF8F3FB9F780916F03D9
:100BF0008460F1CF9C014FB7F89480916B03909182
:100C00006C03A0916D03B0916E034FBF821B930BD9
:100C10000895809166038111109266030895809172
:100C2000650390916403892B90916303892B8093D2
:100C30002802909166039923A1F0892B80932802C2
:100C400080912301882341F18091880387FF24C08C
:100C50008EE1EAE2F2E090E0815000F591110E940D
:100C60000906E0918F03F09190033097E1F08091B5
:100C70002301882359F08091880387FF07C0809162
:100C800028028093290285E0809328020280F38164
:100C9000E02D88E292E0099486E0DBCF21912223C7
:100CA000D9F29F5FD9CF0895909123019923D1F074
:100CB0009091880397FF16C0E82FE695E695E69594
:100CC000EE31E0F4F0E0E85DFD4F282F277081E081
:100CD00090E001C0880F2A95EAF7809592818923D8
:100CE00082830895EAE2F2E09191891303C0DF0163
:100CF00011971C9292E0E033F907B1F708959091B3
:100D000023019923C1F09091880397FF14C0E82F25
:100D1000E695E695E695EE31F8F4F0E0E85DFD4FF6
:100D2000877021E030E001C0220F8A95EAF78281C6
:100D3000822B82830895AAE2B2E0EFEF90E02D913A
:100D4000821751F0EF3F19F4211101C0E92F9F5F85
:100D50009630A9F7EF3F09F408950E2E000CFF0B13
:100D6000E85DFD4FE6CFE92FEE0FE90FEE0F8E0F96
:100D7000982F977086958695869525E0829FF0013D
:100D80001124E55DFC4F50E040E080E0219130E02F
:100D9000092E02C0369527950A94E2F72170332771
:100DA000042E01C0220F0A94EAF7822B4F5F5F4F97
:100DB0004530510559F70895E92FEE0FE90FEE0F71
:100DC0008E0F982F977041E001C0440F9A95EAF773
:100DD00086958695869595E0899FF0011124E55DBD
:100DE000FC4F30E020E070E05191DF011197CB0122
:100DF000022E02C0969587950A94E2F7817081953C
:100E00008527842385278C932F5F3F4F253031051D
:100E100059F7089580912A039091F902981301C01F
:100E200008958F5F8770FACF882341F08095909165
:100E300064038923809364030C940F060895882328
:100E400039F090916403982B909364030C940F06EF
:100E50000895882341F080959091650389238093BC
:100E600065030C940F060895882339F0909165036B
:100E7000982B909365030C940F0608952091DD0242
:100E80003091DE022817390771F09093DE028093CB
:100E9000DD02E0918F03F0919003309721F0008400
:100EA000F185E02D099408952091DB023091DC0258
:100EB0002817390771F09093DC028093DB02E091F0
:100EC0008F03F0919003309721F00680F781E02D99
:100ED00009940895E0918F03F0919003309721F0E9
:100EE0000190F081E02D099480E00895FA018111CC
:100EF00001C0FB0109948091C603982F9E7F29F4BD
:100F0000817082608093C60308958635E8F381700E
:100F10008465F8CFAF92BF92DF92EF92FF920F936A
:100F20001F93CF93DF93082F162FE901E42FF0E0F2
:100F3000E455FF4F611111C0E4915E2F4E2F49839C
:100F4000E8835A831B82DF91CF911F910F91FF900D
:100F5000EF90DF90BF90AF900895E62EF12C449172
:100F6000D42EE42FF0E026E0829FC00111242FEF61
:100F700030E0B9010E942428802F90E0880F991F4B
:100F800055E5569FD001579FB00D11248A1B9B0B2E
:100F9000982F990F890F5901AE18BF08AE9ED00146
:100FA000AF9EB00DBE9EB00D11245B2F189F800127
:100FB0001124012F11275901A01AB10AAE9E8001F8
:100FC000AF9E100DBE9E100D11245901A81AB10834
:100FD000AE9CC001AF9C900DBE9C900D1124892F3A
:100FE0009927281B390B2E9FC0012F9F900D3E9FE4
:100FF000900D1124E92F62307105A1F050F46115B4
:10100000710509F49CCF6130710581F0EB2F512FF0
:1010100096CF6430710569F080F06630710509F48F
:101020008ECFF4CFE42F4B2F592F89CFE42F412FB0
:1010300086CFEB2F542F492F82CF4B2F5D2DE12FE1
:101040007ECF9091880392FF06C0282F2871283008
:10105000F9F4877F846093FF06C0282F2871283118
:10106000F1F4877E84612091890320FF06C0382F28
:1010700038713830D9F4877F816021FF06C0282F6E
:1010800028712831D1F4877E816194FD877E08958F
:10109000282F24712430F9F68B7F8860DCCF282F2D
:1010A0002471243101F78B7E8861DDCF382F3171B7
:1010B000313019F78E7F8860E0CF282F21712131E0
:1010C00021F78E7E8861E1CFCF93DF93972F70E079
:1010D00026E0929F600D711D1124FB0134E5839F72
:1010E000E00DF11D1124EE0FFF1FEF54FD4FC591D0
:1010F000D491CE01C238D105B9F1E8F5C133D1059B
:1011000009F499C050F5C932D10509F48DC0CA322D
:10111000D10509F497C0C11542E5D40708F0C4C051
:10112000C11521E5D20708F038C1C83ED10508F045
:101130009DC0C03ED10568F5C83AD10508F089C008
:10114000C53AD10508F005C1C130D10511F120978C
:1011500009F443C02497E8F440C0C533D10509F42D
:101160005CC0C933D105B9F620918803237089F09A
:1011700080EE90E00EC0C33ED10591F168F4C03E10
:10118000D105F9F0C23ED10531F62091880322FD48
:1011900020C0DF91CF910895C63ED10561F1C73ED1
:1011A000D10581F1C43ED10509F0B5CF2091890365
:1011B00021FFEFCF8091880384FD0FC087EE90E080
:1011C000E8CF2091880320FD19C13091890330FFB9
:1011D000E0CF83EE90E024FFDCCF90E080E0D9CF39
:1011E0002091880322FD0DC13091890330FDC0CFCD
:1011F00024FFCFCFF2CF2091880323FFCACF24FD55
:10120000ECCFDCCF2091880323FDFEC03091890311
:1012100031FFEECF84EE90E0BCCF2091880325FF14
:10122000B8CF89E290E0B5CF2091880325FFB1CFF8
:1012300085E390E0AECF2091880326FFAACF8AE213
:1012400090E0A7CF2091880326FFA3CF81E390E011
:10125000A0CFCF3BD10508F6C85AD0E0CC0FDD1F98
:10126000C650DE4F88819981946493CFC11530E2D6
:10127000D30760F4C11541E0D40708F08ACFCE014E
:101280009065C03FD10508F084CFA7CFC11580E499
:10129000D80708F4A2CFC11590E5D90708F061C0BE
:1012A000CE019F70906A75CFC11526E5D20718F55B
:1012B000C11535E5D30708F086C0C11544E5D4074C
:1012C00008F07CC09C2F96959695AE0143705527EB
:1012D000C115D34508F466C021E030E002C0220FFA
:1012E000331F4A95E2F740E2949FC0011124822BFC
:1012F000932B9A684ECFC1159AE5D90778F4C1159A
:1013000029E5D20708F069C0C11538E5D30708F40C
:1013100064CF9C2F8827806F906A3BCFC1154BE527
:10132000D40708F45ACFC1158CE5D80708F462C079
:10133000CE0190568115904208F04FCF8D2F8F71BE
:101340000E94210890E0982F882788279F718C2B76
:1013500042C0C55AD0E0C950DE4F888190E0906409
:1013600018CF9E01E4E036952795EA95E1F72370C2
:101370008C2F86958695837030E2839FC00111245F
:10138000922BC37021E030E002C0220F331FCA95B8
:10139000E2F7822B932B9C68FCCE9C2F8827816FD1
:1013A000906AF7CE21E030E002C0220F331F4A9549
:1013B000E2F740E2949FC0011124EBCF9C2F8827D5
:1013C000846F906AE6CE8C2F0E94210890E0982FBF
:1013D000882788279F719062DCCE8C2F8F700E94A7
:1013E000210834E0D695C7953A95E1F7CF709C2F48
:1013F0009069CFCECE0199279066CBCE89E390E05D
:10140000C8CE82EE90E0C5CE86EE90E0C2CEBF920E
:10141000CF92DF92EF92FF920F931F93CF93DF93C0
:101420008C01C0908B03D0908C03E0908D03F090E2
:101430008E038091670390916803A0916903B09136
:101440006A03C82AD92AEA2AFB2ACFE1D0E0BC2EB7
:10145000D701C6010C2E04C0B695A7959795879520
:101460000A94D2F780FD0EC0219788F7B12C8B2DFE
:10147000DF91CF911F910F91FF90EF90DF90CF9070
:10148000BF900895B8018C2F0E946408019761F302
:10149000EECFCF93DF93EC010E94070ABE01DF91EC
:1014A000CF910C9464080E94490A292F2F709295BD
:1014B0009F7092509E3078F4E92FF0E0ED56F54D94
:1014C0000C944C28803F19F020F4883E20F481E0F1
:1014D0000895843FE1F380E00895883EC0F3813FA2
:1014E000D1F7F5CF822F8695869586950895279812
:1014F0002F98089526982E98089525982D98089548
:1015000056985E980895279A2F9A0895269A2E9AAB
:101510000895259A2D9A0895CF92DF92EF92FF9227
:10152000CF936B017C01C701AA27BB27C0E10097BD
:10153000A105B10519F4D701CB01C0E0492F5A2FFD
:101540006B2F7727411551056105710519F0C85FAB
:10155000DB01CA01AC01BD01E4E0769567955795C2
:101560004795EA95D1F7411551056105710519F0C7
:10157000CC5FDB01CA01AC01BD0132E07695679515
:10158000579547953A95D1F7411551056105710574
:1015900019F0CE5FDB01CA01B695A795979587959F
:1015A000892B8A2B8B2B09F0CF5F0E94800A0E9427
:1015B0007D0A0E947A0A0E94770AC150C73040F41F
:1015C000EC2FF0E0EF55F54D0C944C280E94890A61
:1015D000C701B601CF91FF90EF90DF90CF900895B3
:1015E0000E94890A0E94860AF3CF0E94890A0E94FB
:1015F000830AEECF0E94890A0E94860AF8CF84B13E
:10160000807F84B985B1807F85B98AB1837F8AB9AB
:101610008BB1837F8BB93E984698089580B38C70C8
:1016200080BB81B3836F81BB0895CF93DF9300D0DC
:101630000F92CDB7DEB79091F103943019F58983FD
:101640007B836A8382E08093E9008FEF9091E800CA
:10165000815095FD06C095ED9A95F1F70000811136
:10166000F5CF8091E80085FF0DC050E040E063E0D9
:1016700070E0CE0101960E9489038091E8008E7788
:101680008093E8000F900F900F90DF91CF91089515
:10169000CF93DF93EC010E94C304823011F08430B9
:1016A00031F4BE0184E0DF91CF910C94150BDF91F2
:1016B000CF910895BC0183E00C94150BCF93DF9379
:1016C000EC010E94C304823011F08430F9F482E00E
:1016D0008093E9008FEF9091E800815095FD06C05E
:1016E00095ED9A95F1F700008111F5CF8091E80012
:1016F00085FF0CC050E040E066E070E0CE010E9443
:1017000089038091E8008E778093E800DF91CF9184
:101710000895CF93DF93EC010E94C304823011F04F
:101720008430B9F5809123018823B1F18091880339
:1017300087FF32C060E282E08093E9008FEF9091F2
:10174000E800815095FD06C095ED9A95F1F70000EF
:101750008111F5CF8091E80085FF1BC080912301A6
:1017600070E050E040E0811104C050E040E068E0EB
:1017700070E0CE010E9489038091E8008E7780930B
:10178000E80080E2FE01AFECB3E001900D928A9593
:10179000E1F7DF91CF91089568E081E0CDCFEF923E
:1017A000FF920F931F93CF93DF930E94800A0E94B2
:1017B0007D0A0E947A0A0E94770A88E8E82EF12CB6
:1017C0008FEF90E0F701918380830AE810E0F80141
:1017D00091838083CCE8D0E0998388830E94890A32
:1017E000FFEF20E782E0F15020408040E1F700C0A9
:1017F00000000E94860A9FEFE0E7F2E09150E0408F
:10180000F040E1F700C000000E94830A2FEF80E75C
:1018100092E0215080409040E1F700C000000E941B
:101820007D0AEFEFF0E722E0E150F0402040E1F7E1
:1018300000C000000E947A0A8FEF90E7E2E081503A
:101840009040E040E1F700C000000E94770A8091DC
:1018500076038770FFEF8F9FC001112495958795C0
:10186000959587959927F70191838083F801918356
:101870008083998388830E94800A0E947D0A0E9447
:101880007A0ADF91CF911F910F91FF90EF900C9406
:10189000770ACF9384E090E00E94E629C82F81E286
:1018A00090E00E94E629982F8C2FCF910895CF9237
:1018B000DF92EF92FF926B017C010E947B07B701E0
:1018C000A60188E090E0FF90EF90DF90CF900C941D
:1018D0000C2A8091CA03833018F48F5F8093CA0367
:1018E0006091C6037091C7038091C8039091C903AA
:1018F0000C94570C8091CA03882319F0815080936F
:10190000CA036091C6037091C7038091C803909188
:10191000C9030C94570CE6ECF3E083E0808311825A
:101920008FEF8283838314826081718182819381AE
:101930000C94570C6FEE7EEF90E080E00E94182A26
:1019400060E082E090E00E94FA2960E083E090E0AD
:101950000E94FA291092670310926803109269039B
:1019600010926A0360E084E090E00E94FA2960E04F
:1019700081E290E00E94FA2960E085E090E00E9418
:10198000FA2960E086E090E00E94FA296FEF87E094
:1019900090E00E94FA2940E050E0BA0188E090E02F
:1019A0000E940C2A60E08DE090E00E94FA2940E05D
:1019B00050E0BA0188E190E00E940C2A60E087E1E3
:1019C00090E00E94FA2940E050E0BA018CE190E0FA
:1019D0000E940C2A60E080E290E00E94FA291092B6
:1019E000760310927703109278031092790384E0C3
:1019F00080618093760340917603509177036091E4
:101A00007803709179038FE090E00E940C2A40E007
:101A100050E0BA0183E190E00C940C2ACF93C82FD8
:101A2000873070F58091170190911801892B89F505
:101A300064E670E080E40E94572790931801809339
:101A40001701892BD1F464E670E082E10E94B3278C
:101A50009093180180931701892B79F481E090E02D
:101A600001C0880FCA95EAF764E670E080950E948D
:101A7000B3279093180180931701CF910C940628F7
:101A80008A30B9F040F4883071F0893079F0209ACA
:101A90002898CF9108958C3091F070F08D30B9F77F
:101AA0003E9A4698F6CF219A2998F3CF229A2A98FF
:101AB000F0CF239A2B98EDCF529A5A98EACF539AA7
:101AC0005B98E7CFCF93DF938091C60380FD0BC077
:101AD000E2E5F2E01182108212821382349652E023
:101AE000EE38F507B9F7C2E5D2E0FE019281208118
:101AF0003181892F291708F4822F381708F4832F92
:101B00008383381B3183281B2083981B9283349650
:101B100082E0EE38F80751F70E94512764E670E042
:101B200084E80E94572764E670E088810E94B3270A
:101B300064E670E089810E94B32764E670E08A81E0
:101B40000E94B32764E670E08B810E94B32724963D
:101B500092E0CE38D90739F70E940628579A3BB150
:101B60003F772BB120684FB7F89482E592E0FC01F3
:101B70005191CF0168E02BB9000000C057FF3BB97D
:101B8000550F000000C000C000C03BB900C06A95FE
:101B900091F7F2E08E389F0751F74FBF8FE594E041
:101BA0000197F1F700C00000DF91CF9108958F9267
:101BB0009F92AF92BF92CF92DF92EF92FF920F93DC
:101BC0001F93CF93DF93FC01B280948081E08483E4
:101BD000CEE8D2E002E512E08BE4A82E88248394BC
:101BE000EE24EA94F12C2BE4C22ED12C91101DC0CE
:101BF0001B821A8298014A81698188810E948A0722
:101C000025960C5F1F4F82E0C93DD80779F7DF9119
:101C1000CF911F910F91FF90EF90DF90CF90BF90E9
:101C2000AF909F908F900C94620D2B81222309F12D
:101C300021502B833C818A2D821B311101C0822FC0
:101C40009091C903899FC0011124B6010E942428E4
:101C50006A83211104C0332311F01C82AB8222E07D
:101C60002B1540F28091C70388838091C803898334
:101C7000C1CF0E949E28823091400CF0BBCF82E001
:101C80008B15C0F40E949E28B7010E9438288883D3
:101C900022E02B1590F40E949E282091C8032695DF
:101CA000622F70E00E943828280F29831A82AB82A5
:101CB0008C82A0CF8091C703EACF2091C803F5CFD3
:101CC000EF92FF921F93CF93DF93EC0182E5E82E12
:101CD00082E0F82E10E08C8197014091C903609159
:101CE000C803810F0E948A071F5E84E0E80EF11C82
:101CF0001F3F89F70E94620D9A818C8190FF08C076
:101D00008F5F8C83DF91CF911F91FF90EF900895AB
:101D10008150F7CFBF92CF92DF92EF92FF920F9355
:101D20001F93CF93DF93FC018281DD24DA9480FD41
:101D300002C0DD24D39402E512E0D0E0C0E02FE041
:101D4000B22EF801118210821282138294E0E92EE1
:101D5000F12CC12C80914F028C0D80310CF43DC0D0
:101D60006B2D0E941628892F082E000C990B8C17BA
:101D70009D0791F48091C9038E9DA0018F9D500D08
:101D80001124559547955595479598016091C8033D
:101D90008091C7030E948A07CD0CF1E0EF1AF10889
:101DA000C9F621960C5F1F4FCF30D10551F60E9426
:101DB000620D80914F0291E0D91215C0811111C0BE
:101DC0008EE080934F02DF91CF911F910F91FF9092
:101DD000EF90DF90CF90BF90089587FFC5CF815FD0
:101DE000C3CF8150EECF90E00196BE010E9438280B
:101DF000E8CF0F931F93CF93DF93C2E5D2E0FE01AC
:101E00001182108212821382349682E0EE38F80733
:101E1000B9F710E000E080915002082E000C990BF9
:101E2000081719078CF180911601082E000C990BE8
:101E3000801791074CF19E014091C9036091C8033E
:101E40008091C7030E948A070F5F1F4F24960F30AF
:101E5000110509F70E94620D8091150190915002C1
:101E6000980F9093500220911601280F209316018D
:101E7000121614F49E301CF0819580931501DF91A9
:101E8000CF911F910F910895198218821A821B8297
:101E9000DBCFEF92FF920F931F93CF93DF93EC0171
:101EA0008C819D810196817099279D838C8382E529
:101EB000E82E82E0F82E10E005E5812F86952C8132
:101EC0003D81820F932F911D817097014091C9032D
:101ED0006091C803809F802D11240E948A071F5F94
:101EE00084E0E80EF11C1F3041F7DF91CF911F9184
:101EF0000F91FF90EF900C94620DEF92FF920F9371
:101F00001F93CF93DF938C01C2E5D2E0F12CE12C3B
:101F1000F80194816091C8038091C703F7E0EF1640
:101F2000F104FCF49923F9F09E014091C9030E9449
:101F30008A072FEFE21AF20A24968FE0E816F104DE
:101F400039F70E94620DF801848190E0019681705A
:101F500099278483DF91CF911F910F91FF90EF908C
:101F60000895992309F39E0140E0E1CF9091C603C3
:101F700090FF0DC0E2E5F2E081836083428313822B
:101F8000349692E0EE38F907B9F70C94620D089593
:101F90000F931F93CF93DF9300D000D0CDB7DEB760
:101FA0008C018091510281110AC09E012F5F3F4F29
:101FB0004FEF6FEF0E948A078A8180935102F801E8
:101FC0006481613069F08091510240E0662361F0E4
:101FD00040E0623011F44091510280E060E004C0C2
:101FE0006091510240E080E00E94B60FF8018481C8
:101FF00090E0019663E070E00E94382884830F909F
:102000000F900F900F90DF91CF911F910F91089536
:10201000CF93DF9300D000D0CDB7DEB79091C60349
:1020200090FF0AC09E012F5F3F4F0E948A074B819D
:1020300069818A810E94B60F0F900F900F900F90C8
:10204000DF91CF910895CF93DF93EC01EC81F0E025
:10205000EF54FE4F4491E6ECF3E0628181810E94EF
:1020600008108C818F5F8C83DF91CF910895CF937F
:10207000DF93EC01E6ECF3E0438162818C810E9406
:1020800008108C818F5F8C83DF91CF9108955F92D0
:102090006F927F928F929F92AF92BF92CF92DF9278
:1020A000EF92FF920F931F93CF93DF9300D000D056
:1020B000CDB7DEB7182F762E042F622E9091C6036F
:1020C00090FF29C0E92FE695AE2FB0E0AC5DBE4F82
:1020D0008C918093A6039E7F923089F59E012F5F9D
:1020E0003F4F812F0E948A074B8169818A810E941C
:1020F000B60F1093C7037092C8030093C9036620FC
:1021000051F06091C6037091C7038091C80390910C
:10211000C9030E94570C0F900F900F900F90DF9102
:10212000CF911F910F91FF90EF90DF90CF90BF90D4
:10213000AF909F908F907F906F905F9008958230C6
:1021400019F40091C903D5CF863019F41091C70353
:10215000D0CF8930D9F3893161F6E9518E2F817062
:10216000582EE695F0E0E455FE4FA590B490BB24C0
:1021700082E5E82E82E0F82ED12CC12C9FE0892E3A
:10218000912CC601B4010E942428812F511013C044
:10219000860F9701402F672D0E948A07CA0CDB1C0F
:1021A00084E0E80EF11C8EE8E81682E0F80649F7B4
:1021B0000E94620D9ECF861BECCFE6ECF3E04381DC
:1021C0002CE0421B08F440E021E0628181810C9404
:1021D0004710E6ECF3E043812CE0420F08F44FEFA8
:1021E00021E0628181810C944710E6ECF3E062818A
:1021F0002FEF621B08F460E021E0438181810C94A1
:102200004710E6ECF3E062812FEF620F08F46FEF06
:1022100021E0438181810C944710E6ECF3E0818159
:1022200021E0438162818C500C944710E6ECF3E08E
:10223000818121E043816281845F0C94471080E2B8
:1022400090E0909318018093170180914E028111C4
:102250000EC00E94512781E080934E022FEF83ED44
:1022600090E3215080409040E1F700C0000064E618
:1022700070E080E40E945727909318018093170123
:10228000892B09F04EC064E670E080E00E94B3271D
:102290009093180180931701892B09F042C064E6DE
:1022A00070E080E00E94B32790931801809317019B
:1022B000892BB9F564E670E08FE30E94B327909311
:1022C000180180931701892B61F50E94062864E6A6
:1022D00070E080E40E9457279093180180931701C3
:1022E000892BF9F464E670E08CE00E94B3279093A8
:1022F000180180931701892BA1F464E670E080E057
:102300000E94B3279093180180931701892B49F4F9
:1023100064E670E08FE30E94B327909318018093E6
:1023200017010E940628809117010895CF938730E6
:1023300008F040C08091170190911801C0E0892BEE
:1023400071F464E670E080E40E94572790931801CE
:1023500080931701892B31F0C0E00E9406288C2F52
:10236000CF91089564E670E083E10E94B3279093D3
:10237000180180931701892B79F764E670E081E4F6
:102380000E9457279093180180931701892B21F7FA
:1023900084E690E00E94E22797FF05C09093180121
:1023A00080931701D9CFC82FC095109218011092B1
:1023B0001701D3CFCFB18FB1869586958C73C3703B
:1023C0008C2BC82FC095CBCF78941F921FB61F922D
:1023D00011248F939F93AF93BF9380916B03909140
:1023E0006C03A0916D03B0916E030196A11DB11D08
:1023F00080936B0390936C03A0936D03B0936E0373
:10240000BF91AF919F918F911F901FBE1F90189504
:102410002FB7F89480916B0390916C03A0916D039A
:10242000B0916E032FBF0895E0918F03F091900358
:10243000309749F082E08093AF030480F581E02D6E
:102440008FEA93E009950E9408129093AB03809362
:10245000AA03089510926403109263030E940F066A
:1024600086E0EFEAF3E0DF011D928A95E9F710922A
:10247000AC0310926F030E94141290E080E00E945F
:10248000540790E080E00C943E070E948C0A609311
:102490008B0370938C0380938D0390938E030C9425
:1024A0002A120F931F9341E050E060E070E004C0F7
:1024B000440F551F661F771F8A95D2F7CB01BA01CB
:1024C000609570958095909500918B0310918C0389
:1024D00020918D0330918E036023712382239323F7
:1024E0001F910F910C94451290916203809589235E
:1024F00080936203282F277071F4282F082E000C78
:10250000330B9217130639F08595859585950E94B2
:1025100051121092620308950F931F9341E050E00F
:1025200060E070E004C0440F551F661F771F8A9556
:10253000D2F780918B0390918C03A0918D03B09181
:102540008E038A019B01082B192B2A2B3B2BC901D7
:10255000B8011F910F910C9445126093670370931B
:1025600068038093690390936A030C942A12109273
:10257000650380912301EAE2F2E0882359F080911B
:10258000880387FF07C08EE1DF011D928A95E9F776
:102590000C942A1286E0F8CF1F93CF93DF93CDB728
:1025A000DEB7AA970FB6F894DEBF0FBECDBF83EF9C
:1025B00093E02091F100FC012193CF01F3E08B3FE8
:1025C0009F07B9F78091F403833009F46FC0B8F422
:1025D000813009F446C0823009F4B0C08091E8002F
:1025E00083FF87C28091F3039091F4039A3008F03F
:1025F00080C2E92FF0E0E855F54D0C944C288A3064
:1026000009F48BC08B3009F46EC0893039F78091A2
:10261000F303813219F78091F7039091F803029741
:10262000E8F68091E800877F8093E8008091E800D9
:1026300082FF37C09091F3008091F200029729F455
:102640008091F1008B7F813021F48091F1008093A3
:10265000CE038091E8008B778093E8000E94B3035B
:10266000BDCF8091F303813A09F0B8CF8091E800A3
:10267000877F8093E8008091F7039091F803892B7E
:1026800061F460E28FEC93E070E00E946504809159
:10269000E8008B778093E800A1CF60E090E080E0D5
:1026A000F3CF8091F1038111C1CF98CF8091F303D3
:1026B000813A09F093CF8091F7039091F803892B29
:1026C00009F08CCF8091E800877F8093E8008091AB
:1026D000E80080FFFCCF809123018093F10080917E
:1026E000E8008E77B9CF8091F303813209F076CF7D
:1026F0008091F7039091F803892B09F06FCF8091B7
:10270000E800877F8093E8000E94B3038091F5037F
:10271000809323010E94B71261CF8091F30381322D
:1027200009F05CCF8091E800877F8093E8000E94E9
:10273000B3038091F6038093CD0350CF8091F303D0
:10274000813A09F04BCF8091E800877F8093E800C1
:102750008091E80080FFFCCF8091CD03BECF803810
:1027600099F0823809F0C5C18091F7038F708730E6
:1027700008F0BFC18093E9008091EB0085FB8827BA
:1027800080F91092E90006C08091EF039091F00368
:10279000911182609091E800977F9093E800809378
:1027A000F1001092F1008091E8008E779EC188239D
:1027B00009F48CC1823009F09CC18091F50381112C
:1027C0008FC18091F7038F702FEF280F263008F00C
:1027D00090C18093E9002091EB0020FF81C19330EC
:1027E00031F48091EB0080628093EB0079C190918D
:1027F000EB0090619093EB0021E030E001C0220FEC
:102800008A95EAF72093EA001092EA008091EB00A3
:102810008860EACF81116DC11091F5031F77809117
:10282000E3008078812B8093E3008091E800877F2C
:102830008093E8000E94B3038091E80080FFFCCF02
:102840008091E30080688093E30082E0111183E0CF
:102850008093F1034EC18058823008F04AC18091C4
:10286000F5039091F6038C3D23E09207A1F583E0F8
:102870008A838AE289834FB7F894DE01139620E0B9
:102880003EE051E2E32FF0E050935700E49120FF47
:1028900003C0E295EF703F5FEF708E2F90E0EA305B
:1028A000C0F0C7968D939D932F5F243159F74FBF8A
:1028B0008091E800877F8093E8006AE270E0CE01B3
:1028C00001960E9465048091E8008B778093E80070
:1028D00010C1C096E7CF4091F7035091F803292F1C
:1028E00033272330310509F445C078F5213031050F
:1028F00009F47BC08BE390E0EAEBF5E02230310590
:1029000009F0F7C02091E800277F2093E80020918C
:10291000F9033091FA038217930708F49C0140E011
:102920002115310509F070C041116EC08091E80099
:1029300082FDC9CF8091F103882329F2853019F2F5
:102940008091E80083FFF2CFBECF2132310509F438
:1029500040C02232310509F0CCC04115510509F4BF
:102960004EC04130510509F0C4C08CEB90E0EEEB55
:10297000F4E0C8CF992781309105D9F0009771F024
:1029800082309105F1F0039709F0B3C0E7E0F6E07B
:10299000E4918E2F90E0E7E0F6E007C0EFE2F6E08A
:1029A000E4918E2F90E0EFE2F6E0009709F4A1C0E9
:1029B000A9CFE5E2F6E0E4918E2F90E0E5E2F6E0C3
:1029C000F4CFEDE0F6E0E4918E2F90E0EDE0F6E05C
:1029D000ECCF4115510571F04130510509F089C026
:1029E00089E090E0E5EEF5E08DCF82E190E0E5EF63
:1029F000F5E088CF89E090E0ECECF5E083CF80E46F
:102A000090E0EAE7F5E07ECF8091F103882309F4B6
:102A10005ACF853009F457CF8091E80083FD53CF1A
:102A20008091E80082FD82CF8091E80080FF78CF1E
:102A30009091F3008091F2002115310519F0883052
:102A4000910550F041E0089709F040E08091E800DE
:102A50008E778093E80064CF44914093F1003196E3
:102A6000215031090196E8CF803809F042C08091A9
:102A7000E800877F8093E8008091F2038093F10063
:102A800092CE811136C01091F503123090F58091ED
:102A9000E800877F8093E8001093F2030E94B3035D
:102AA000112311F084E005C08091E30087FDFACF87
:102AB00081E08093F10342E061EC81E00E94D20367
:102AC00042E261EC82E00E94D20313C08091F503E0
:102AD000813079F481E0933009F080E08093F00355
:102AE0001092E9008091E800877F8093E8000E94BF
:102AF000B3038091E80083FF0AC08091E800877FDC
:102B00008093E8008091EB0080628093EB00AA96AE
:102B10000FB6F894DEBF0FBECDBFDF91CF911F91EE
:102B200008951F920F920FB60F9211242F933F9387
:102B30004F935F936F937F938F939F93AF93BF93C5
:102B4000CF93DF93EF93FF93D091E900DF708091F3
:102B5000EC00C82FC17080FDC0E81092E9008091A0
:102B6000F000877F8093F00078940E94CC1210923E
:102B7000E9008091F00088608093F000CD2BCF7049
:102B8000C093E900FF91EF91DF91CF91BF91AF9199
:102B90009F918F917F916F915F914F913F912F9175
:102BA0000F900FBE0F901F901895882309F459C0FD
:102BB000823871F40E946A0781FF53C089E30E9442
:102BC0007F060E940F0689E30E9454060C940F06AC
:102BD000833859F40E946A0780FF43C083E50E944E
:102BE0007F060E940F0683E5EFCF843859F40E94D8
:102BF0006A0782FF36C087E40E947F060E940F06A4
:102C000087E4E2CF9CEF980F913AF0F290E2980FB0
:102C1000983088F4877021E030E0A90102C0440FA9
:102C2000551F8A95E2F7CA01809590916503892323
:102C300080936503CBCF9BE5980F933020F490E011
:102C400080E00C94540798E5980F973120F490E0B9
:102C500080E00C943E07803F20F00E94CF040C944B
:102C600014120895CF93C82F882309F4AFC0823877
:102C7000C1F40E946A0781FDA9C089E30E947F0612
:102C80000E940F062FEF81EE94E02150804090408B
:102C9000E1F700C0000089E30E945406CF910C9434
:102CA0000F068338A1F40E946A0780FD8FC083E578
:102CB0000E947F060E940F062FEF81EE94E02150C4
:102CC00080409040E1F700C0000083E5E5CF843804
:102CD000A1F40E946A0782FD79C087E40E947F0602
:102CE0000E940F062FEF81EE94E02150804090402B
:102CF000E1F700C0000087E4CFCF8CEF8C0F813A62
:102D000090F580912301882301F18091880387FF4A
:102D10001CC0EC2FE695E695E695F0E0E85DFD4FEA
:102D2000828190E04C2F477021E030E002C0220FFA
:102D3000331F4A95E2F782239323892B81F08C2F4E
:102D40000E9454060E940F060AC0EAE2F2E080E305
:102D500092E02191C21799F38E179F07D1F78C2F1C
:102D60000E947F069BCF80E28C0F883068F4C7708A
:102D700021E030E001C0220FCA95EAF78091650397
:102D8000822B809365038ACFEBE5EC0FE33040F4B0
:102D9000F0E0E950FE4F808190E0CF910C94540711
:102DA000E8E5EC0FE73150F4F0E0EE0FFF1FE650DE
:102DB000FE4F80819181CF910C943E07C03F30F04F
:102DC0008C2F0E949205CF910C941412CF910895EC
:102DD000CF93C82F0E943216C93349F42FEF87EEE4
:102DE00093E0215080409040E1F700C000008C2F1C
:102DF000CF910C94D5150F931F93CF93DF93C62FCC
:102E0000D42F022FFC0182818823A1F06093EE026F
:102E10000E9408129093DA028093D902C77081E071
:102E200001C0880FCA95EAF7DF91CF911F910F91EA
:102E30000C9434071091EE02161335C08091D9021C
:102E40009091DA020E94FA05883C910560F5C0E293
:102E5000CD0F1D17B9F080E2810F883040F4177054
:102E600081E001C0880F1A95EAF70E942907C8304F
:102E700048F481E09D2F977001C0880F9A95EAF77A
:102E80000E943407802F0E94E816C83098F4D7704B
:102E900081E001C0880FDA95EAF7DF91CF911F91A9
:102EA0000F910C942907C77081E001C0880FCA9563
:102EB000EAF7F3CFDF91CF911F910F9108956091C1
:102EC000C603669570E04BE050E08AE091E00E9416
:102ED000D929892B19F481E08093A7030E94081255
:102EE0009093A1038093A00308959091C60390FF4F
:102EF00036C09170811129C092609093C6036623F9
:102F000051F06091C6037091C7038091C8039091FE
:102F1000C9030E94570C6091C603669570E04BE0B0
:102F200050E08AE091E00E94D929892BA9F0109203
:102F3000A70381E08093A30320E04091C90360913F
:102F4000C8038091C7030C9447108B3210F094652E
:102F5000D4CF880F982BD1CF0E945F17EACF089566
:102F60001F920F920FB60F9211242F933F934F93FE
:102F70005F936F937F938F939F93AF93BF93EF93E1
:102F8000FF938091E10082FF09C08091E20082FFFF
:102F900005C08091E1008B7F8093E1008091DA0091
:102FA00080FF24C08091D80080FF20C08091DA008B
:102FB0008E7F8093DA008091D90080FFB0C080E1DD
:102FC00089BD82E189BD09B400FEFDCF81E0809317
:102FD000F1038091C503811109C00E9439030E9449
:102FE00004048091E20084608093E2008091E1001B
:102FF00080FF17C08091E20080FF13C08091E20043
:103000008E7F8093E2008091E20080618093E200F5
:103010008091D80080628093D80019BC85E08093AD
:10302000F1038091E10084FF3EC08091E20084FFC3
:103030003AC080E189BD82E189BD89B5982F917040
:1030400080FFFBCF8091D8008F7D8093D800809146
:10305000E1008F7E8093E1008091E2008F7E80937B
:10306000E2008091E20081608093E2008091F203AF
:10307000882309F45AC084E08093F1030E94B712B8
:103080000E946A071092CC038091CB03882349F0F9
:103090008091C60381608093C60360E086950E949C
:1030A00075170E945F178091E10083FF27C0809110
:1030B000E20083FF23C08091E100877F8093E100DD
:1030C00082E08093F1031092F2038091E1008E7F01
:1030D0008093E1008091E2008E7F8093E2008091F6
:1030E000E20080618093E20042E060E080E00E94C4
:1030F000D2038091F00088608093F000FF91EF91FF
:10310000BF91AF919F918F917F916F915F914F91FF
:103110003F912F910F900FBE0F901F90189519BCE3
:103120001092F1031092C50361CF8091E30087FDF7
:1031300093E09093F103A2CF61E00C947517E6EC55
:10314000F3E080818160808386950C949C18809147
:10315000C6038695815009F48AE261E00C947517E4
:103160008091C60386958F5F8B3208F081E061E025
:103170000C9475179091C60390FF07C09695981709
:1031800020F0961710F40C94B0180C949C184F92E1
:103190005F926F927F928F929F92AF92BF92CF92E7
:1031A000DF92EF92FF920F931F93CF93DF9300D0A4
:1031B00000D00F92CDB7DEB76C01FC018381948102
:1031C000892B39F01081F180812F8F218F3F09F0F9
:1031D000C2C60F900F900F900F900F90DF91CF917C
:1031E0001F910F91FF90EF90DF90CF90BF90AF9025
:1031F0009F908F907F906F905F904F9008950E9466
:10320000070A082F682F89819A810E94DC06E12F26
:10321000F0E026E0F29EE00DF11D112434E5039F5D
:10322000E00DF11D1124EE0FFF1FEF54FD4F05912E
:103230001491F60182810930FDE51F0709F09AC05B
:103240008823C9F18091760391E0980F9770887F69
:10325000953008F4892B80937603809176038770EC
:103260002FEF829FC001112495958795959587959D
:103270009927909389008093880090938B00809386
:103280008A0090938D0080938C004091760350913A
:10329000770360917803709179038FE090E00E944A
:1032A0000C2A60918B0370918C0380918D03909117
:1032B0008E030E948C0AF6018281882309F4BBC028
:1032C0009801215E3C452530310508F0B4C06FE11E
:1032D000600F609372038CE090E00E94FA29F6017F
:1032E0009281992309F45DC61092EE020230FCE54A
:1032F0001F0708F441C606312CE5120738F0980183
:103300002A5F3C452730310508F036C60E94490C3B
:1033100090938903809388030F303CE5130709F4E9
:10332000F5C108F06FC108309CE5190709F4D8C150
:1033300008F044C10430FCE51F0709F4C5C108F0DA
:103340002AC102303CE5130709F4B6C103301C451D
:1033500009F4B6C1609188031091890384E090E07C
:103360000E94FA29612F81E290E00E94FA290E94CE
:10337000B71233C00C303DE5130711F158F40B3090
:10338000EDE51E0709F097CF882339F181E00E940F
:103390009C1823C00D30FDE51F0709F440C00E3016
:1033A0002DE5120709F087CF8823B9F00E949F18F6
:1033B00081E00E949C1821E04FEF6FEF8BE10BC082
:1033C000882359F00E949F1881E00E949C1821E0F8
:1033D0004FEF6FEF8CEA0E94471080916203877075
:1033E00009F4F7CEF6018281882309F4F2CE82E057
:1033F0000F900F900F900F900F90DF91CF911F9132
:103400000F91FF90EF90DF90CF90BF90AF909F9083
:103410008F907F906F905F904F900C9474128823E0
:10342000E1F20E949F1881E00E949C1821E040E890
:103430006FEF86E5D0CF17FF74C0882309F44FCF14
:10344000809165038093ED02109265038091720371
:10345000813009F441C08823D9F1823009F449C090
:10346000843009F44DC08FE39CE90197F1F700C067
:1034700000005801E894B7F8ECE0EE2EF12C95012D
:103480000E2C02C0369527950A94E2F72F7087E23A
:1034900090E029F0822F90E02A30B8F54D960E94F6
:1034A000E81694E0E91AF108ECEFEE16EFEFFE06ED
:1034B00031F780917203813071F1882341F18230BC
:1034C00031F1843061F18091ED028093650307CF83
:1034D00082EE0E943216C7CF83E00E941F0788E168
:1034E0000E94321688E10E94D51583E00E941407DD
:1034F000BACF82EE0E94321687E50E94E816B3CF5B
:1035000086EE0E94E81688E1F8CF0697C8CF82EED3
:103510000E94D515D8CF8CE20E94E816D4CF88E25D
:10352000FBCF033FFCE51F0739F1A0F4083D3CE564
:103530001307F1F0093D8CE5180751F1073D9CE5B3
:10354000190709F0CCCE26E241EE61EEC6010E94D9
:10355000FB1643CF053FECE51E07B1F088F0063FB0
:103560002CE5120709F0BBCE27E245EE66EEEECF62
:1035700027E245EE65EEEACF26E241EE60EEE6CFC9
:1035800027E245EE64EEE2CF26E241EE62EEDECFC8
:1035900028E241E0EFCF80918803806106309CE50E
:1035A000190709F447C080918803886007301C45DB
:1035B00008F440C08091880380623CC00B30FCE579
:1035C0001F0709F49BC068F409303CE5130709F4B0
:1035D0008BC00A301C4509F0BDCE809188038C60F9
:1035E00029C0809188038B7F0D309CE5190711F16C
:1035F000809188038D7F0E301C45E0F08091880318
:10360000877F18C00A3FFCE51F0709F461C060F519
:1036100002313CE5130709F481C078F400319CE5E0
:10362000190709F477C0809188038F7B01311C450D
:1036300009F090CE809388038DCE0431FCE51F07FE
:1036400009F47AC008F470C005311C4509F082CE37
:103650008091880382FB992790F921E0922790FBC3
:1036600082F990FB83F9E6CF0D3F8CE5180709F44A
:1036700049C070F40B3FECE51E0771F1809189039E
:103680008E7F0C3F1C4509F065CE8093890362CE86
:103690000F3F2CE5120709F44BC060F101151D45E1
:1036A00009F058CE80918903982F909591708E7F64
:1036B000892B90FB81F9E9CF809188038160BACF93
:1036C000809188038260B6CF809188038460B2CFF6
:1036D000809189038160D9CF809189038260D5CFA1
:1036E000809188038064A6CF0E94B71280918803DE
:1036F0008068A0CF809189038360C7CF80918803C1
:103700008E7F98CF809189038D7FBFCF8091880372
:103710008F7E90CF809188038F7D8CCF0E94B712CF
:10372000809188038F7786CF80918803837F82CFB3
:10373000809189038C7FA9CF0E94B7129091880352
:10374000892F97FB87F9805875CF85E325C485E3DA
:1037500031C4992309F485C0809165038272F80110
:10376000E25CFC45E431F10508F072C0EE54F54D21
:103770000C944C288091C60380FF1BC08E7F8093E1
:10378000C6036091C6037091C7038091C8039091EE
:10379000C9030E94570C1092A7039FEFE0E7F2E0E5
:1037A0009150E040F040E1F700C000000E94620D3F
:1037B00014CE0E949F1811CE47EA58E160EB78E1E1
:1037C0000E9476070ACE40EB58E167EA78E1F8CF2D
:1037D0004DE051E166E171E1F3CF46E151E16DE089
:1037E00071E1EECF45EF50E161E071E1E9CF41E0F9
:1037F00051E165EF70E1E4CF4DED50E169EE70E12C
:10380000DFCF49EE50E16DED70E1DACF4AE75CE0E1
:1038100069E67CE0D5CF49E65CE06AE77CE0D0CFA2
:1038200065E082E00E94BA18D8CD68E086E0FACF61
:103830006EE089E0F7CF64E18FE0F4CF67E185E1E6
:10384000F1CF88E1A4CD62E289E1ECCF83E29FCDA4
:1038500001152CE5120709F44EC00E3D1C4509F474
:1038600087C0F60100811181992309F484C0C80141
:103870000E94070AF82E682FC8010E94DC06B801D2
:103880008F2D0E946408082FF92EB82EF601E580CE
:10389000E2947FE0E722128111111092640380917B
:1038A00062038770C1F01123B1F08F2D807F8034C7
:1038B00049F090E2900F983070F0803619F4F6EFEE
:1038C000BF1649F082E00E947412809162038770F3
:1038D000AA24A3948111A12C9F2C92945FE095229D
:1038E0006BE0462E491408F481C0E92DF0E0EA535C
:1038F000F54D0C944C280E94B7128FEF94E3ECE046
:1039000081509040E040E1F700C00000F89481E071
:103910008093E00080E28093D8001092C9008FE18C
:103920009EE40197F1F700C000001DBA10926800F4
:103930001CBC10BE1FBA10927A0010926E0010923A
:103940006F0010927100109272001092C9001092D4
:10395000BC0014B817B81AB81DB810BA1092BC0041
:1039600015B818B81BB81EB811BA0C94003F35CD65
:103970000E949A0C32CDC8010E94B306F82E7FCF68
:103980002F2D2F70E22E8F2D807F19F0E29440EFC3
:10399000E4221123C9F0EE2069F080E2800F883024
:1039A00010F0B1100BC080916503E82AE092650326
:1039B0000E940F06802F0E94321618C08091640367
:1039C000E82AE0926403F4CF802F0E94D515EE2000
:1039D00069F0E094005E083010F0B11057C080919B
:1039E0006503E822E09265030E940F06292D285006
:1039F000330B2430310510F40E946A07112379F04B
:103A00008F2D807F803619F436EFB31641F0809108
:103A1000F002823009F097C283E08093F002AA207E
:103A2000A9F08091620380FD11C0F6011282859594
:103A3000859585950E948C12C6010E94C7188091B9
:103A400062038595859585950E94511285E0F60162
:103A5000DE01119601900D928A95E1F789819A8194
:103A60000E94B3069A81E981F0E026E0929FE00D82
:103A7000F11D112434E5839FE00DF11D1124EE0F9B
:103A8000FF1FEF54FD4F85919491A3CB8091640368
:103A9000E822E0926403A8CF3F2D3F70832E8F2D44
:103AA000807F803219F0829430EF8322BB2041F076
:103AB00081E0B81631F1112381F1EE2049F17ACF7E
:103AC000112391F090916603892F8829E11003C09A
:103AD0000E9434078BCFE1E0EE12FACF981709F479
:103AE00085CF8093660382CFE11006C00E9409064D
:103AF000882D0E9429077ACFF1E0EF1609F476CFDE
:103B0000F5CF112339F0442443944E1408F46ECFBA
:103B1000882DDECFE1106ACFEBCFEE2049F329E309
:103B2000522EB51009C02FEF37EE83E02150304000
:103B30008040E1F700C00000802F0E94D51556CFCD
:103B40008F2D86958695837069F0813009F04ECF70
:103B5000802F9F2D9370111102C090E080E00E9491
:103B60003E0744CF802F9F2D9370111102C090E02B
:103B700080E00E9454073ACF802F112329F00E9441
:103B800092050E94141232CF0E94CF04FACF8F2DDB
:103B9000837009F067C0111129CF202F2295269537
:103BA0002770220F220F402F4F7050E070E060E02E
:103BB000022E04C0440F551F661F771F0A94D2F7C8
:103BC00080E090E0DC0104FF0FC08FE090E0A0E017
:103BD000B0E004C0880F991FAA1FBB1F2A95D2F717
:103BE00080959095A095B0952F2D269526952370BC
:103BF000223029F1D8F44090670350906803609018
:103C0000690370906A03213069F0842B952BA62BF1
:103C1000B72BBC01CD0164217521862197210E941B
:103C2000AD12E4CE44295529662977292A013B01A2
:103C3000482A592A6A2A7B2AC301B201F0CF842B71
:103C4000952BA62BB72B409067035090680360908C
:103C5000690370906A03BC01CD0164257525862532
:103C60009725DDCF8695112311F08F2D8170882344
:103C700009F4BCCE202F229526952770220F220F03
:103C8000402F4F7050E070E060E0022E04C0440FFF
:103C9000551F661F771F0A94D2F780E090E0DC0181
:103CA00004FF0FC08FE090E0A0E0B0E004C0880FF8
:103CB000991FAA1FBB1F2A95D2F780959095A095B2
:103CC000B0952F2D269526952370223029F1D8F412
:103CD00040908B0350908C0360908D0370908E0306
:103CE000213069F0842B952BA62BB72BBC01CD017D
:103CF00064217521862197210E94451277CE44299F
:103D00005529662977292A013B01482A592A6A2A16
:103D10007B2AC301B201F0CF842B952BA62BB72BA6
:103D200040908B0350908C0360908D0370908E03B5
:103D3000BC01CD016425752586259725DDCF2F2D66
:103D40002F70E22E112329F0822F0E948C12802FD7
:103D5000BFCE802F0E9429078E2D0E94511246CE81
:103D6000802F32EFB31609F452C03B1578F090EF74
:103D7000B91629F1E1EFBE1609F441C0112309F487
:103D80006AC0E11017CE8F2D8F713EC0F3EFBF16C2
:103D900009F442C094EF492EB410F0CF112309F476
:103DA0004FC00F2D0F71802F0E948C1228E0029FB0
:103DB000C0011124836080936203802F25C01123EA
:103DC000C1F0E11013CE2F2D2F7161E070E080E083
:103DD00090E004C0660F771F881F991F2A95D2F7BD
:103DE00040908B0350908C0360908D0370908E03F5
:103DF000A1CF552453945E1408F4F8CDE4CF8F2D51
:103E00008F71112309F4A9CF0E948C12EFCD8F2D51
:103E10008F711123C9F3A1CF60E070E0CB011123B2
:103E200009F46ACF2F2D2F7161E070E080E090E0FF
:103E300004C0660F771F881F991F2A95D2F75CCFA1
:103E400081E00E94741231E03E1508F0CFCD82E08F
:103E50000E947412CBCDEE2059F0893309F06CCE5C
:103E60008FEF97EEE3E081509040E040E1F762CEC3
:103E70008F2D8F7172CFE0E1E00FE73008F03EC088
:103E8000F0E0EE52F54D0C944C28112309F4AECD20
:103E90008091F20291E089278093F202A7CD1093DE
:103EA000F202A4CD81E08127F7CF11119FCD81E0EF
:103EB000F3CF11119BCD1092F20298CD112321F076
:103EC00082E08093F002F3CF8091F002823021F4FF
:103ED00081E08093F0028ACD833009F087CD109283
:103EE000F002E9CF112339F08091F102882381F2A9
:103EF0001092F1027BCDEE2059F278CD8091F10243
:103F0000EE20A9F0882341F08091F20291E0892708
:103F10008093F2021092F102802F11114CCD0E9479
:103F2000D51586E0F60111928A95E9F75FCD8823D1
:103F300009F45CCD11115ACD8091F20291E08927EC
:103F40008093F202D5CF813009F069CD1092F00252
:103F50001092F20264CD85E0DE01119601900D927F
:103F60008A95E1F7F601228189819A81211147C959
:103F70000E94B306082F4BC90631FCE51F0709F064
:103F8000E8CB809165038A7A91E009F490E0909300
:103F9000EF028111DACB89E20E947F060E940F06B0
:103FA0001CCA06311C4509F05CCC8091EF028111DE
:103FB000CECB89E20E945406F1CF1F93CF93DF93BB
:103FC0008091F802807FA9F48091F502882389F01E
:103FD00080912A03D091F9026091F3027091F4026A
:103FE000A091F602B091F702C62FC72316E0D813AE
:103FF00004C0DF91CF911F91089590E0109711F0C8
:10400000CF3F19F401968770F2CF189F9001199F46
:10401000300D1124F901E650FD4F41814713F2CFD5
:1040200040814613EFCF42814111ECCF438154814F
:104030004A1B5B0B483C510528F78091F8028F70B2
:1040400080618093F802F901E150FD4F80818F700B
:104050008061808383EF92E00E94C718DF91CF9147
:104060001F910C940A07AF92BF92CF92DF92EF920A
:10407000FF920F931F93CF93DF93CDB7DEB7619776
:104080000FB6F894DEBF0FBECDBF8C0185E0F801FE
:10409000DE011D9601900D928A95E1F7F80180816D
:1040A0009181E28023EFA22E22E0B22E6091F602EF
:1040B0007091F7026115710509F43EC13091F30268
:1040C0004091F402232F24232F3F09F435C1C380EC
:1040D000D480F090F502F601E61BF70BFF2009F4FF
:1040E000FBC02091F802522F507FE83CF10508F008
:1040F000BBC0511178C0FE2C491321C038131FC01A
:10410000E1101DC02F7020612093F802C5010E94AC
:10411000C7188091F802F80185838F2D61960FB63C
:10412000F894DEBF0FBECDBFDF91CF911F910F91ED
:10413000FF90EF90DF90CF90BF90AF900895CD2883
:1041400029F0282F29232F3F09F022C120E0F22F48
:10415000F170DF2E20FF3DC020912A034091F9022B
:1041600056E0241315C08D879E878D859E850E94FD
:10417000490A292F22952F702230F8F0243020F59B
:104180009F70F9F0F8019581907FD9F4D12C1FC070
:1041900030E0529FF001539FF00D1124E650FD4F87
:1041A0006181961306C06081861303C06281E612A6
:1041B00010C02F5F3F4F2770D4CF9F7011F088231E
:1041C00029F3805E883010F3C8010E94C718FD2CC7
:1041D000A4CFEE2009F4A1CF8091F80281608093F2
:1041E000F802F12C9ACF491312C0381310C0E11015
:1041F0000EC0F8012583C8010E94C71886E0F801A7
:10420000A3EFB2E001900D928A95E1F786CF8D87FA
:104210009E878D859E850E94530A882309F1EE2092
:10422000F9F08091F802803270F02091F302309121
:10423000F40238872F831986DB86CA868C87CE01E5
:1042400007960E94C71886E0F801A3EFB2E001903C
:104250000D928A95E1F70E94DD1FFF24F3945DCF54
:10426000C8010E94C718F9CF51110AC083EF92E02C
:104270000E94C71886E0F50111928A95E9F7B1CF3F
:1042800049130FC038130DC0E1100BC0F80125838E
:10429000C8010E94C71886E0F50111928A95E9F7D6
:1042A0003CCF8D879E878D859E850E94530A8823EB
:1042B000B9F2EE20A9F28091F802803220F220912A
:1042C000F3023091F4023A8329831B82DD82CC828F
:1042D0008E83CE010196B5CFE83CF105E0F6FE2CC9
:1042E000EE2009F4BDCF491316C0381314C08091D5
:1042F000F80280FD83CF982F907F09F47FCFF801DB
:104300008583903F09F477CF982F907F905F8F70CF
:10431000892B858370CF8D879E878D859E850E9492
:10432000530A811190CF8091F80281608093F80246
:10433000C8010E94C718F1CEEE2009F491CF8D87F5
:104340009E878D859E850E94530AF82E882309F446
:1043500087CF86E0F801A3EFB2E001900D928A9535
:10436000E1F78091F3029091F4020E94490A92953C
:104370009F70963051F4863F41F08091F20291E0B7
:1043800089278093F2029093F1020E94DD1FC5CE2F
:1043900021E02E25DCCE1F93CF93DF93CDB7DEB780
:1043A00067970FB6F894DEBF0FBECDBF6D8B7E8BC7
:1043B0008F8B8E899F89892BE1F0852F84238F3FF6
:1043C00009F098C05FEF4FEF14C03091F202332331
:1043D00009F44EC0E42FF0E036E0539FE00DF11DEC
:1043E0001124EE0FFF1FE15BFE4F40815181822BB4
:1043F0008C931A8A198A4B8B5C8B85E0FE0173962D
:10440000DE011D9601900D928A95E1F786E0FE018E
:104410003D96DE01179601900D928A95E1F7CE0147
:1044200007960E943320811112C086E0FE01379664
:10443000DE01119601900D928A95E1F78A859B85A0
:10444000892B29F08F81988589238F3FC9F516E044
:1044500080912A039091F902891320C067960FB6C4
:10446000F894DEBF0FBECDBFDF91CF911F910895AD
:1044700080958223BDCF96E0929FD001939FB00D8F
:104480001124A650BD4FFE01319601900D929A95D0
:10449000E1F78093F9020E940A07D9CF819FC001FA
:1044A000112486509D4F0E9433208823B9F28091B9
:1044B0002A0390E001968770992780932A03C8CF3A
:1044C0002091F90230E0C901019687709927409147
:1044D0002A034817190679F60E94B7121092F902BA
:1044E00010922A0386E0E3EFF2E0DF011D928A9545
:1044F000E9F7ADCF81E090E0042E01C0880F0A9467
:10450000EAF7A52FB0E0A152BD4F2C913D893111A2
:104510005CCF322F38235BCF8F929F92BF92CF9286
:10452000DF92EF92FF920F931F93CF93DF938091CF
:10453000170190911801892B91F080914D028F5FA6
:1045400080934D0281110BC00E941F1190E0909347
:10455000180180931701892B11F40E94CF0B2AE7D1
:10456000822E23E0922E740100E010E097E0C92E25
:10457000C00E802F0E940E0D8C2D0E940E0D802FDC
:104580000E949611E70199917E01D12C891729F09B
:10459000FE0131978083DD24D3948C2D0E949611E7
:1045A000F7019681891709F47BC0868381E08D2904
:1045B000182B0E94FF0A0F5F0730C1F60E940812F5
:1045C0006091490270914A0290934A028093490295
:1045D0002091480230E0261B370B820F931F6BEFB0
:1045E00070E00E942428E82E392F082F809348027B
:1045F000F0904C02FF2009F45FC010924C02E09151
:104600007003F0917103AF01425F5F4F20E08BEFC9
:10461000B82E6BEF70E0A191AB3F99F0CA2ED12C70
:104620008E2D932F0A17F0F18C199D09092E000C7D
:10463000AA0BBB0B4E97A105B105D0F1DF01119775
:10464000BC924E175F0739F720934C02111102C03C
:10465000211134C010924B02A0917003B0917103EC
:1046600090914C02E2E9F3E040EA53E080E03191BE
:10467000E40129914E01321751F03C913B3FD1F4B6
:104680000C93BF0161507109EB01288391E01196F1
:104690004E175F0761F790934C0280934B0212C054
:1046A00080E085CFDB01AC19BD098A0F9B1FBECF0F
:1046B0002F2DC7CF81E0EBCF1111CCCF80914B02D2
:1046C0008111C8CF812FDF91CF911F910F91FF9062
:1046D000EF90DF90CF90BF909F908F900895CDB7CF
:1046E000DEB760970FB6F894DEBF0FBECDBF84B7BC
:1046F000877F84BF0FB6F894A89580916000886189
:1047000080936000109260000FBE80E890E00FB6CA
:10471000F89480936100909361000FBE85B7806824
:1047200085BF85B7806885BF0E9439030E94040455
:104730008091E20084608093E20078948091F1039C
:104740008823A1F01091E9001F709091EC00892F4F
:10475000817090FD80E8182B1092E9008091E800AC
:1047600083FD0E94CC121F701093E90082E084BD8B
:1047700093E095BD9AEF97BD80936E000E941F1144
:1047800090E090931801809317010E94FF0A0E9405
:104790000E0BAAE7B3E010EAE12E13E0F12EE2E9F6
:1047A000F3E011921D92EE16FF06D9F78EE090E02D
:1047B0000E94AE288093700390937103FC010E96C3
:1047C0002BEF2193E817F907E1F790E080E00E94D2
:1047D000F4298F3E9E4F11F00E949A0C8CE090E0DD
:1047E0000E94E62990E0B0E0A0E0809372039093ED
:1047F0007303A0937403B093750389EA80938000D8
:1048000089E08093810024982C983F988AB18F7C0E
:104810008AB96E98479A8BB180638BB9769A8FE08C
:1048200090E00E94EE296093760370937703809363
:1048300078039093790367704FEF649FB001112460
:10484000759567957595679577277093890060933F
:10485000880070938B0060938A0070938D00609342
:104860008C000E94CF0B90E080E00E94F4298F3EE4
:104870009E4F11F00E949A0C82E090E00E94E6297F
:104880008093B6030E94490C909389038093880318
:1048900083E090E00E94E629682F70E090E080E0DD
:1048A0000E94AD1280918A03811136C090E080E0B1
:1048B0000E94F4298F3E9E4F21F00E949A0C0E9484
:1048C0008B0C88E090E00E94EE296093C603709301
:1048D000C7038093C8039093C9036E7F71F40E944D
:1048E0008B0C88E090E00E94EE296093C6037093E1
:1048F000C7038093C8039093C9030E947B0710925B
:10490000A7038091C60380FF04C060E086950E94E3
:10491000751781E080938A0360918B0370918C03FB
:1049200080918D0390918E030E948C0A89E191E021
:104930009093900380938F03ACEACA2EA4E0DA2E02
:104940008091F103853009F468C10E948C22E7EB65
:10495000F3E0A2E9B3E010E000E0302F8D91219167
:10496000281709F4C7C190E0BB24B3942827422F2D
:104970004B2109F4BAC19F8338878B2191E009F458
:1049800090E099870E9408128160782F9B878A8720
:104990004F81588569858B850E94CB21F801E954A8
:1049A000FC4F8081B826B0828091A703882309F448
:1049B00041C08091A603E091C603E695E81BE09311
:1049C000A203823009F0ADC1F0E0E654FB4FE49160
:1049D0000E2F10E0F3E2AF2EF0E1BF2E8091A30383
:1049E000882389F01092A3030E9408129801209551
:1049F0003095820F931F9093A1038093A003109290
:104A0000A5031092A4038091A0039091A1030E949A
:104A1000FA058017910770F0E091A003F091A103CF
:104A20000E0F1F1F1093A1030093A00380EA93E0D1
:104A3000F501099586E0EFEAF3E0DE0111960190B9
:104A40000D928A95E1F78091B1039091B203892B81
:104A500009F468C08091AD039091AE030E94FA05FD
:104A60009C019091AC03992309F4F0C125313105E3
:104A700008F458C09F3F19F09F5F9093AC031092C9
:104A8000B3031092B4038091B103181624F40E946A
:104A90006E058093B1038091B10387FF05C00E942A
:104AA0006E0581958093B1038091B203181624F4AA
:104AB0000E946E058093B2038091B20387FF05C008
:104AC0000E946E0581958093B2033091B103332328
:104AD000B1F02091B203222391F045EB3403C001E1
:104AE0001124992309F488C19093B10345EB240361
:104AF00090011124332309F483C13093B2030E943F
:104B000014128091AA039091AB039093AE0380930B
:104B1000AD0386E0FE013196AFEAB3E001900D925D
:104B20008A95E1F78091B3039091B403892B09F43E
:104B300068C08091A8039091A9030E94FA059C0186
:104B40009091AC03992309F47DC12531310508F416
:104B500058C09F3F19F09F5F9093AC031092B10330
:104B60001092B2038091B303181624F40E944E05EC
:104B70008093B3038091B30387FF05C00E944E0565
:104B800081958093B3038091B403181624F40E9496
:104B90004E058093B4038091B40387FF05C00E9443
:104BA0004E0581958093B4033091B3033323B1F064
:104BB0002091B403222391F045EB3403C00111246A
:104BC000992309F421C19093B30345EB2403900189
:104BD0001124332309F41CC13093B4030E9414122E
:104BE0008091AA039091AB039093A9038093A803AB
:104BF00086E0FE013196AFEAB3E001900D928A950E
:104C0000E1F70E946A079091B503891709F498CEDD
:104C10000E946A078093B50393CE8091F10384309C
:104C200009F441C01092910388E190E020E40FB6AE
:104C3000F894A895809360000FBE209360001092B6
:104C4000A7038091CC03811117C081E08093CC032E
:104C50008091C603982F91709093CB038E7F8093A1
:104C6000C6032FEF40E782E0215040408040E1F74B
:104C700000C000000E94620D83B7817F846083BF03
:104C800083B7816083BF7894889583B78E7F83BF15
:104C90000FB6F894A89580916000886180936000B9
:104CA000109260000FBE8091F003882309F448CE73
:104CB0000E941F1190E090931801809317010E94A9
:104CC000FF0A0E940E0BE2E9F3E0119293E0E03A52
:104CD000F907D9F70E948C22E2E9F3E08191811172
:104CE0009BC0EE16FF06D1F72BCE9F5FBB0C963014
:104CF00009F03DCE0F5F1F4F0E30110509F02DCE8C
:104D00008FEF8C878D871E860E9408128160782F16
:104D1000988B8F874C855D856E8588890E94CB2115
:104D200043CE863059F4F0E0E954FB4FE4910E2F66
:104D300010E0E7E3AE2EE0E1BE2E50CE893061F404
:104D4000E695F0E0EC54FB4FE4910E2F10E070E696
:104D5000A72E7EE0B72E42CE8F3061F4E695F0E0CC
:104D6000EF54FB4FE4910E2F10E06AE8A62E6EE0A0
:104D7000B62E34CE853159F4F0E0E255FB4FE49184
:104D80000E2F10E059EFA52E5EE0B52E27CE08EECF
:104D900013E029E4A22E2FE0B22E883109F41ECEB2
:104DA000833241F4F6010591149148ECA42E4FE0B2
:104DB000B42E14CE04EF11E09DE7A92E9FE0B92E8A
:104DC000843209F40BCE853281F48E2F63E00E9489
:104DD0000A28E92FF0E0E755FB4FE4910E2F10E091
:104DE00037EDA32E3DE0B32EF9CD00ED17E08BECAF
:104DF000A82E84E0B82EF2CD81E08093B10376CE68
:104E000081E08093B2037BCE81E08093B303DDCE5B
:104E100081E08093B403E2CE80E189BD82E189BD67
:104E200009B400FEFDCF8091D8008F7D8093D8001B
:104E30008091E00082608093E0008091E00081FD3D
:104E4000FCCF7ECD232B09F086CEDBCE232B09F0C1
:104E500013CE68CE1F921FB61F9211248F939F937B
:104E6000AF93BF9380919103811113C080916B0325
:104E700090916C03A0916D03B0916E034196A11DBA
:104E8000B11D80936B0390936C03A0936D03B0935B
:104E90006E03BF91AF919F918F911F901FBE1F9086
:104EA00018951092B9008CE08093B8000895EF92A5
:104EB000FF920F931F93CF93DF93182FEB01109264
:104EC000BC0084EA8093BC000E9408127C0180919F
:104ED000BC0087FF27C08091B900887F883029F007
:104EE0008091B900887F8031D9F51093BB0084E8A8
:104EF0008093BC000E9408128C018091BC0087FF47
:104F000024C02091B900287F90E080E02831B1F0E2
:104F100081E090E0203411F490E080E0919581955B
:104F200091090CC0CF3FDC0791F20E9408128E1944
:104F30009F098C179D0758F28EEF9FEFDF91CF915D
:104F40001F910F91FF90EF900895CF3FDC07A9F2DA
:104F50000E940812801B910B8C179D0770F2ECCFFA
:104F60008FEF9FEFEBCF0F931F93CF93DF93EB0167
:104F70008093BB0084E88093BC000E9408128C01DF
:104F80008091BC0087FF11C02091B900287F81E08B
:104F900090E0283211F490E080E09195819591099C
:104FA000DF91CF911F910F910895CF3FDC0741F31F
:104FB0000E940812801B910B8C179D0708F38EEF3F
:104FC0009FEFEECF0F931F93CF93DF93EC0184E815
:104FD0008093BC000E9408128C018091BC0087FF66
:104FE00008C08091BB0090E0DF91CF911F910F919D
:104FF0000895CF3FDC0789F30E940812801B910BB4
:105000008C179D0750F38EEF9FEFEECF84E98093CE
:10501000BC000895991B79E004C0991F961708F009
:10502000961B881F7A95C9F78095089587FB082EEF
:10503000062687FD819567FD61950E940A280EF47A
:10504000919507FC81950895AA1BBB1B51E107C0F0
:10505000AA1FBB1FA617B70710F0A61BB70B881F08
:10506000991F5A95A9F780959095BC01CD01089597
:1050700097FB072E16F4009407D077FD09D00E9405
:10508000242807FC05D03EF4909581959F4F089504
:10509000709561957F4F0895EE0FFF1F0590F49175
:1050A000E02D09948F929F92AF92BF92CF92DF92A0
:1050B000EF92FF92CF93DF93EC01688179818A812F
:1050C0009B81611571058105910521F464E279EDFB
:1050D0008BE597E02DE133EF41E050E00E942E2A6E
:1050E00049015A019B01AC01A7EAB1E40E944D2A93
:1050F0006B017C01ACEEB4EFA50194010E945B2A28
:10510000DC01CB018C0D9D1DAE1DBF1DB7FF03C083
:105110000197A109B04888839983AA83BB839F77AD
:10512000DF91CF91FF90EF90DF90CF90BF90AF9045
:105130009F908F9008950E945228089580E091E0FA
:105140000E9452280895B0E0A0E08093000190935F
:105150000101A0930201B093030108950F931F93DF
:10516000CF93DF938230910510F482E090E0E091DC
:10517000FD03F091FE0330E020E0B0E0A0E03097C6
:1051800099F42115310509F447C0281B390B243047
:105190003105C0F58A819B816115710571F1FB01B3
:1051A00093838283FE0111C040815181028113816A
:1051B00048175907F8F04817590799F4109761F004
:1051C00012960C93129713961C933296CF01DF918F
:1051D000CF911F910F9108950093FD031093FE034B
:1051E000F4CF2115310519F04217530718F49A012D
:1051F000BD01EF01DF01F801C2CF9093FE03809360
:10520000FD03D0CFFE01E20FF31F81939193225053
:10521000310939832883DACF2091FB033091FC03D5
:10522000232B41F420910601309107013093FC03B8
:105230002093FB03209104013091050121153105D4
:1052400041F42DB73EB74091080150910901241B4C
:10525000350B4091FB035091FC034217530708F0B4
:10526000B5CF241B350B2817390708F4AFCFBC0185
:105270006E5F7F4F2617370708F4A8CF640F751F9E
:105280007093FC036093FB03FA01819391939ECF8B
:10529000CF93DF930097E9F0FC01329713821282DB
:1052A000C091FD03D091FE03DE0130E020E02097A5
:1052B000A1F420813181820F931F2091FB03309153
:1052C000FC032817390709F067C0F093FC03E0934B
:1052D000FB03DF91CF910895DA01AE17BF0708F005
:1052E00040C012964D915C9113979D014115510557
:1052F00099F7D9011396FC93EE9312974D915D9116
:10530000A40FB51FEA17FB0779F4808191810296FB
:10531000840F951FD90111969C938E93828193815E
:1053200013969C938E931297B0E0A0E08A819B81A4
:105330000097B9F5FE0181919191E80FF91F8091D5
:10534000FB039091FC038E179F0719F6109761F5E8
:105350001092FE031092FD03D093FC03C093FB0355
:10536000B8CFB383A28340815181840F951FA817C2
:10537000B90771F44E5F5F4F8D919C911197480F63
:10538000591F5183408312968D919C919383828300
:105390002115310509F0ADCFF093FE03E093FD0335
:1053A00098CFDE01EC01C2CF13961C921E92129789
:1053B000D3CFFC014150504030F001900616D1F798
:1053C0003197CF010895882799270895F999FECF3D
:1053D00092BD81BDF89A992780B50895A6E1B0E005
:1053E00044E050E00C94202AA8E1B0E042E050E014
:1053F0000C94202A262FF999FECF92BD81BDF89AF0
:10540000019700B4021639F01FBA20BD0FB6F89408
:10541000FA9AF99A0FBE08950396272F0E94FB2946
:105420000E94FA29252F0E94FB29242F0C94FB2986
:105430000196272F0E94FB290C94FA29DC01CB014D
:10544000FC01F999FECF06C0F2BDE1BDF89A319694
:1054500000B40D9241505040B8F70895052E97FBC7
:105460001EF400940E94452A57FD07D00E94602A2E
:1054700007FC03D04EF40C94452A50954095309586
:1054800021953F4F4F4F5F4F0895909580957095B0
:1054900061957F4F8F4F9F4F08950E94822AA59F4D
:1054A000900DB49F900DA49F800D911D112408951F
:1054B000B7FF0C944D2A0E944D2A821B930B08952E
:1054C000A1E21A2EAA1BBB1BFD010DC0AA1FBB1F08
:1054D000EE1FFF1FA217B307E407F50720F0A21B7A
:1054E000B30BE40BF50B661F771F881F991F1A94E7
:1054F00069F760957095809590959B01AC01BD0111
:10550000CF010895A29FB001B39FC001A39F700D6A
:10551000811D1124911DB29F700D811D1124911DBB
:105520000895F894FFCF620A620A6B0A6B0A6D0A4B
:105530006B0A6B0A6B0A620A620A720A6B0A6B0ACE
:10554000720AE60AF20AF70AF00AF50AFC0AFA0AEF
:10555000AF13D7137915D71379150A142B147915AE
:1055600034154115BA1BDC1BE31BE81BED1BF21BBA
:10557000F71BFC1B011C061C0B1CC619101C151C60
:10558000181C1B1C1E1C211C231C261CC01CC01C00
:105590004C1D4C1DA01DBC1D3B1FF61CC71D9F1E96
:1055A000B01EB01E451F721F4F1F521F591F551F9F
:0255B0005E1F7C
:1055B200010000000000FF03200001191A1B1C1D3E
:1055C2001E1F20212201022000CC04890B5E0B5AEF
:1055D2000B480B0100010202020206060609090934
:1055E2000909090F0F0F0F0F0F15151518191919A2
:1055F20019191919191919232425252525252500D5
:105602000D010D020D030D040D050D000C010C0220
:105612000C030C040C050C000B010B020B030B0416
:105622000B050B000A010A020A030A040A050A0012
:105632000901090209030904090509000801080210
:105642000803080408050800070107020703070406
:105652000705070006010602060306040605060002
:105662000501050205030504050505000401040200
:1056720004030404040504000301030203030304F6
:1056820003050300020102020203020402050200F2
:1056920001010102010301040105010000010002F0
:1056A20000030004000500818283E200E900EA00B1
:1056B200B500B600B700CD008301CC008A0192018B
:1056C20094012102230224022502260227022A0231
:0856D200B300B4006F0070008A
:00000001FF
