:100000000C9409030C9426030C9426030C942603E9
:100010000C9426030C9426030C9426030C942603BC
:100020000C9426030C9426030C9476140C9432142E
:100030000C943F250C9426030C9426030C94260361
:100040000C9426030C9426030C9426030C9426038C
:100050000C9426030C944D150C9426030C94260343
:100060000C9426030C9426030C9426030C9426036C
:100070000C9426030C9426030C9426030C9426035C
:100080000C9426030C9426030C9426030C9426034C
:100090000C9426030C9426030C9426030C9426033C
:1000A0000C9426030C9426030C94260300010101F2
:1000B0000101010101010202020202020202020325
:1000C00003030303030303040404040404040505F5
:1000D00005050506060606060707070707080808B8
:1000E00008090909090A0A0A0B0B0B0C0C0C0D0D67
:1000F0000D0E0E0E0F0F0F101011111112121313FF
:100100001414151516161717181819191A1A1B1B77
:100110001C1D1D1E1E1F20202122222324242526D3
:1001200026272829292A2B2C2D2D2E2F303132320B
:10013000333435363738393A3B3C3D3E3F40414217
:10014000434445464748494A4C4D4E4F50515354FD
:10015000555658595A5B5D5E5F61626465666869B1
:100160006B6C6D6F7072737577787A7B7D7E808231
:10017000838587888A8C8E8F91939596989A9C9E7A
:10018000A0A2A3A5A7A9ABADAFB1B3B5B7BABCBE8A
:10019000C0C2C4C6C9CBCDCFD1D4D6D8DBDDDFE257
:1001A000E4E7E9EBEEF0F3F5F8FAFDFFFFAA7F557F
:1001B000402223252628292A2C2D2F30323335366C
:1001C000383A3B3D3E4042434547494A4C4E5051E8
:1001D000535557595A5C5E6062646668696B6D6F0F
:1001E00071737577797B7D7F81838587898A8C8E12
:1001F00090929496989A9C9E9FA1A3A5A7A8AAAC1A
:10020000AEAFB1B3B4B6B8B9BBBCBEBFC1C2C3C553
:10021000C6C7C9CACBCCCDCED0D1D2D2D3D4D5D6F5
:10022000D7D7D8D9D9DADADBDBDBDCDCDCDCDCDD28
:10023000DDDDDDDCDCDCDCDCDBDBDBDADAD9D9D80C
:10024000D7D7D6D5D4D3D2D2D1D0CECDCCCBCAC9A4
:10025000C7C6C5C3C2C1BFBEBCBBB9B8B6B4B3B1D3
:10026000AFAEACAAA8A7A5A3A19F9E9C9A9896946E
:1002700092908E8C8A89878583817F7D7B79777543
:1002800073716F6D6B6968666462605E5C5A595722
:10029000555351504E4C4A4947454342403E3D3BE1
:1002A0003A3836353332302F2D2C2A29282625236B
:1002B000222E004C00E000E100354100001E001439
:1002C0000004681D6434004D001F001A0016001B56
:1002D00000E1012A00200008000700060050002C61
:1002E0000021001500090019004F004A00220017E4
:1002F000000A000500000065645000E302000000F1
:100300000F0000E30002530153000000070000A8A3
:100310000023001C000B00110000002961240018BC
:10032000000D00100052004B0025000C000E00369E
:100330000051002800260012000F0037002F002B6C
:1003400000270013003368387430004E002D003150
:10035000003471E500015100002900010001000195
:1003600000010000003A001E022002220201002FBC
:100370005D3B001F02210223020100CA5C3C002FEA
:100380000226022F000100CB5C3D00300227023024
:100390000001002E5D3E003102350035020000C430
:1003A0005C010001000000010000002D5D01000162
:1003B00000000001000000C35C3F00520051002417
:1003C0000200002C5D4000240021001E00010001FD
:1003D000004100250022001F002700C65C420026C5
:1003E00000230020003700C75C430025022E0231A5
:1003F000002E000100440045000100010001000042
:1004000000010001000100010001000000010001E5
:100410000004001D000100010001000100010001B5
:1004200000010001000100010001000100010001C4
:1004300000010001000100010001000100010001B4
:1004400000010001000000010001000100000001A6
:100450000000000100010001000000010000000197
:100460000001000100010001000000010001000185
:100470000001000100A9000100010001000100AC21
:1004800000AA00B600010001000100AB00A80001B5
:100490000001000100010001000100010001000154
:1004A00000AE0001000100000032190A00047F3F85
:1004B0001F643214643214783C1E1E140A050501B0
:1004C0000980A101850319012AB700150126B7008B
:1004D000950175108100C0050C0901A10185041961
:1004E000012AA002150126A002950175108100C005
:1004F00005010906A1018505050719E029E7150091
:1005000025019508750181020507190029EF1500DD
:10051000250195F075018102050819012905950548
:1005200075019102950175039101C005010906A1AC
:1005300001050719E029E7150025019508750181D6
:10054000029501750881010507190029FF1500268C
:10055000FF00950675088100050819012905950514
:1005600075019102950175039101C009023B0002DA
:100570000100A0FA09040000010301010009211192
:100580000100012240000705810308000A09040157
:10059000000103000000092111010001226D000784
:1005A00005820320000A12011001000000089732A2
:1005B0007549010001020001220345007200670035
:1005C0006F0044006F007800200045005A002000B2
:1005D0005300680069006E006500000030035A0097
:1005E00053004100200054006500630068006E0065
:1005F0006F006C006F006700790020004C00610004
:1006000062007300200049006E00630000000403D4
:10061000090411241FBECFEFDAE0DEBFCDBF23E017
:10062000AAE2B2E001C01D92A53FB207E1F712E0D5
:10063000A0E0B1E0EAEFF1E502C005900D92AA3228
:10064000B107D9F70E9450220C94B5280C940000F1
:10065000E8EDF0E080818E7F80831092E2001092BE
:10066000DA001092E100A0EEB0E08C9181608C93F2
:1006700080818F77808319BCA7EDB0E08C918E7F4D
:100680008C9380818F7E80831092BB03089520918C
:10069000E4003091E50095E6A9012091EC00822F5D
:1006A000817020FF06C08091E80080FF06C080E0D6
:1006B00008952091E80022FD1AC08091E00388236C
:1006C00089F0853089F08091EB0085FD0FC0209185
:1006D000E4003091E50042175307F9F29150E1F63A
:1006E00084E0089582E0089583E0089581E008950C
:1006F000EF92FF920F931F93CF937C018B010E9487
:100700004703C82F811117C08091E80085FD0BC0F9
:100710008091E8008E778093E8000E944703882349
:1007200099F3C82F08C0F70181917F018093F100F0
:100730000150110949F78C2FCF911F910F91FF9014
:10074000EF9008958091E20387FF13C08091E80045
:1007500082FF06C08091E8008B778093E80004C098
:100760008091E0038111F2CF08958091E003882306
:10077000D9F38091E80080FFF8CF8091E8008E7770
:10078000ECCF982F9093E900242F762F50E0891713
:1007900031F07091EC002091ED005091F00021FDBE
:1007A00007C09F5F973071F78093E90081E008955B
:1007B0003091EB003E7F3093EB003091ED003D7FB8
:1007C0003093ED003091EB0031603093EB0070938B
:1007D000EC002093ED005093F0002091EE0027FDF7
:1007E000E0CF80E00895CF92DF92EF92FF920F93D7
:1007F0001F93CF93DF93C8EDD0E088818F7E8883ED
:10080000E7EDF0E080818160808384E082BF81E059
:100810008093BB0388818E7F888302EE10E0F8010D
:1008200010821092DA0081EEC82ED12CF6011082CF
:1008300088818F77888388818068888388818F7D8D
:10084000888319BC1092E0031092E1031092DF0339
:100850001092DE0390EEE92EF12CF70180818B7F60
:10086000808388818160888342E060E080E00E942C
:10087000C103F60180818E7F8083F80180818160D1
:100880008083808188608083F70180818E7F808370
:10089000888180618883DF91CF911F910F91FF90B4
:1008A000EF90DF90CF900895FC018091E803909144
:1008B000E90386179707A0F06115710529F4909157
:1008C000E8009E779093E80090E06115710551F47F
:1008D000911108C08091E80082FF34C080E0089543
:1008E000BC01F2CF8091E0038823C1F18530C1F1D2
:1008F0008091E80083FD30C08091E80082FDEACF5E
:100900008091E80080FFE1CF8091F3002091F20018
:10091000382F6115710519F02830310558F091E034
:100920002830310509F090E02091E8002E772093DF
:10093000E800CBCF81918093F100615071092F5F66
:100940003F4FE7CF8091E003882341F0853041F0AD
:100950008091E80083FFBECF81E0089582E0089592
:1009600083E00895089508958091BD03089520912E
:1009700024012223C9F02091840327FF15C0E62F0C
:10098000E695E695E695EE31D8F4E80FF92FF11DDE
:10099000677021E030E001C0220F6A95EAF72095E8
:1009A0008281282322830895FC01329608962191A2
:1009B000621303C0DF0111971C92E817F907B9F71A
:1009C0000895209124012223C1F02091840327FF60
:1009D00014C0E62FE695E695E695EE31F8F4E80FBB
:1009E000F92FF11D677021E030E001C0220F6A95F8
:1009F000EAF78281822B82830895FC0132962FEFE1
:100A000030E04191641751F02F3F19F4411101C0BA
:100A1000232F3F5F3630A9F72F3F09F40895820F47
:100A2000911D27FD9A95FC016283089580916703CB
:100A30008111109267030895809166039091650378
:100A4000892B90916403892B80932A0290916703EC
:100A50009923A1F0892B80932A0280912401882375
:100A600041F18091840387FF24C08EE1ECE2F2E043
:100A700090E0815000F591110E941605E0918B03E2
:100A8000F0918C033097E1F080912401882359F094
:100A90008091840387FF07C080912A0280932B02F4
:100AA00085E080932A020280F381E02D8AE292E0C1
:100AB000099486E0DBCF21912223D9F29F5FD9CF21
:100AC0000895E92FEE0FE90FEE0F8E0F982F977014
:100AD00086958695869525E0829FF0011124E45D38
:100AE000FC4F50E040E080E0219130E0092E02C050
:100AF000369527950A94E2F721703327042E01C01A
:100B0000220F0A94EAF7822B4F5F5F4F4530510561
:100B100059F70895E92FEE0FE90FEE0F8E0F982F7A
:100B2000977041E001C0440F9A95EAF78695869543
:100B3000869595E0899FF0011124E45DFC4F30E03B
:100B400020E070E05191DF011197CB01022E02C02D
:100B5000969587950A94E2F781708195852784237D
:100B600085278C932F5F3F4F2530310559F7089526
:100B700080912B039091FA02981301C008958F5F22
:100B80008770FACF882341F080959091650389237F
:100B9000809365030C941C050895882339F0909187
:100BA0006503982B909365030C941C050895882386
:100BB00041F08095909166038923809366030C949D
:100BC0001C050895882339F090916603982B909323
:100BD00066030C941C0508952091DD023091DE021D
:100BE0002817390771F09093DE028093DD02E091BF
:100BF0008B03F0918C03309721F00084F185E02D78
:100C0000099408952091DB023091DC0228173907FE
:100C100071F09093DC028093DB02E0918B03F09102
:100C20008C03309721F00680F781E02D0994089518
:100C300010926503109264030E941C0590E080E00E
:100C40000E94020690E080E00C94EC05609368033B
:100C50007093690380936A0390936B030C94180656
:100C6000882379F19CEF980F913A38F4682F8AE243
:100C700092E00E94B7040C941C0590E2980F983003
:100C800088F4877021E030E0A90102C0440F551FAD
:100C90008A95E2F7CA018095909166038923809333
:100CA0006603E9CF9BE5980F933020F490E080E055
:100CB0000C940206885A873120F490E080E00C946E
:100CC000EC050895CF93C82F882309F467C08CEFF3
:100CD0008C0F813AC0F580912401882311F1809115
:100CE000840387FF1EC0EC2FE695E695E695F0E0BD
:100CF000E65DFD4F828190E04C2F477021E030E0AF
:100D000002C0220F331F4A95E2F782239323892BD7
:100D100091F06C2F8AE292E00E94B7040E941C05B9
:100D20000AC0ECE2F2E082E392E02191C21789F37B
:100D30008E179F07D1F76C2F8AE292E00E94E104A0
:100D4000CF910C941C0580E28C0F883068F4C7703A
:100D500021E030E001C0220FCA95EAF780916603D6
:100D6000822B80936603ECCFEBE5EC0FE33040F48D
:100D7000F0E0E850FE4F808190E0CF910C940206A5
:100D8000C85AC73158F4EC2FF0E0EE0FFF1FE550C2
:100D9000FE4F80819181CF910C94EC05CF91089505
:100DA000E0918B03F0918C03309721F00190F0815A
:100DB000E02D099480E00895FA01811101C0FB0142
:100DC00009948091A403982F9E7F29F481708260FA
:100DD0008093A40308958635E8F381708465F8CF85
:100DE000AF92BF92DF92EF92FF920F931F93CF9338
:100DF000DF93082F162FE901E42FF0E0E455FF4FB1
:100E0000611111C0E4915E2F4E2F4983E8835A830C
:100E10001B82DF91CF911F910F91FF90EF90DF9098
:100E2000BF90AF900895E62EF12C4491D42EE42F7C
:100E3000F0E026E0829FC00111242FEF30E0B901DD
:100E40000E943926802F90E0880F991F55E5569F04
:100E5000D001579FB00D11248A1B9B0B982F990F1F
:100E6000890F5901AE18BF08AE9ED001AF9EB00DDC
:100E7000BE9EB00D11245B2F189F80011124012FFD
:100E800011275901A01AB10AAE9E8001AF9E100D24
:100E9000BE9E100D11245901A81AB108AE9CC001C4
:100EA000AF9C900DBE9C900D1124892F9927281B73
:100EB000390B2E9FC0012F9F900D3E9F900D112446
:100EC000E92F62307105A1F050F46115710509F444
:100ED0009CCF6130710581F0EB2F512F96CF64309C
:100EE000710569F080F06630710509F48ECFF4CF9A
:100EF000E42F4B2F592F89CFE42F412F86CFEB2F93
:100F0000542F492F82CF4B2F5D2DE12F7ECF909113
:100F1000840392FF06C0282F28712830F9F4877FB8
:100F2000846093FF06C0282F28712831F1F4877E52
:100F300084612091850320FF06C0382F3871383036
:100F4000D9F4877F816021FF06C0282F28712831BE
:100F5000D1F4877E816194FD877E0895282F2471C6
:100F60002430F9F68B7F8860DCCF282F2471243160
:100F700001F78B7E8861DDCF382F3171313019F761
:100F80008E7F8860E0CF282F2171213121F78E7E5E
:100F90008861E1CFCF93DF93972F70E026E0929F97
:100FA000600D711D1124FB0134E5839FE00DF11DDF
:100FB0001124EE0FFF1FEF54FD4FC591D491CE01C8
:100FC000C238D105B9F1E8F5C133D10509F499C0AA
:100FD00050F5C932D10509F48DC0CA32D10509F4E2
:100FE00097C0C11542E5D40708F0B6C0C11521E588
:100FF000D20708F02EC1C83ED10508F09DC0C03E02
:10100000D10568F5C83AD10508F089C0C53AD105BF
:1010100008F0F7C0C130D10511F1209709F443C0A1
:101020002497E8F440C0C533D10509F45CC0C93346
:10103000D105B9F620918403237089F080EE90E009
:101040000EC0C33ED10591F168F4C03ED105F9F060
:10105000C23ED10531F62091840322FD20C0DF91EC
:10106000CF910895C63ED10561F1C73ED10581F10A
:10107000C43ED10509F0B5CF2091850321FFEFCF04
:101080008091840384FD0FC087EE90E0E8CF20912B
:10109000840320FD0EC13091850330FFE0CF83EE45
:1010A00090E024FFDCCF90E080E0D9CF2091840352
:1010B00022FD02C13091850330FDC0CF24FFCFCF88
:1010C000F2CF2091840323FFCACF24FDECCFDCCFE5
:1010D0002091840323FDF3C03091850331FFEECFCF
:1010E00084EE90E0BCCF2091840325FFB8CF89E245
:1010F00090E0B5CF2091840325FFB1CF85E390E048
:10110000AECF2091840326FFAACF8AE290E0A7CF3A
:101110002091840326FFA3CF81E390E0A0CFCF3BB3
:10112000D10508F6C85AD0E0CC0FDD1FC550DE4F00
:1011300088819981946493CFC11530E5D30708F075
:101140006CC0C11540E4D40708F063C0DA95C1153E
:10115000DF4108F484CFA7CFC11536E5D30718F5D2
:10116000C11545E5D40708F08AC0C11584E5D80744
:1011700008F080C09C2F96959695AE014370552738
:10118000C115D34508F46AC021E030E002C0220F47
:10119000331F4A95E2F740E2949FC0011124822B4D
:1011A000932B9A685CCFC1153AE5D30778F4C11543
:1011B00049E5D40708F06DC0C11588E5D80708F4E3
:1011C00072CF9C2F8827806F906A49CFC1159BE50D
:1011D000D90708F468CFCE01C1152CE5D20708F471
:1011E00065C090568115904208F05DCF8D2F8F71AC
:1011F0000E94870790E0982F882788279F718C2B63
:1012000046C0C55AD0E0C850DE4F888190E0906457
:1012100026CFCE019F70906A22CF9E01E4E03695E2
:101220002795EA95E1F723708C2F86958695837034
:1012300040E2849FC0011124922BC37021E030E072
:1012400002C0220F331FCA95E2F7822B932B9C68B2
:1012500006CF9C2F8827816F906A01CF21E030E074
:1012600002C0220F331F4A95E2F740E2949FC0016B
:101270001124EBCF9C2F8827846F906AF0CE8C2F9F
:101280000E94870790E0982F882788279F71906297
:10129000E6CE8C2F8F700E94870734E0D695C795D5
:1012A0003A95E1F7CF709C2F9069D9CE9927906637
:1012B000D6CE89E390E0D3CE82EE90E0D0CE86EE1B
:1012C00090E0CDCEBF92CF92DF92EF92FF920F933C
:1012D0001F93CF93DF938C01C0908703D090880336
:1012E000E0908903F0908A038091680390916903EC
:1012F000A0916A03B0916B03C82AD92AEA2AFB2A73
:10130000CFE1D0E0BC2ED701C6010C2E04C0B695AB
:10131000A795979587950A94D2F780FD0EC02197DF
:1013200088F7B12C8B2DDF91CF911F910F91FF90FA
:10133000EF90DF90CF90BF900895B8018C2F0E945E
:10134000CA07019761F3EECFCF93DF93EC010E94C0
:101350006209BE01DF91CF910C94CA070E94A409D3
:10136000292F2F7092959F7092509E3078F4E92F1C
:10137000F0E0E954F74D0C946126803F19F020F419
:10138000883E20F481E00895843FE1F380E00895F1
:10139000883EC0F3813FD1F7F5CF822F86958695A1
:1013A00086950895CF93DF939C013A9521153F418F
:1013B00068F5EC01CC27D170DC01AA27B270AC0132
:1013C000442754709C012227387094FF11C080E19B
:1013D000CD2B09F480E0AB2B09F08062452B09F09E
:1013E0008064232B09F08068FB01DF91CF91099481
:1013F00081E0CD2B09F480E0AB2B09F08260452B16
:1014000009F08460232B81F38860EECFDF91CF91C8
:101410000895CF93DF93EC010E943006CE01805EE9
:101420009109089720F062EC75E0209711F467EDC0
:1014300075E0CE01DF91CF910C94D209CF93DF9369
:10144000EC01805E9109089720F06DEC75E0209723
:1014500011F462EE75E0CE010E94D2098C2FDF916B
:10146000CF910C94620627982F98089526982E986D
:10147000089525982D98089556985E980895279A6E
:101480002F9A0895269A2E9A0895259A2D9A0895AE
:10149000209828982198299822982A9823982B9860
:1014A00052985A9853985B983E9846980895809819
:1014B000889A8198899A84988C9A85988D9A86982A
:1014C0008E9A87988F9A0895CF93DF9300D00F92CA
:1014D000CDB7DEB79091E003943019F589837B8313
:1014E0006A8382E08093E9008FEF9091E800815059
:1014F00095FD06C095ED9A95F1F700008111F5CFA5
:101500008091E80085FF0DC050E040E063E070E0AE
:10151000CE0101960E9478038091E8008E77809337
:10152000E8000F900F900F90DF91CF910895BC01CC
:1015300084E00C94640ABC0183E00C94640ACF93A9
:10154000DF93EC01809124018823B1F18091840321
:1015500087FF32C060E282E08093E9008FEF9091D4
:10156000E800815095FD06C095ED9A95F1F70000D1
:101570008111F5CF8091E80085FF1BC08091240187
:1015800070E050E040E0811104C050E040E068E0CD
:1015900070E0CE010E9478038091E8008E778093FE
:1015A000E80080E2FE01AEEBB3E001900D928A9577
:1015B000E1F7DF91CF91089568E081E0CDCFCF933F
:1015C000C82F0E946206C93349F42FEF87EE93E0DB
:1015D000215080409040E1F700C000008C2FCF9157
:1015E0000C943006EF92FF920F931F93CF93DF93EB
:1015F0000E943C0A0E94390A0E94360A0E94330A5D
:1016000088E8E82EF12C8FEF90E0F701918380833A
:101610000AE810E0F80191838083CCE8D0E0998358
:1016200088830E94450AFFEF20E782E0F1502040C6
:101630008040E1F700C000000E94420A9FEFE0E70F
:10164000F2E09150E040F040E1F700C000000E945D
:101650003F0A2FEF80E792E0215080409040E1F771
:1016600000C000000E94390AEFEFF0E722E0E150ED
:10167000F0402040E1F700C000000E94360A8FEFE2
:1016800090E7E2E081509040E040E1F700C00000C8
:101690000E94330A809172038770FFEF8F9FC00111
:1016A000112495958795959587959927F7019183AD
:1016B0008083F80191838083998388830E943C0A08
:1016C0000E94390A0E94360ADF91CF911F910F9133
:1016D000FF90EF900C94330ACF9384E090E00E9447
:1016E0000A28C82F81E290E00E940A28982F8C2FA8
:1016F000CF910895CF92DF92EF92FF926B017C0120
:101700000E94E106B701A60188E090E0FF90EF900B
:10171000DF90CF900C9430288091A803882319F093
:1017200081508093A8036091A4037091A5038091D8
:10173000A6039091A7030C947A0B8091A8038330A1
:1017400018F48F5F8093A8036091A4037091A503A0
:101750008091A6039091A7030C947A0BE4EAF3E03E
:1017600083E0808311828FEF828383831482608180
:101770007181828193810C947A0B6FEE7EEF90E001
:1017800080E00E943C2860E082E090E00E941E28F9
:1017900060E083E090E00E941E281092680310929F
:1017A000690310926A0310926B0360E084E090E09A
:1017B0000E941E2860E081E290E00E941E2860E006
:1017C00085E090E00E941E2860E086E090E00E94A4
:1017D0001E286FEF87E090E00E941E2840E050E056
:1017E000BA0188E090E00E94302860E08DE090E04F
:1017F0000E941E2840E050E0BA0188E190E00E947B
:10180000302860E087E190E00E941E2840E050E030
:10181000BA018CE190E00E94302860E080E290E024
:101820000E941E2840E050E0BA0188E190E00E944A
:101830003028109272031092730310927403109266
:10184000750384E08061809372034091720350912C
:10185000730360917403709175038FE090E00E94B0
:10186000302840E050E0BA0183E190E00C94302849
:101870001092660380912401ECE2F2E0882359F093
:101880008091840387FF07C08EE1DF011D928A9556
:10189000E9F70C94180686E0F8CF1F93CF93DF93F7
:1018A000CDB7DEB7AA970FB6F894DEBF0FBECDBF97
:1018B00082EE93E02091F100FC012193CF01F3E04F
:1018C0008A3E9F07B9F78091E303833009F46FC024
:1018D000B8F4813009F446C0823009F4B0C0809178
:1018E000E80083FF7BC28091E2039091E3039A308A
:1018F00008F074C2E92FF0E0EB53F74D0C94612629
:101900008A3009F48BC08B3009F46EC0893039F706
:101910008091E203813219F78091E6039091E70309
:101920000297E8F68091E800877F8093E800809135
:10193000E80082FF37C09091F3008091F200029797
:1019400029F48091F1008B7F813021F48091F100A6
:101950008093BD038091E8008B778093E8000E941C
:10196000A203BDCF8091E203813A09F0B8CF809104
:10197000E800877F8093E8008091E6039091E70379
:10198000892B61F460E28EEB93E070E00E945404D6
:101990008091E8008B778093E800A1CF60E090E031
:1019A00080E0F3CF8091E0038111C1CF98CF809187
:1019B000E203813A09F093CF8091E6039091E70327
:1019C000892B09F08CCF8091E800877F8093E80015
:1019D0008091E80080FFFCCF809124018093F1008A
:1019E0008091E8008E77B9CF8091E203813209F0CF
:1019F00076CF8091E6039091E703892B09F06FCFB2
:101A00008091E800877F8093E8000E94A203809184
:101A1000E403809324010E94380C61CF8091E2039B
:101A2000813209F05CCF8091E800877F8093E800E5
:101A30000E94A2038091E5038093BC0350CF809164
:101A4000E203813A09F04BCF8091E800877F8093D1
:101A5000E8008091E80080FFFCCF8091BC03BECFFE
:101A6000803899F0823809F0B9C18091E6038F700F
:101A7000873008F0B3C18093E9008091EB0085FBCB
:101A8000882780F91092E90006C08091DE039091CA
:101A9000DF03911182609091E800977F9093E800B6
:101AA0008093F1001092F1008091E8008E7792C14E
:101AB000882309F480C1823009F090C18091E40349
:101AC000811183C18091E6038F702FEF280F26309C
:101AD00008F084C18093E9002091EB0020FF75C1DC
:101AE000933031F48091EB0080628093EB006DC104
:101AF0009091EB0090619093EB0021E030E001C009
:101B0000220F8A95EAF72093EA001092EA0080916A
:101B1000EB008860EACF811161C11091E4031F7767
:101B20008091E3008078812B8093E3008091E8002E
:101B3000877F8093E8000E94A2038091E80080FFE5
:101B4000FCCF8091E30080688093E30082E0111174
:101B500083E08093E00342C18058823008F03EC1A8
:101B60008091E4039091E5038C3D23E09207A1F579
:101B700083E08A838AE289834FB7F894DE01139663
:101B800020E03EE051E2E32FF0E050935700E49173
:101B900020FF03C0E295EF703F5FEF708E2F90E063
:101BA000EA30C0F0C7968D939D932F5F243159F78B
:101BB0004FBF8091E800877F8093E8006AE270E081
:101BC000CE0101960E9454048091E8008B778093A7
:101BD000E80004C1C096E7CF4091E6035091E703C7
:101BE000292F33272330310509F444C078F52130FB
:101BF000310509F46FC08BE390E0EBE6F5E02230AD
:101C0000310509F0EBC02091E800277F2093E80020
:101C10002091E8033091E9038217930708F49C01AF
:101C200040E02115310509F064C0411162C0809186
:101C3000E80082FDC9CF8091E003882329F2853036
:101C400019F28091E80083FFF2CFBECF2132310537
:101C5000A9F12232310509F0C1C04115510509F43D
:101C600043C04130510509F0B9C08DE690E0EEEB7C
:101C7000F4E0C9CF992781309105C1F0009759F060
:101C8000029709F0ABC0E8EBF5E0E4918E2F90E00D
:101C9000E8EBF5E007C0EEE0F6E0E4918E2F90E08F
:101CA000EEE0F6E0009709F499C0ADCFECEDF5E079
:101CB000E4918E2F90E0ECEDF5E0F4CF4115510565
:101CC00071F04130510509F089C089E090E0E6E902
:101CD000F5E099CF82E190E0E6EAF5E094CF89E083
:101CE00090E0EDE7F5E08FCF80E490E0EBE2F5E007
:101CF0008ACF8091E003882309F466CF853009F408
:101D000063CF8091E80083FD5FCF8091E80082FD82
:101D10008ECF8091E80080FF84CF9091F300809176
:101D2000F2002115310519F08830910550F041E09D
:101D3000089709F040E08091E8008E778093E800F2
:101D400070CF44914093F1003196215031090196B2
:101D5000E8CF803809F042C08091E800877F809307
:101D6000E8008091E1038093F1009ECE811136C09E
:101D70001091E403123090F58091E800877F809302
:101D8000E8001093E1030E94A203112311F084E004
:101D900005C08091E30087FDFACF81E08093E003E6
:101DA00042E061EC81E00E94C10342E261EC82E02A
:101DB0000E94C10313C08091E403813079F481E073
:101DC000933009F080E08093DF031092E900809166
:101DD000E800877F8093E8000E94A2038091E800DA
:101DE00083FF0AC08091E800877F8093E80080919C
:101DF000EB0080628093EB00AA960FB6F894DEBFEA
:101E00000FBECDBFDF91CF911F910895CF93C82F03
:101E1000873070F58091180190911901892B89F50F
:101E200064E670E080E40E946C2590931901809331
:101E30001801892BD1F464E670E082E10E94C82584
:101E40009093190180931801892B79F481E090E037
:101E500001C0880FCA95EAF764E670E080950E9499
:101E6000C8259093190180931801CF910C941B26DB
:101E70008A30B9F040F4883071F0893079F0209AD6
:101E80002898CF9108958C3091F070F08D30B9F78B
:101E90003E9A4698F6CF219A2998F3CF229A2A980B
:101EA000F0CF239A2B98EDCF529A5A98EACF539AB3
:101EB0005B98E7CFCF93DF938091A40380FD0BC0A5
:101EC000E4E5F2E01182108212821382349652E02D
:101ED000E039F507B9F7C4E5D2E0FE01928120812F
:101EE0003181892F291708F4822F381708F4832F9E
:101EF0008383381B3183281B2083981B928334965D
:101F000082E0E039F80751F70E94662564E670E048
:101F100084E80E946C2564E670E088810E94C825F0
:101F200064E670E089810E94C82564E670E08A81D9
:101F30000E94C82564E670E08B810E94C825249623
:101F400092E0C039D90739F70E941B26579A3BB156
:101F50003F772BB120684FB7F89484E592E0FC01FD
:101F60005191CF0168E02BB9000000C057FF3BB989
:101F7000550F000000C000C000C03BB900C06A950A
:101F800091F7F2E080399F0751F74FBF8FE594E05A
:101F90000197F1F700C00000DF91CF9108958F9273
:101FA0009F92AF92BF92CF92DF92EF92FF920F93E8
:101FB0001F93CF93DF93FC01B280948081E08483F0
:101FC000C0E9D2E004E512E08BE4A82E88248394D3
:101FD000EE24EA94F12C2BE4C22ED12C91101DC0DA
:101FE0001B821A8298014A81698188810E94F006C9
:101FF00025960C5F1F4F82E0CB3DD80779F7DF9124
:10200000CF911F910F91FF90EF90DF90CF90BF90F5
:10201000AF909F908F900C945A0F2B81222309F13F
:1020200021502B833C818A2D821B311101C0822FCC
:102030009091A703899FC0011124B6010E943926FF
:102040006A83211104C0332311F01C82AB8222E089
:102050002B1540F28091A50388838091A603898384
:10206000C1CF0E94C226823091400CF0BBCF82E0EB
:102070008B15C0F40E94C226B7010E944D268883AA
:1020800022E02B1590F40E94C2262091A6032695EB
:10209000622F70E00E944D26280F29831A82AB829E
:1020A0008C82A0CF8091A503EACF2091A603F5CF23
:1020B000EF92FF921F93CF93DF93EC0184E5E82E1C
:1020C00082E0F82E10E08C8197014091A703609187
:1020D000A603810F0E94F0061F5E84E0E80EF11C4B
:1020E0001F3F89F70E945A0F9A818C8190FF08C088
:1020F0008F5F8C83DF91CF911F91FF90EF900895B8
:102100008150F7CFBF92CF92DF92EF92FF920F9361
:102110001F93CF93DF93FC018281DD24DA9480FD4D
:1021200002C0DD24D39404E512E0D0E0C0E02FE04B
:10213000B22EF801118210821282138294E0E92EED
:10214000F12CC12C809151028C0D80310CF43DC0DA
:102150006B2D0E942B26892F082E000C990B8C17B3
:102160009D0791F48091A7038E9DA0018F9D500D36
:102170001124559547955595479598016091A6036B
:102180008091A5030E94F006CD0CF1E0EF1AF10852
:10219000C9F621960C5F1F4FCF30D10551F60E9432
:1021A0005A0F8091510291E0D91215C0811111C0CE
:1021B0008EE080935102DF91CF911F910F91FF909C
:1021C000EF90DF90CF90BF90089587FFC5CF815FDC
:1021D000C3CF8150EECF90E00196BE010E944D2604
:1021E000E8CF0F931F93CF93DF93C4E5D2E0FE01B6
:1021F0001182108212821382349682E0E039F8074D
:10220000B9F710E000E080915202082E000C990B03
:10221000081719078CF180911601082E000C990BF4
:10222000801791074CF19E014091A7036091A6038E
:102230008091A5030E94F0060F5F1F4F24960F3078
:10224000110509F70E945A0F8091150190915202D1
:10225000980F9093520220911601280F2093160197
:10226000121614F49E301CF0819580931501DF91B5
:10227000CF911F910F910895198218821A821B82A3
:10228000DBCF8F929F92AF92BF92CF92DF92EF926D
:10229000FF920F931F93CF93DF93EC014C81042F98
:1022A00010E09801D8010E94A6289B01AC010E9471
:1022B00071284B015C01E0E2F0E0E01BF10BA5E5C9
:1022C000B0E0AC019B010E9471286B017C019F0171
:1022D000DF010E9467269B01AC010E947C289B01C4
:1022E000AC01280D391D4A1D5B1DC701B6010E94B6
:1022F0008428F22E822F90E039E23F15D8F143E096
:10230000249F9001112435952795122F109594E55F
:10231000C92E92E0D92E00E085E5E82EEF188E2D2B
:1023200001FD8F2D9601412F6091A6030E94F006BA
:102330000F5F54E0C50ED11C0F3089F70E945A0F71
:102340009C8181E0992319F0903219F48FEF8093EA
:10235000170180911701890F8C83DF91CF911F9115
:102360000F91FF90EF90DF90CF90BF90AF909F9034
:102370008F90089525E530E0A901481B590BCA014B
:102380009A01220F331F280F391F37FFBCCF2F5F51
:102390003F4FB9CFEF92FF920F931F93CF93DF93ED
:1023A0008C01C4E5D2E0F12CE12CF801948160911C
:1023B000A6038091A503F7E0EF16F104FCF499233E
:1023C000F9F09E014091A7030E94F0062FEFE21A58
:1023D000F20A24968FE0E816F10439F70E945A0FAA
:1023E000F801848190E00196817099278483DF91C0
:1023F000CF911F910F91FF90EF900895992309F3CA
:102400009E0140E0E1CF9091A40390FF0DC0E4E570
:10241000F2E08183608342831382349692E0E03954
:10242000F907B9F70C945A0F08950F931F93CF93A0
:10243000DF9300D000D0CDB7DEB78C01809153027E
:1024400081110AC09E012F5F3F4F4FEF6FEF0E9437
:10245000F0068A8180935302F8016481613069F04B
:102460008091530240E0662361F040E0623011F455
:102470004091530280E060E004C06091530240E06C
:1024800080E00E940312F801848190E0019663E0ED
:1024900070E00E944D2684830F900F900F900F9054
:1024A000DF91CF911F910F910895CF93DF9300D0CB
:1024B00000D0CDB7DEB79091A40390FF0AC09E0173
:1024C0002F5F3F4F0E94F0064B8169818A810E94F5
:1024D00003120F900F900F900F90DF91CF910895FE
:1024E000CF93DF93EC01EC81F0E0EF54FE4F449189
:1024F000E4EAF3E0628181810E9455128C818F5F52
:102500008C83DF91CF910895CF93DF93EC01E4EAC0
:10251000F3E0438162818C810E9455128C818F5F30
:102520008C83DF91CF9108955F926F927F928F920B
:102530009F92AF92BF92CF92DF92EF92FF920F9352
:102540001F93CF93DF9300D000D0CDB7DEB7182F05
:10255000762E042F622E9091A40390FF29C0E92FBC
:10256000E695AE2FB0E0AB5DBE4F8C918093A90392
:102570009E7F923089F59E012F5F3F4F812F0E94F1
:10258000F0064B8169818A810E9403121093A50392
:102590007092A6030093A703662051F06091A403F4
:1025A0007091A5038091A6039091A7030E947A0BD6
:1025B0000F900F900F900F90DF91CF911F910F917F
:1025C000FF90EF90DF90CF90BF90AF909F908F9053
:1025D0007F906F905F900895823019F40091A70367
:1025E000D5CF863019F41091A503D0CF8930D9F317
:1025F000893161F6E9518E2F8170582EE695F0E011
:10260000E455FE4FA590B490BB2484E5E82E82E00B
:10261000F82ED12CC12C9FE0892E912CC601B4013B
:102620000E943926812F511013C0860F9701402F29
:10263000672D0E94F006CA0CDB1C84E0E80EF11C3A
:1026400080E9E81682E0F80649F70E945A0F9ECF0B
:10265000861BECCFE4EAF3E043812CE0421B08F454
:1026600040E021E0628181810C949412E4EAF3E07D
:1026700043812CE0420F08F44FEF21E06281818119
:102680000C949412E4EAF3E062812FEF621B08F4E9
:1026900060E021E0438181810C949412E4EAF3E04C
:1026A00062812FEF620F08F46FEF21E04381818197
:1026B0000C949412E4EAF3E0818121E04381628189
:1026C0008C500C949412E4EAF3E0818121E0438180
:1026D0006281845F0C949412E4EAF3E080818E7F3F
:1026E000808360817181828193810E947A0B109234
:1026F000AA032FEF80E792E0215080409040E1F75D
:1027000000C000000C945A0F80E290E090931901F1
:102710008093180180914A0281110EC00E946625A3
:1027200081E080934A022FEF83ED90E321508040B7
:102730009040E1F700C0000064E670E080E40E9491
:102740006C259093190180931801892B09F04EC0D4
:1027500064E670E080E00E94C825909319018093A0
:102760001801892B09F042C064E670E080E00E9405
:10277000C8259093190180931801892BB9F564E657
:1027800070E08FE30E94C82590931901809318018F
:10279000892B61F50E941B2664E670E080E40E94AC
:1027A0006C259093190180931801892BF9F464E644
:1027B00070E08CE00E94C825909319018093180165
:1027C000892BA1F464E670E080E00E94C825909314
:1027D000190180931801892B49F464E670E08FE3B6
:1027E0000E94C82590931901809318010E941B260E
:1027F000809118010895CF93873050F5809118018A
:1028000090911901C0E0892B71F464E670E081E4D5
:102810000E946C259093190180931801892B31F047
:10282000C0E00E941B268C2FCF91089584E690E093
:102830000E94F72597FF05C0909319018093180116
:10284000EFCFC82FC0951092190110921801E9CF4F
:10285000CFB18FB1869586958C73C3708C2BC82FA2
:10286000C095E1CF1F920F920FB60F9211242F93B4
:102870003F934F935F936F937F938F939F93AF9308
:10288000BF93CF93DF93EF93FF93D091E900DF7075
:102890008091EC00C82FC17080FDC0E81092E90063
:1028A0008091F000877F8093F00078940E944D0C17
:1028B0001092E9008091F00088608093F000CD2BA9
:1028C000CF70C093E900FF91EF91DF91CF91BF915D
:1028D000AF919F918F917F916F915F914F913F91B8
:1028E0002F910F900FBE0F901F9018951F920F926F
:1028F0000FB60F9211242F933F934F935F936F93D3
:102900007F938F939F93AF93BF93EF93FF938091A8
:10291000E10082FF09C08091E20082FF05C0809142
:10292000E1008B7F8093E1008091DA0080FF24C07A
:102930008091D80080FF20C08091DA008E7F809344
:10294000DA008091D90080FF9BC080E189BD82E1DF
:1029500089BD09B400FEFDCF81E08093E003809142
:10296000BB03811109C00E9428030E94F3038091D8
:10297000E20084608093E2008091E10080FF17C054
:102980008091E20080FF13C08091E2008E7F8093EF
:10299000E2008091E20080618093E2008091D800A3
:1029A00080628093D80019BC85E08093E003809119
:1029B000E10084FF29C08091E20084FF25C080E10E
:1029C00089BD82E189BD89B5982F917080FFFBCFC9
:1029D0008091D8008F7D8093D8008091E1008F7E18
:1029E0008093E1008091E2008F7E8093E2008091ED
:1029F000E20081608093E2008091E103882309F482
:102A000045C084E08093E0038091E10083FF27C00C
:102A10008091E20083FF23C08091E100877F809353
:102A2000E10082E08093E0031092E1038091E100F5
:102A30008E7F8093E1008091E2008E7F8093E200A0
:102A40008091E20080618093E20042E060E080E0FB
:102A50000E94C1038091F00088608093F000FF9194
:102A6000EF91BF91AF919F918F917F916F915F9106
:102A70004F913F912F910F900FBE0F901F9018957F
:102A800019BC1092E0031092BB0376CF8091E30053
:102A900087FD93E09093E003B7CF78941F921FB621
:102AA0001F9211248F939F93AF93BF938091EA035A
:102AB0009091EB03A091EC03B091ED030196A11D61
:102AC000B11D8093EA039093EB03A093EC03B093C2
:102AD000ED03BF91AF919F918F911F901FBE1F90EB
:102AE00018952FB7F8948091EA039091EB03A09189
:102AF000EC03B091ED032FBF08950F931F93CF9375
:102B0000DF93C62FD42F022FFC0182818823A1F0EE
:102B10006093F0030E9471159093EF038093EE038E
:102B2000C77081E001C0880FCA95EAF7DF91CF91A5
:102B30001F910F910C94E2058091F003681340C03F
:102B40002091EE033091EF034FB7F8948091EA03A0
:102B50009091EB03A091EC03B091ED034FBF821B6A
:102B6000930B883C910560F510E21D0F6D17B9F0CD
:102B700080E2860F883040F4C77081E001C0880F82
:102B8000CA95EAF70E94D705183048F481E09D2FD6
:102B9000977001C0880F9A95EAF70E94E205802F8E
:102BA0000E94DF0A183098F4D77081E001C0880FC6
:102BB000DA95EAF7DF91CF911F910F910C94D70529
:102BC000C77081E001C0880FCA95EAF7F3CFDF91A3
:102BD000CF911F910F9108956091A403669570E0C5
:102BE0004BE050E08AE091E00E94FD27892B19F428
:102BF00081E08093AA030E94711590939F038093B4
:102C00009E0308959091A40390FF36C091708111A6
:102C100029C092609093A403662351F06091A403AD
:102C20007091A5038091A6039091A7030E947A0B4F
:102C30006091A403669570E04BE050E08AE091E07B
:102C40000E94FD27892BA9F01092AA0381E08093AE
:102C5000A10320E04091A7036091A6038091A50302
:102C60000C9494128B3210F09465D4CF880F982B6B
:102C7000D1CF0E94EC15EACF0895E4EAF3E0808119
:102C80008160808360E086950C94021661E00C946C
:102C90000216E4EAF3E080818160808386950C94DB
:102CA00046168091A4038695815009F48AE261E07A
:102CB0000C9402168091A40386958F5F8B3208F0E6
:102CC00081E061E00C9402169091A40390FF07C08C
:102CD0009695981720F0961710F40C945A160C94A9
:102CE0004616CF92DF92EF92FF92CF936B017C0159
:102CF000C701AA27BB27C0E10097A105B10519F4B8
:102D0000D701CB01C0E0492F5A2F6B2F77274115F0
:102D100051056105710519F0C85FDB01CA01AC01FD
:102D2000BD01E4E07695679557954795EA95D1F70B
:102D3000411551056105710519F0CC5FDB01CA0130
:102D4000AC01BD0132E076956795579547953A9568
:102D5000D1F7411551056105710519F0CE5FDB0111
:102D6000CA01B695A79597958795892B8A2B8B2BAA
:102D700009F0CF5F0E943C0A0E94390A0E94360A7D
:102D80000E94330AEFEFEC0FE73008F05FC0F0E08D
:102D9000E153F74D0C9461260E94450A8091ED02A3
:102DA00081110CC00E943D1660E081E00E94021675
:102DB00020E04FEF6FEF86EA0E949412C701B60140
:102DC000CF91FF90EF90DF90CF9008950E94420A3C
:102DD0008091ED028111F2CF0E943D1660E081E00A
:102DE0000E94021620E04FEF6FEF80E0E5CF0E94D7
:102DF000450A0E94420A8091ED028111DFCF88E0EE
:102E000090E00E9412286093A4037093A50380931E
:102E1000A6039093A70360FF20C00E9449168091EB
:102E2000A40386950E94461621E04091A703609175
:102E3000A6038091A503C0CF0E94450A0E943F0AC5
:102E4000DACF0E94450A0E94420AF8CFC13009F445
:102E5000A5CFC23009F4BCCFCECF0E946C13AECF49
:102E60000E9471166093870370938803809389038F
:102E700090938A030C9418060F931F9341E050E03F
:102E800060E070E004C0440F551F661F771F8A95ED
:102E9000D2F7CB01BA01609570958095909500911D
:102EA0008703109188032091890330918A0360235E
:102EB0007123822393231F910F910C9430179091CB
:102EC00063038095892380936303282F277071F40F
:102ED000282F082E000C330B9217130639F0859516
:102EE000859585950E943C171092630308950F9372
:102EF0001F9341E050E060E070E004C0440F551FB4
:102F0000661F771F8A95D2F7809187039091880377
:102F1000A0918903B0918A038A019B01082B192B88
:102F20002A2B3B2BC901B8011F910F910C9430172C
:102F30004F925F926F927F928F929F92AF92BF92C9
:102F4000CF92DF92EF92FF920F931F93CF93DF9375
:102F500000D000D00F92CDB7DEB76C01FC018381A9
:102F60009481892B39F01081F180812F8F218F3F3F
:102F700009F0CFC60F900F900F900F900F90DF9138
:102F8000CF911F910F91FF90EF90DF90CF90BF9066
:102F9000AF909F908F907F906F905F904F9008952B
:102FA0000E946209082F682F89819A810E948A05F0
:102FB000E12FF0E026E0F29EE00DF11D112434E552
:102FC000039FE00DF11D1124EE0FFF1FEF54FD4F85
:102FD00005911491F60182810A32FDE51F0709F07F
:102FE0009AC08823C9F18091720391E0980F97707D
:102FF000887F953008F4892B809372038091720347
:1030000087702FEF829FC001112495958795959524
:1030100087959927909389008093880090938B00DF
:1030200080938A0090938D0080938C00409172036E
:103030005091730360917403709175038FE090E079
:103040000E943028609187037091880380918903E2
:1030500090918A030E947116F6018281882309F4F7
:10306000C9C09801225E3C452530310508F0C2C038
:103070006EE1600F60936E038CE090E00E941E286A
:10308000F6019281992309F46CC61092F003023084
:10309000FCE51F0708F44EC606312CE5120738F090
:1030A00098012B5F3C452730310508F043C60E944C
:1030B0006C0B90938503809384030F303CE51307DA
:1030C00009F429C208F0A3C108309CE5190709F4E6
:1030D0000CC208F078C10430FCE51F0709F4F9C1FF
:1030E00008F05EC102303CE5130709F4EAC1033081
:1030F0001C4509F4EAC1609184031091850384E0C2
:1031000090E00E941E28612F81E290E00E941E281C
:103110000E94380C33C00D323DE5130709F450C04E
:1031200078F40B32EDE51E0709F10C32FDE51F07BF
:1031300009F092CF882311F181E00E9446161EC04B
:103140000E322DE5120709F449C00F323DE5130791
:1031500009F082CF882391F00E94491681E00E94F5
:10316000461621E04FEF6FEF8BE135C0882331F039
:103170008091ED0291E089278093ED0280916303B5
:10318000877009F4F7CEF6018281882309F4F2CE24
:1031900082E00F900F900F900F900F90DF91CF91E2
:1031A0001F910F91FF90EF90DF90CF90BF90AF9065
:1031B0009F908F907F906F905F904F900C945F17CF
:1031C0008823E1F20E94491681E00E94461621E020
:1031D0004FEF6FEF8CEA0E949412D0CF882371F2E8
:1031E0000E94491681E00E94461621E040E86FEFF8
:1031F00086E5F1CF17FF9AC0882309F441CFE0910B
:103200008B03F0918C0380E0309721F00190F081E6
:10321000E02D0995869581708093EF0290916E0361
:10322000913029F4882319F089E30E94DF0A809104
:1032300066038093EE021092660380916E038130E4
:1032400009F44AC0882309F443C0823009F44DC010
:10325000843009F451C08FE39CE90197F1F700C075
:1032600000004801E89497F8FCE0AF2EB12CC401AF
:103270000A2C02C0969587950A94E2F78F70E7E2D0
:10328000EE2EF12C882339F0E82EF12C8A30C8F587
:103290009DE1E90EF11CC7010E941E0AC7010E94B0
:1032A000090AF4E0AF1AB1082CEFA2162FEFB2060C
:1032B000F1F680916E03813061F1882331F1823023
:1032C00021F1843089F18091EE0280936603D8CE9B
:1032D00082EE0E946206BFCF88E193E00E941E0A40
:1032E00088E193E00E94090AB6CF82EE0E9462064E
:1032F00087E50E94DF0AAFCF86EE0E94DF0A88E1F1
:10330000F8CFE6E0EE1AF108C6CF82EE0E94300652
:10331000DACF8CE20E94DF0A8091EF02882399F2D3
:1033200089E30E94DF0ACFCF88E2FBCF043F3CE570
:10333000130739F188F4093D9CE51907F1F00A3DBE
:10334000ECE51E0751F1083DFCE51F0709F098CE9A
:1033500026E241EE61EE0DC0063F2CE51207C9F0F2
:10336000A0F027E245EE66EE073F8CE5180709F06E
:1033700087CEC6010E947D1501CF27E245EE65EE9E
:10338000F8CF26E241EE60EEF4CF27E245EE64EEA0
:10339000F0CF26E241EE62EEECCF28E241E0EFCF43
:1033A00080918403806106309CE5190709F447C0C9
:1033B00080918403886007301C4508F440C08091E8
:1033C000840380623CC00B30FCE51F0709F49BC0FE
:1033D00068F409303CE5130709F48BC00A301C453A
:1033E00009F089CE809184038C6029C08091840388
:1033F0008B7F0D309CE5190711F1809184038D7F3F
:103400000E301C45E0F080918403877F18C00B3F8D
:10341000FCE51F0709F461C060F502313CE51307C4
:1034200009F481C078F400319CE5190709F477C0EC
:10343000809184038F7B01311C4509F05CCE809321
:10344000840359CE0431FCE51F0709F47AC008F45F
:1034500070C005311C4509F04ECE8091840382FB7B
:10346000992790F921E0922790FB82F990FB83F94C
:10347000E6CF0E3F8CE5180709F449C070F40C3F05
:10348000ECE51E0771F1809185038E7F0D3F1C4591
:1034900009F031CE809385032ECE01152DE512075C
:1034A00009F44BC060F101301D4509F024CE809134
:1034B0008503982F909591708E7F892B90FB81F9D1
:1034C000E9CF809184038160BACF809184038260C8
:1034D000B6CF809184038460B2CF809185038160F0
:1034E000D9CF809185038260D5CF80918403806499
:1034F000A6CF0E94380C809184038068A0CF809171
:1035000085038360C7CF809184038E7F98CF80919D
:1035100085038D7FBFCF809184038F7E90CF809174
:1035200084038F7D8CCF0E94380C809184038F7729
:1035300086CF80918403837F82CF809185038C7FA7
:10354000A9CF0E94380C90918403892F97FB87F9AB
:10355000805875CF992309F46DC0809166038272FB
:10356000F801E35CFC45E431F10508F05AC0EA5289
:10357000F74D0C9461268091A40380FF03C00E9444
:103580006C13FCCD0E944916F9CD41E556E16AE580
:1035900076E10E94DC06F2CD4AE556E161E576E18E
:1035A000F8CF4AE553E163E673E1F3CF43E653E135
:1035B0006AE573E1EECF42E453E16EE473E1E9CFF3
:1035C0004EE453E162E473E1E4CF4AE253E166E39F
:1035D00073E1DFCF46E353E16AE273E1DACF4CE80F
:1035E0005BE06DE97BE0D5CF4DE95BE06CE87BE02B
:1035F000D0CF65E082E00E946416C0CD68E086E02E
:10360000FACF6EE089E0F7CF64E18FE0F4CF67E1B5
:1036100085E1F1CF88E191CD62E289E1ECCF83E2EF
:103620008CCD0115ECE51E0709F44EC00F3D1C457D
:1036300009F487C0F60100811181992309F484C03F
:10364000C8010E946209F82E682FC8010E948A05ED
:10365000B8018F2D0E94CA07082FF92EB82EF60147
:10366000E580E2947FE0E722128111111092650358
:10367000809163038770C1F01123B1F08F2D807F9B
:10368000803449F090E2900F983070F0803619F451
:10369000F6EFBF1649F082E00E945F178091630346
:1036A0008770AA24A3948111A12C9F2C92945FE08F
:1036B00095226BE0462E491408F481C0E92DF0E014
:1036C000E651F74D0C9461260E94380C2FEF34E33D
:1036D0008CE0215030408040E1F700C00000F894B9
:1036E00081E08093E00080E28093D8001092C900CE
:1036F000EFE1FEE43197F1F700C000001DBA10922F
:1037000068001CBC10BE1FBA10927A0010926E00A6
:1037100010926F0010927100109272001092C90006
:103720001092BC0014B817B81AB81DB810BA10928D
:10373000BC0015B818B81BB81EB811BA0C94003FDD
:103740001DCD0E94BD0B1ACDC8010E946105F82E47
:103750007FCF2F2D2F70E22E8F2D807F19F0E294D6
:1037600040EFE4221123C9F0EE2069F080E2800FDF
:10377000883010F0B1100BC080916603E82AE09207
:1037800066030E941C05802F0E94620618C080916B
:103790006503E82AE0926503F4CF802F0E9430068B
:1037A000EE2069F0E094005E083010F0B11057C0D0
:1037B00080916603E822E09266030E941C05292D91
:1037C0002850330B2430310510F40E94D006112309
:1037D00079F08F2D807F803619F436EFB31641F0E3
:1037E0008091F102823009F08CC283E08093F10273
:1037F000AA20A9F08091630380FD11C0F601128216
:103800008595859585950E947717C6010E94981722
:10381000809163038595859585950E943C1785E089
:10382000F601DE01119601900D928A95E1F78981EA
:103830009A810E9461059A81E981F0E026E0929FD9
:10384000E00DF11D112434E5839FE00DF11D1124DD
:10385000EE0FFF1FEF54FD4F859194918BCB80911C
:103860006503E822E0926503A8CF3F2D3F70832EC9
:103870008F2D807F803219F0829430EF8322BB201D
:1038800041F081E0B81631F1112381F1EE2049F1C8
:103890007ACF112391F090916703882D892BE11045
:1038A00003C00E94E2058BCFE1E0EE12FACF981739
:1038B00009F485CF8093670382CFE11006C00E9490
:1038C0001605882D0E94D7057ACFF1E0EF1609F48E
:1038D00076CFF5CF112339F0442443944E1408F4E5
:1038E0006ECF882DDECFE1106ACFEBCFEE2049F30B
:1038F00029E3522EB51009C02FEF37EE83E0215097
:1039000030408040E1F700C00000802F0E94300668
:1039100056CF8F2D86958695837069F0813009F09A
:103920004ECF802F9F2D9370111102C090E080E048
:103930000E94EC0544CF802F9F2D9370111102C07F
:1039400090E080E00E9402063ACF8F2D837009F04C
:1039500067C0111134CF202F229526952770220F92
:10396000220F402F4F7050E070E060E0022E04C044
:10397000440F551F661F771F0A94D2F780E090E02E
:10398000DC0104FF0FC08FE090E0A0E0B0E004C0D5
:10399000880F991FAA1FBB1F2A95D2F78095909573
:1039A000A095B0952F2D269526952370223029F1CC
:1039B000D8F4409068035090690360906A03709057
:1039C0006B03213069F0842B952BA62BB72BBC0100
:1039D000CD0164217521862197210E942606EFCE14
:1039E00044295529662977292A013B01482A592A61
:1039F0006A2A7B2AC301B201F0CF842B952BA62B18
:103A0000B72B409068035090690360906A037090F0
:103A10006B03BC01CD016425752586259725DDCF77
:103A20008695112311F08F2D8170882309F4C7CE5C
:103A3000202F229526952770220F220F402F4F709E
:103A400050E070E060E0022E04C0440F551F661F76
:103A5000771F0A94D2F780E090E0DC0104FF0FC0EA
:103A60008FE090E0A0E0B0E004C0880F991FAA1F8B
:103A7000BB1F2A95D2F780959095A095B0952F2DD4
:103A8000269526952370223029F1D8F4409087039B
:103A9000509088036090890370908A03213069F008
:103AA000842B952BA62BB72BBC01CD01642175214E
:103AB000862197210E94301782CE442955296629F4
:103AC00077292A013B01482A592A6A2A7B2AC301FD
:103AD000B201F0CF842B952BA62BB72B40908703F8
:103AE000509088036090890370908A03BC01CD01D7
:103AF0006425752586259725DDCF2F2D2F70E22E85
:103B0000112329F0822F0E947717802FCACE802F91
:103B10000E94D7058E2D0E943C1751CE802F32EF88
:103B2000B31609F452C03B1578F090EFB91629F19D
:103B3000E1EFBE1609F441C0112309F46AC0E11097
:103B400022CE8F2D8F713EC0F3EFBF1609F442C015
:103B500094EF492EB410F0CF112309F44FC00F2D6C
:103B60000F71802F0E94771728E0029FC001112457
:103B7000836080936303802F25C01123C1F0E1107F
:103B80001ECE2F2D2F7161E070E080E090E004C028
:103B9000660F771F881F991F2A95D2F740908703D9
:103BA000509088036090890370908A03A1CF5524B8
:103BB00053945E1408F403CEE4CF8F2D8F7111233C
:103BC00009F4A9CF0E947717FACD8F2D8F71112399
:103BD000C9F3A1CF60E070E0CB01112309F46ACFF3
:103BE0002F2D2F7161E070E080E090E004C0660F3F
:103BF000771F881F991F2A95D2F75CCF81E00E941A
:103C00005F1731E03E1508F0DACD82E00E945F17C1
:103C1000D6CDEE2059F0893309F077CE8FEF97EEAD
:103C2000E3E081509040E040E1F76DCE8F2D8F7141
:103C300072CFE0E1E00FE73008F03EC0F0E0EA507C
:103C4000F74D0C946126112309F4B9CD8091F3024C
:103C500091E089278093F302B2CD1093F302AFCDA8
:103C600081E08127F7CF1111AACD81E0F3CF1111A7
:103C7000A6CD1092F302A3CD112321F082E0809310
:103C8000F102F3CF8091F102823021F481E0809340
:103C9000F10295CD833009F092CD1092F102E9CF77
:103CA000112339F08091F202882381F21092F202FE
:103CB00086CDEE2059F283CD8091F202EE20A9F05C
:103CC000882341F08091F30291E089278093F302E9
:103CD0001092F202802F111157CD0E94300686E01B
:103CE000F60111928A95E9F76ACD882309F467CD28
:103CF000111165CD8091F30291E089278093F30241
:103D0000D5CF813009F074CD1092F1021092F302F8
:103D10006FCD85E0DE01119601900D928A95E1F755
:103D2000F601228189819A8121113AC90E94610597
:103D3000082F3EC90631FCE51F0709F00BCC809126
:103D400066038A7A91E009F490E09093F00269E2C8
:103D5000811165E38AE292E00E94E1040E941C0561
:103D60000DCA06311C4509F065CC8091F00269E26C
:103D7000811165E38AE292E00E94B704EFCF1F93BE
:103D8000CF93DF938091F902807FA9F48091F602AE
:103D9000882389F080912B03D091FA026091F4027C
:103DA0007091F502A091F702B091F802C62FC723D7
:103DB00016E0D81304C0DF91CF911F91089590E0D1
:103DC000109711F0CF3F19F401968770F2CF189F2A
:103DD0009001199F300D1124F901E550FD4F4181EB
:103DE0004713F2CF40814613EFCF42814111ECCF10
:103DF000438154814A1B5B0B483C510528F7809155
:103E0000F9028F7080618093F902F901E050FD4F53
:103E100080818F708061808384EF92E00E94981788
:103E2000DF91CF911F910C94B805AF92BF92CF92C2
:103E3000DF92EF92FF920F931F93CF93DF93CDB753
:103E4000DEB761970FB6F894DEBF0FBECDBF8C0111
:103E500085E0F801DE011D9601900D928A95E1F74B
:103E6000F80180819181E28024EFA22E22E0B22E1F
:103E70006091F7027091F8026115710509F43EC175
:103E80003091F4024091F502232F24232F3F09F4AF
:103E900035C1C380D480F090F602F601E61BF70B23
:103EA000FF2009F4FBC02091F902522F507FE83C1B
:103EB000F10508F0BBC0511178C0FE2C491321C098
:103EC00038131FC0E1101DC02F7020612093F9022C
:103ED000C5010E9498178091F902F80185838F2D02
:103EE00061960FB6F894DEBF0FBECDBFDF91CF91C4
:103EF0001F910F91FF90EF90DF90CF90BF90AF9008
:103F00000895CD2829F0282F29232F3F09F022C119
:103F100020E0F22FF170DF2E20FF3DC020912B0317
:103F20004091FA0256E0241315C08D879E878D8537
:103F30009E850E94A409292F22952F702230F8F027
:103F4000243020F59F70F9F0F8019581907FD9F425
:103F5000D12C1FC030E0529FF001539FF00D11246F
:103F6000E550FD4F6181961306C06081861303C042
:103F70006281E61210C02F5F3F4F2770D4CF9F7031
:103F800011F0882329F3805E883010F3C8010E9465
:103F90009817FD2CA4CFEE2009F4A1CF8091F9024F
:103FA00081608093F902F12C9ACF491312C0381323
:103FB00010C0E1100EC0F8012583C8010E949817B7
:103FC00086E0F801A4EFB2E001900D928A95E1F746
:103FD00086CF8D879E878D859E850E94AE0988231A
:103FE00009F1EE20F9F08091F902803270F0209111
:103FF000F4023091F50238872F831986DB86CA8652
:104000008C87CE0107960E94981786E0F801A4EFEE
:10401000B2E001900D928A95E1F70E94BF1EFF2445
:10402000F3945DCFC8010E949817F9CF51110AC0CF
:1040300084EF92E00E94981786E0F50111928A952C
:10404000E9F7B1CF49130FC038130DC0E1100BC011
:10405000F8012583C8010E94981786E0F5011192A6
:104060008A95E9F73CCF8D879E878D859E850E9436
:10407000AE098823B9F2EE20A9F28091F9028032CC
:1040800020F22091F4023091F5023A8329831B82B9
:10409000DD82CC828E83CE010196B5CFE83CF1055E
:1040A000E0F6FE2CEE2009F4BDCF491316C03813FC
:1040B00014C08091F90280FD83CF982F907F09F47E
:1040C0007FCFF8018583903F09F477CF982F907FB9
:1040D000905F8F70892B858370CF8D879E878D85AC
:1040E0009E850E94AE09811190CF8091F902816076
:1040F0008093F902C8010E949817F1CEEE2009F4CE
:1041000091CF8D879E878D859E850E94AE09F82E62
:10411000882309F487CF86E0F801A4EFB2E001908C
:104120000D928A95E1F78091F4029091F5020E9438
:10413000A40992959F70963051F4863F41F080918A
:10414000F30291E089278093F3029093F2020E9498
:10415000BF1EC5CE21E02E25DCCE1F93CF93DF936B
:10416000CDB7DEB767970FB6F894DEBF0FBECDBFF1
:104170006D8B7E8B8F8B8E899F89892BE1F0852FAC
:1041800084238F3F09F098C05FEF4FEF14C0309148
:10419000F302332309F44EC0E42FF0E036E0539FDE
:1041A000E00DF11D1124EE0FFF1FE05BFE4F40817B
:1041B0005181822B8C931A8A198A4B8B5C8B85E0F8
:1041C000FE017396DE011D9601900D928A95E1F72E
:1041D00086E0FE013D96DE01179601900D928A95CC
:1041E000E1F7CE0107960E94151F811112C086E0EB
:1041F000FE013796DE01119601900D928A95E1F746
:104200008A859B85892B29F08F81988589238F3F0B
:10421000C9F516E080912B039091FA02891320C012
:1042200067960FB6F894DEBF0FBECDBFDF91CF917A
:104230001F91089580958223BDCF96E0929FD00173
:10424000939FB00D1124A550BD4FFE0131960190F2
:104250000D929A95E1F78093FA020E94B805D9CFA2
:10426000819FC001112485509D4F0E94151F8823F6
:10427000B9F280912B0390E0019687709927809383
:104280002B03C8CF2091FA0230E0C9010196877054
:10429000992740912B034817190679F60E94380C8C
:1042A0001092FA0210922B0386E0E4EFF2E0DF01B5
:1042B0001D928A95E9F7ADCF81E090E0042E01C010
:1042C000880F0A94EAF7A52FB0E0A152BD4F2C91B8
:1042D0003D8931115CCF322F38235BCF8F929F9273
:1042E000BF92CF92DF92EF92FF920F931F93CF93E3
:1042F000DF938091180190911901892B91F08091A1
:104300004B028F5F80934B0281110BC00E9484137C
:1043100090E09093190180931801892B11F40E9469
:10432000F20A26E7822E23E0922E740110E000E0CC
:1043300097E0C92EC00E802F0E94060F8C2D0E9480
:10434000060F802F0E94FB13E70199917E01D12C6B
:10435000891729F0FE0131978083DD24D3948C2DB9
:104360000E94FB13F7019681891709F47AC08683AE
:1043700081E08D29182B0E94480A0F5F0730C1F693
:104380000E94711560914D0270914E0290934E0201
:1043900080934D0220914C0230E0261B370B820F98
:1043A000931F6BEF70E00E943926E82E392F082FFB
:1043B00080934C02F0905002FF2009F45EC01092EE
:1043C0005002E0916C03F0916D03AF01425F5F4FCB
:1043D00020E08BEFB82E6BEF70E0A191AB3F99F02E
:1043E000CA2ED12C8E2D932F0A17E8F18C199D0916
:1043F000092E000CAA0BBB0B4E97A105B105C8F105
:10440000DF011197BC924E175F0739F720935002D6
:10441000111102C0211133C010924F02A0916C0300
:10442000B0916D0390915002E0E9F3E080E03191AA
:10443000E40129914E01321751F03C913B3FD9F4F0
:104440000C93AF0141505109EA01288391E0119684
:10445000D3E0EE39FD0759F79093500280934F0255
:1044600012C080E086CFDB01AC19BD098A0F9B1F0B
:10447000BFCF2F2DC8CF81E0EACF1111CDCF8091D2
:104480004F028111C9CF812FDF91CF911F910F91E1
:10449000FF90EF90DF90CF90BF909F908F90089506
:1044A000CDB7DEB72A970FB6F894DEBF0FBECDBFEB
:1044B00084B7877F84BF0FB6F894A8958091600079
:1044C000886180936000109260000FBE80E890E0E9
:1044D0000FB6F89480936100909361000FBE85B78A
:1044E000806885BF85B7806885BF0E9428030E94C9
:1044F000F3038091E20084608093E20078948091DD
:10450000E0038823A1F01091E9001F709091EC0066
:10451000892F817090FD80E8182B1092E90080911E
:10452000E80083FD0E944D0C1F701093E90082E0AB
:1045300084BD93E095BD9AEF97BD80936E000E9475
:10454000841390E090931901809318010E94480A07
:104550000E94570AE6E7F3E084E893E0A0E9B3E0BD
:1045600011921D928E179F07D9F78EE090E00E945E
:10457000D22680936C0390936D03FC010E962BEF73
:1045800021938E179F07E1F790E080E00E941828A2
:104590008F3E9E4F11F00E94BD0B8CE090E00E9478
:1045A0000A2890E0B0E0A0E080936E0390936F0340
:1045B000A0937003B093710389EA8093800089E02F
:1045C0008093810024982C983F988AB18F7C8AB977
:1045D0006E98479A8BB180638BB9769A8FE090E0A2
:1045E0000E94122860937203709373038093740384
:1045F0009093750367708FEF689FB00111247595D4
:104600006795759567957727709389006093880003
:1046100070938B0060938A0070938D0060938C0080
:104620000E94F20A90E080E00E9418288F3E9E4F80
:1046300011F00E94BD0B82E090E00E940A28809356
:10464000AC030E946C0B909385038093840383E0FA
:1046500090E00E940A28682F70E090E080E00E94BD
:104660002606609187037091880380918903909159
:104670008A030E94711680918603811136C090E0F2
:1046800080E00E9418288F3E9E4F21F00E94BD0BB3
:104690000E94AE0B88E090E00E9412286093A40371
:1046A0007093A5038093A6039093A7036E7F71F484
:1046B0000E94AE0B88E090E00E9412286093A40351
:1046C0007093A5038093A6039093A7030E94E1062D
:1046D0001092AA038091A40380FF04C060E0869535
:1046E0000E94021681E08093860360918703709197
:1046F00088038091890390918A030E9471168AE150
:1047000091E090938C0380938B03A8E1EA2EF12C27
:10471000B0E4CB2E80E993E01EE0D12ED80E80913C
:10472000E003BB24B39400E112E1853009F4EDC04D
:104730000E946E21ADEAB3E0E0E9F3E010E000E0B2
:10474000302F81912D91281709F4F7C090E0BB24F8
:10475000B3942827422F4B2109F4EAC099833A8366
:104760008B2191E009F490E09B830E947115816098
:10477000782F9D838C8349815A816B818D810E9422
:10478000AD20F801E355FC4F8081B826B0828091BE
:10479000AA03882309F44CC08091A903E091A403E3
:1047A000E695E81BE093A003823009F0DDC0F0E05D
:1047B000E654FB4FE4910E2F10E0F0E7AF2EF2E14C
:1047C000BF2E8091A103882389F01092A1030E943B
:1047D0007115980120953095820F931F90939F0338
:1047E00080939E031092A3031092A20320919E0334
:1047F00030919F034FB7F8948091EA039091EB03B7
:10480000A091EC03B091ED034FBF821B930B801777
:10481000910770F0E0919E03F0919F030E0F1F1F10
:1048200010939F0300939E038EE993E0F501099591
:104830000E94D0069091AB03891709F470CF0E94B3
:10484000D0068093AB036BCF8091E003843009F4F2
:104850003DC010928D030FB6F894A895E0926000C9
:104860000FBEC09260001092AA0380918F03811145
:1048700016C0B0928F038091A403982F91709093EB
:104880008E038E7F8093A4032FEF80E792E0215068
:1048900080409040E1F700C000000E945A0F83B7AB
:1048A000817F846083BF83B7816083BF789488955C
:1048B00083B78E7F83BF0FB6F894A8958091600070
:1048C000886180936000109260000FBE8091DF03CA
:1048D0008823D9F00E94841390E09093190180936B
:1048E00018010E94480A0E94570AE0E9F3E0119279
:1048F00023E0EE39F207D9F70E946E21E0E9F3E0F8
:10490000819181119DC0DE12FBCF8091E003853043
:1049100009F49ACF0E94380C0E94D00610928F039F
:1049200080918E0381110E943D160E94EC1500CFEC
:104930009F5FBB0C963009F00DCF0F5F1F4F0E30FD
:10494000110509F0FDCE8FEF8E838F8318860E94AC
:1049500071158160782F9A8789874E815F8168857C
:104960008A850E94AD2013CF863059F4F0E0E954D7
:10497000FB4FE4910E2F10E0E4E8AE2EE2E1BE2EF4
:1049800020CF893061F4E695F0E0EC54FB4FE491E0
:104990000E2F10E078E5A72E70E1B72E12CF8F30E2
:1049A00061F4E695F0E0EF54FB4FE4910E2F10E038
:1049B00062E8A62E60E1B62E04CF853159F4F0E00E
:1049C000E255FB4FE4910E2F10E051EFA52E50E180
:1049D000B52EF7CE08E210E021E4A22E21E1B22E9E
:1049E000883109F4EECE833249F4ECEAF4E0059123
:1049F000149145E1A42E42E1B42EE3CE04EF11E080
:104A00009AECA92E91E1B92E843209F4DACE8532DE
:104A100081F48E2F63E00E941F26E92FF0E0E75516
:104A2000FB4FE4910E2F10E03FECA32E3FE0B32E9E
:104A3000C8CE00ED17E082EBA82E84E0B82EC1CEE0
:104A400009BD19BD09B400FEFDCF8091D8008F7D4E
:104A50008093D8008091E00082608093E000809194
:104A6000E00081FDFCCF0E94380C8FEF93ECE9E071
:104A700081509040E040E1F700C0000046CF1F9217
:104A80001FB61F9211248F939F93AF93BF93809172
:104A90008D03811113C08091EA039091EB03A091E3
:104AA000EC03B091ED034196A11DB11D8093EA0383
:104AB0009093EB03A093EC03B093ED03BF91AF9100
:104AC0009F918F911F901FBE1F9018951092B90053
:104AD0008CE08093B8000895EF92FF920F931F939C
:104AE000CF93DF93182FEB011092BC0084EA8093E0
:104AF000BC000E9471157C018091BC0087FF27C01B
:104B00008091B900887F883029F08091B900887F32
:104B10008031D9F51093BB0084E88093BC000E94DB
:104B200071158C018091BC0087FF24C02091B900D1
:104B3000287F90E080E02831B1F081E090E02034DF
:104B400011F490E080E09195819591090CC0CF3FE0
:104B5000DC0791F20E9471158E199F098C179D0731
:104B600058F28EEF9FEFDF91CF911F910F91FF9041
:104B7000EF900895CF3FDC07A9F20E947115801BCA
:104B8000910B8C179D0770F2ECCF8FEF9FEFEBCF5F
:104B90000F931F93CF93DF93EB018093BB0084E8C7
:104BA0008093BC000E9471158C018091BC0087FF2E
:104BB00011C02091B900287F81E090E0283211F4E3
:104BC00090E080E0919581959109DF91CF911F91BF
:104BD0000F910895CF3FDC0741F30E947115801BB0
:104BE000910B8C179D0708F38EEF9FEFEECF0F937D
:104BF0001F93CF93DF93EC0184E88093BC000E9465
:104C000071158C018091BC0087FF08C08091BB00AA
:104C100090E0DF91CF911F910F910895CF3FDC0776
:104C200089F30E947115801B910B8C179D0750F31F
:104C30008EEF9FEFEECF84E98093BC000895991B1F
:104C400079E004C0991F961708F0961B881F7A9583
:104C5000C9F78095089587FB082E062687FD819564
:104C600067FD61950E941F260EF4919507FC8195C2
:104C70000895AA1BBB1B51E107C0AA1FBB1FA617A3
:104C8000B70710F0A61BB70B881F991F5A95A9F7F5
:104C900080959095BC01CD01089597FB072E16F4E1
:104CA000009407D077FD09D00E94392607FC05D073
:104CB0003EF4909581959F4F0895709561957F4F33
:104CC0000895EE0FFF1F0590F491E02D09940E94C6
:104CD000A628332312F48A1B9B0B0C9471260E9486
:104CE000A628B7FF0895821B930B08958F929F9279
:104CF000AF92BF92CF92DF92EF92FF92CF93DF936A
:104D0000EC01688179818A819B816115710581053A
:104D1000910521F464E279ED8BE597E02DE133EF25
:104D200041E050E00E94522849015A019B01AC0128
:104D3000A7EAB1E40E9471286B017C01ACEEB4EFEC
:104D4000A50194010E947F28DC01CB018C0D9D1DE3
:104D5000AE1DBF1DB7FF03C00197A109B0488883EE
:104D60009983AA83BB839F77DF91CF91FF90EF90C8
:104D7000DF90CF90BF90AF909F908F9008950E944A
:104D80007626089580E091E00E9476260895B0E0AE
:104D9000A0E08093000190930101A0930201B093E1
:104DA000030108950F931F93CF93DF9382309105F2
:104DB00010F482E090E0E091F303F091F40330E02E
:104DC00020E0B0E0A0E0309799F42115310509F416
:104DD00047C0281B390B24303105C0F58A819B81DF
:104DE0006115710571F1FB0193838283FE0111C08E
:104DF000408151810281138148175907F8F0481703
:104E0000590799F4109761F012960C931297139624
:104E10001C933296CF01DF91CF911F910F9108958E
:104E20000093F3031093F403F4CF2115310519F027
:104E30004217530718F49A01BD01EF01DF01F80191
:104E4000C2CF9093F4038093F303D0CFFE01E20F1F
:104E5000F31F819391932250310939832883DACF4C
:104E60002091F1033091F203232B41F420910601AC
:104E7000309107013093F2032093F1032091040154
:104E8000309105012115310541F42DB73EB7409110
:104E9000080150910901241B350B4091F1035091F9
:104EA000F2034217530708F0B5CF241B350B281720
:104EB000390708F4AFCFBC016E5F7F4F2617370765
:104EC00008F4A8CF640F751F7093F2036093F10389
:104ED000FA01819391939ECFCF93DF930097E9F0EE
:104EE000FC01329713821282C091F303D091F40334
:104EF000DE0130E020E02097A1F420813181820F93
:104F0000931F2091F1033091F2032817390709F01C
:104F100067C0F093F203E093F103DF91CF9108951E
:104F2000DA01AE17BF0708F040C012964D915C91B0
:104F300013979D014115510599F7D9011396FC93DB
:104F4000EE9312974D915D91A40FB51FEA17FB07E1
:104F500079F4808191810296840F951FD901119671
:104F60009C938E938281938113969C938E93129738
:104F7000B0E0A0E08A819B810097B9F5FE018191A4
:104F80009191E80FF91F8091F1039091F2038E1730
:104F90009F0719F6109761F51092F4031092F3032E
:104FA000D093F203C093F103B8CFB383A2834081BF
:104FB0005181840F951FA817B90771F44E5F5F4F99
:104FC0008D919C911197480F591F518340831296E0
:104FD0008D919C91938382832115310509F0ADCF8A
:104FE000F093F403E093F30398CFDE01EC01C2CF1A
:104FF00013961C921E921297D3CFFC014150504041
:1050000030F001900616D1F73197CF010895882727
:1050100099270895F999FECF92BD81BDF89A9927F5
:1050200080B50895A6E1B0E044E050E00C94442837
:10503000A8E1B0E042E050E00C944428262FF99912
:10504000FECF92BD81BDF89A019700B4021639F0E7
:105050001FBA20BD0FB6F894FA9AF99A0FBE0895B8
:105060000396272F0E941F280E941E28252F0E948A
:105070001F28242F0C941F280196272F0E941F28D9
:105080000C941E28DC01CB01FC01F999FECF06C06F
:10509000F2BDE1BDF89A319600B40D9241505040F6
:1050A000B8F70895052E97FB1EF400940E94692816
:1050B00057FD07D00E94842807FC03D04EF40C94BF
:1050C000692850954095309521953F4F4F4F5F4F40
:1050D000089590958095709561957F4F8F4F9F4F64
:1050E00008950E94A628A59F900DB49F900DA49F9F
:1050F000800D911D11240895B7FF0C9471280E9412
:105100007128821B930B0895A1E21A2EAA1BBB1BC8
:10511000FD010DC0AA1FBB1FEE1FFF1FA217B30783
:10512000E407F50720F0A21BB30BE40BF50B661F99
:10513000771F881F991F1A9469F76095709580955D
:1051400090959B01AC01BD01CF010895A29FB001D4
:10515000B39FC001A39F700D811D1124911DB29FAB
:10516000700D811D1124911D0895F894FFCFBD0984
:10517000BD09C609C609C809C609C609C609BD09C7
:10518000BD09CD09C609C609CD09300D580DEE0E71
:10519000580DEE0E8B0DAC0DEE0EA90EB60ECC1604
:1051A000E6161E17F7161C1723172117BB1AC51A68
:1051B000CC1AD11AD61ADB1AE01AE51AEA1AEF1A33
:1051C000F41A9C18F91AFE1A011B041B071B0A1B70
:1051D0000C1B0F1BA91BA91B351C351C891CDF1BB5
:1051E000191EDF1BA51C7D1D8E1D8E1D231E501E2E
:0A51F0002D1E301E371E331E3C1E1C
:1051FA00010000000000F503200001191A1B1C1D04
:10520A001E1F2021220102012000B4049F0AB304B8
:10521A009B0A970A01000102020202060606090910
:10522A00090909090F0F0F0F0F0F1515151819196D
:10523A001919191919191919232425252525252577
:10524A00000D010D020D030D040D050D000C010CDE
:10525A00020C030C040C050C000B010B020B030BD4
:10526A00040B050B000A010A020A030A040A050ACA
:10527A0000090109020903090409050900080108CE
:10528A0002080308040805080007010702070307C4
:10529A0004070507000601060206030604060506BA
:1052AA0000050105020503050405050500040104BE
:1052BA0002040304040405040003010302030303B4
:1052CA0004030503000201020202030204020502AA
:1052DA0000010101020103010401050100000100AE
:1052EA000200030004000500818283E200E900EA6B
:1052FA0000B500B600B700CD008301CC008A019248
:10530A000194012102230224022502260227022AED
:0A531A0002B300B4006F0070000041
:00000001FF
